:100000000C9462000C948A000C948A000C948A0070
:100010000C948A000C948A000C948A000C948A0038
:100020000C948A000C948A000C948A000C94AC07FF
:100030000C948A000C948A000C948A000C948A0018
:100040000C94D1010C948A000C94F8030C943B049A
:100050000C948A000C948A000C948A000C948A00F8
:100060000C948A000C948A00000000070002010032
:100070000003040600000000000000000102040864
:100080001020408001020408102001020408102002
:10009000040404040404040402020202020203032E
:1000A00003030303000000002300260029000000D2
:1000B0000000250028002B0000000000240027007D
:1000C0002A00F70411241FBECFEFD8E0DEBFCDBF5A
:1000D00011E0A0E0B1E0E8E3F1E102C005900D928B
:1000E000A837B107D9F712E0A8E7B1E001C01D9227
:1000F000A938B107E1F710E0C4ECD0E004C02297C2
:10010000FE010E949608C23CD107C9F70E947D06F5
:100110000C945E080C9400009F92AF92BF92CF9215
:10012000DF92EF92FF920F931F93CF93DF93CDB7A0
:10013000DEB76F970FB6F894DEBF0FBECDBF8EE16E
:100140008F8FBE01615E7F4FCE0101967C010E94C0
:100150001F08882309F479C0AF8CB12C6701C60150
:100160008E199F098A159B050CF06CC0F6019190C1
:100170006F01092D112707FD10950134110549F470
:100180008AE791E00E9440089093A1018093A0012A
:100190002FC00234110549F48AE791E00E9440081B
:1001A00090939F0180939E0123C00334110549F46D
:1001B0008AE791E00E94400890939D0180939C0102
:1001C00017C00434110549F48AE791E00E94400801
:1001D00090939B0180939A010BC00534110541F463
:1001E0008AE791E00E9440089093990180939801DA
:1001F000C801815491094A9730F0005311090A301F
:10020000110590F00CC01092790110927801EAE784
:10021000F1E0119281E0E438F807D9F7EECF83EDF1
:10022000890D823008F09BCF8091780190917901FF
:10023000FC01E658FE4F90820196909379018093DD
:1002400078018DCF81E090E002C080E090E06F9671
:100250000FB6F894DEBF0FBECDBFDF91CF911F91D7
:100260000F91FF90EF90DF90CF90BF90AF909F9055
:10027000089561E08DE00E94C80240E855E260E028
:1002800070E08BEA91E00E94760481E00E94BF0654
:1002900080ED97E00E94650787E00E94BC060E94FF
:1002A000A20761E08DE00E94010367E471E08BEA40
:1002B00091E00E94A80568EE73E080E090E00E9463
:1002C0003E0260E08DE00C9401030E948C00892BBB
:1002D00009F466C061E08DE00E9401034AE050E04D
:1002E0006BE070E08BEA91E00E945D0666E571E0EC
:1002F0008BEA91E00E948B056091A0017091A101B1
:100300004AE050E08BEA91E00E945D0666E571E00C
:100310008BEA91E00E948B0560919E0170919F0194
:100320004AE050E08BEA91E00E945D0666E571E0EC
:100330008BEA91E00E948B0560919C0170919D0178
:100340004AE050E08BEA91E00E945D0666E571E0CC
:100350008BEA91E00E948B0560919A0170919B015C
:100360004AE050E08BEA91E00E945D0666E571E0AC
:100370008BEA91E00E948B05609198017091990140
:100380004AE050E08BEA91E00E94650668EE73E077
:1003900080E090E00E943E0260E08DE00C9401035A
:1003A00008951F920F920FB60F9211242F933F932F
:1003B0008F939F93AF93BF938091A3019091A401DA
:1003C000A091A501B091A6013091A20123E0230FD5
:1003D0002D3720F40196A11DB11D05C026E8230F7D
:1003E0000296A11DB11D2093A2018093A3019093B9
:1003F000A401A093A501B093A6018091A7019091BB
:10040000A801A091A901B091AA010196A11DB11D59
:100410008093A7019093A801A093A901B093AA018A
:10042000BF91AF919F918F913F912F910F900FBEF0
:100430000F901F9018953FB7F8948091A701909165
:10044000A801A091A901B091AA0126B5A89B05C059
:100450002F3F19F00196A11DB11D3FBF6627782FD0
:10046000892F9A2F620F711D811D911D42E0660F29
:10047000771F881F991F4A95D1F70895CF92DF9271
:10048000EF92FF92CF93DF936B017C010E941B02DE
:10049000EB01C114D104E104F10479F00E941B02C4
:1004A0006C1B7D0B683E7340A0F381E0C81AD10835
:1004B000E108F108C851DC4FECCFDF91CF91FF90FC
:1004C000EF90DF90CF900895789484B5826084BDDA
:1004D00084B5816084BD85B5826085BD85B5816048
:1004E00085BDEEE6F0E0808181608083E1E8F0E0A8
:1004F0001082808182608083808181608083E0E8D7
:10050000F0E0808181608083E1EBF0E080818460B5
:100510008083E0EBF0E0808181608083EAE7F0E0B7
:10052000808184608083808182608083808181601B
:1005300080838081806880831092C1000895833019
:1005400081F028F4813099F08230A1F0089586304E
:10055000A9F08730B9F08430D1F4809180008F7D8C
:1005600003C0809180008F7780938000089584B5C8
:100570008F7702C084B58F7D84BD08958091B000CF
:100580008F7703C08091B0008F7D8093B000089575
:10059000CF93DF9390E0FC01E458FF4F2491FC01DE
:1005A000E057FF4F8491882349F190E0880F991F0D
:1005B000FC01E854FF4FA591B49182559F4FFC0177
:1005C000C591D4919FB7611108C0F8948C91209582
:1005D00082238C93888182230AC0623051F4F8947C
:1005E0008C91322F309583238C938881822B888342
:1005F00004C0F8948C91822B8C939FBFDF91CF9194
:1006000008950F931F93CF93DF931F92CDB7DEB75B
:10061000282F30E0F901E859FF4F8491F901E4589F
:10062000FF4F1491F901E057FF4F04910023C9F0E7
:10063000882321F069830E949F026981E02FF0E006
:10064000EE0FFF1FE255FF4FA591B4919FB7F894AD
:100650008C91611103C01095812301C0812B8C9373
:100660009FBF0F90DF91CF911F910F910895CF936E
:10067000DF93282F30E0F901E859FF4F8491F90109
:10068000E458FF4FD491F901E057FF4FC491CC23B8
:1006900091F081110E949F02EC2FF0E0EE0FFF1FFE
:1006A000EC55FF4FA591B4912C912D2381E090E062
:1006B00021F480E002C080E090E0DF91CF910895C6
:1006C000FC0124853585F901E05CFF4F8081918133
:1006D000F901EE5BFF4F20813181821B930B8F73F9
:1006E00099270895FC0184859585FC01E05CFF4F06
:1006F00040815181FC01EE5BFF4F20813181421727
:10070000530741F00190F081E02DE80FF91F80813F
:1007100090E008958FEF9FEF0895FC018485958503
:10072000FC01E05CFF4F40815181FC01EE5BFF4F1B
:10073000208131814217530779F0A081B181A80F40
:10074000B91F8C91208131812F5F3F4F2F73332749
:100750003183208390E008958FEF9FEF0895FC018F
:1007600081A1882329F0A489B5898C9186FFFBCFCC
:1007700011A20895CF93DF93FC0126853785D90117
:10078000A05CBF4F8D919C91119701968F73992713
:10079000E901CE5BDF4F4881598184179507D9F372
:1007A0000D90BC91A02DA20FB31F6C93A685B785A9
:1007B000A05CBF4F11969C938E93A689B7892C910C
:1007C00081E090E0078C02C0880F991F0A94E2F73D
:1007D000282B2C9381E081A30488F589E02D80816A
:1007E0008064808381E090E0DF91CF910895089547
:1007F0001F920F920FB60F9211242F933F934F9396
:100800008F939F93EF93FF938091C00082FD1CC054
:100810004091C600809151029091520201968F73CF
:10082000992720915302309154028217930771F057
:10083000E0915102F0915202EF5EFD4F40839093A0
:1008400052028093510202C08091C600FF91EF9145
:100850009F918F914F913F912F910F900FBE0F90CD
:100860001F9018958BEA91E00E946003892B11F08C
:100870000C94F70308951F920F920FB60F92112454
:100880002F933F938F939F93EF93FF9320910D02AC
:1008900030910E0280910F029091100228173907B3
:1008A00031F48091C1008F7D8093C10014C0E0912C
:1008B0000F02F0911002E353FE4F208180910F024E
:1008C0009091100201968F73992790931002809354
:1008D0000F022093C600FF91EF919F918F913F915E
:1008E0002F910F900FBE0F901F901895CF92DF920F
:1008F000EF92FF92CF93DF93EC016A017B014115E8
:1009000081EE580761057105F9F0EC89FD8981E0F8
:1009100090E008A002C0880F991F0A94E2F7808334
:1009200060E079E08DE390E0A70196010E947208F3
:100930002150310941095109569547953795279519
:10094000211580E1380798F0EC89FD89108260E874
:1009500074E88EE190E0A70196010E947208215090
:100960003109410951095695479537952795E889E9
:10097000F9893083EA89FB89208319A2EE89FF89EE
:10098000408181E090E09C010C8C02C0220F331F5B
:100990000A94E2F7422B4083EE89FF8940819C0153
:1009A0000D8C02C0220F331F0A94E2F7422B4083C2
:1009B000EE89FF8940819C010E8C02C0220F331FFB
:1009C0000A94E2F7422B4083EE89FF8920810F8C45
:1009D00002C0880F991F0A94E2F7809582238083D2
:1009E000DF91CF91FF90EF90DF90CF90089510921C
:1009F000AE011092AD0188EE93E0A0E0B0E08093EC
:100A0000AF019093B001A093B101B093B2018CE516
:100A100091E09093AC018093AB0181E192E09093DF
:100A2000B8018093B7018DEC91E09093BA01809367
:100A3000B90185EC90E09093BC018093BB0184ECFC
:100A400090E09093BE018093BD0180EC90E0909384
:100A5000C0018093BF0181EC90E09093C20180932C
:100A6000C10182EC90E09093C4018093C30186ECB5
:100A700090E09093C6018093C50184E08093C70104
:100A800083E08093C80187E08093C90185E080936B
:100A9000CA0181E08093CB010895CF92DF92EF925B
:100AA000FF920F931F93CF93DF936C017A01EB01B9
:100AB000E60EF71E00E010E0CE15DF0561F069914B
:100AC000D601ED91FC910190F081E02DC6010995D0
:100AD000080F191FF1CFC801DF91CF911F910F911E
:100AE000FF90EF90DF90CF9008956115710581F030
:100AF000DB010D900020E9F7AD0141505109461B83
:100B0000570BDC01ED91FC910280F381E02D0994FB
:100B100080E090E008950C947505DC01ED91FC9166
:100B20000190F081E02D09940F931F93CF93DF93F1
:100B3000EC016DE00E948D058C016AE0CE010E94FF
:100B40008D05800F911FDF91CF911F910F91089517
:100B50000F931F93CF93DF93EC010E9475058C01D7
:100B6000CE010E949405800F911FDF91CF911F91BC
:100B70000F9108958F929F92AF92BF92CF92DF9282
:100B8000EF92FF920F931F93CF93DF93CDB7DEB712
:100B9000A1970FB6F894DEBF0FBECDBF7C01C42E67
:100BA000E52FCB01D22E19A221E02D1510F02AE05D
:100BB000D22E8E010F5D1F4F8D2C912CA12CB12CAC
:100BC0006C2D7E2FA50194010E9472088C2DD29E5F
:100BD00080191124015011098A3014F4805D01C07C
:100BE000895CF8018083211531054105510521F00B
:100BF000C22EE32FCA01E4CFB801C7010E947505D8
:100C0000A1960FB6F894DEBF0FBECDBFDF91CF9196
:100C10001F910F91FF90EF90DF90CF90BF90AF901A
:100C20009F908F900895CF92DF92EF92FF920F9353
:100C30001F93CF93DF93EC016A017B0121153105EE
:100C400079F4E881F9810190F081E02D642FDF9142
:100C5000CF911F910F91FF90EF90DF90CF9009946B
:100C60002A303105E9F477FF1AC06DE20E948D0544
:100C70008C0144275527BA014C195D096E097F097B
:100C80002AE0CE010E94BA05800F911FDF91CF911B
:100C90001F910F91FF90EF90DF90CF9008952AE081
:100CA000B701A601CE01DF91CF911F910F91FF9067
:100CB000EF90DF90CF900C94BA059A01AB016627B4
:100CC00057FD6095762F0C9413060F931F93CF93C7
:100CD000DF93EC019A01AB01662757FD6095762FF3
:100CE0000E9413068C01CE010E949405800F911F73
:100CF000DF91CF911F910F9108950E9464020E948D
:100D00003901C2E3D4E00E9465012097E1F30E941B
:100D10003204F9CF8627082E8295807F8025092E00
:100D2000982F82958F700826869598278927880F97
:100D3000880F880F802508951F93CF93DF93282F66
:100D4000162FEC018FEF9FEF120F1C1721F0699106
:100D50000E948A06FACFDF91CF911F910895E8E6AD
:100D6000F1E090E02191821729F09F5F9031D1F757
:100D700080E00895892F089580930101089580935C
:100D8000810208951F93CF93DF939091800299235E
:100D900029F080917D028F5F80937D0220917F02F8
:100DA00080917E02921759F0803510F42BE001C03B
:100DB0002DE1820F80937E0290937F0203C08C5EB0
:100DC00080937E0220917E02203A08F47AC08091BE
:100DD0007802909179029695879590937902809305
:100DE000780230917D02353028F098609093790236
:100DF00080937802205A20937E0210927D02809187
:100E00007C02882309F44DC0809177028F5F809324
:100E100077028C3008F455C0C0917802D0917902E5
:100E20008C2F8F730E94AF06182FCE0126E0969567
:100E300087952A95E1F70E94AF0690E1199F9001EE
:100E40001124822B9091570291110EC08093580269
:100E50009CEF980F9B3140F010927C0280915602DB
:100E60008F5F809356022DC0E091570291E09E0F54
:100E700090935702F0E0E75AFD4F8083909157021C
:100E800080915802981750F010927C028091550280
:100E90008F5F8093550281E080937B0210927702EE
:100EA00010C0809178029091790288339B4049F478
:100EB00081E080937C021092770210925702109288
:100EC0007B02DF91CF911F9108959C0140E050E09B
:100ED00060E874E88EE190E00E9472081092800051
:100EE00089E0809381003093890020938800EFE6A9
:100EF000F0E080818260808361E0809100010E9447
:100F0000C80260E0809101010E94C80261E0809106
:100F100002010E94C80260918102809102010C943A
:100F2000010360918102809102010E94010360E04F
:100F3000809100010E9401031092840281E080935D
:100F40007A02089580917A02811105C081E0809330
:100F50007A0210927C0208951F920F920FB60F92A0
:100F600011242F933F934F935F936F937F938F93AE
:100F70009F93AF93BF93EF93FF93809101010E94E2
:100F8000370380938002809184028823C9F0809186
:100F9000850291E0980F90938502811111C0E09134
:100FA000870280918802E817C0F00E949107809123
:100FB0008202909183020196909383028093820231
:100FC00080918502883010F01092850280917A021B
:100FD000882321F10E94C20621C0F0E0ED5FFE4FA0
:100FE00060812091860281E0820F8093860281E0F9
:100FF00090E001C0880F2A95EAF7682380910001EC
:101000000E940103809186028630D0F210928602FF
:10101000809187028F5F80938702D2CFFF91EF91FB
:10102000BF91AF919F918F917F916F915F914F9100
:101030003F912F910F900FBE0F901F901895FB01BD
:1010400020917B022223C9F0209157022350308146
:10105000231708F42083408150E06AE572E00E9483
:10106000610810927B026091570289E592E00E942C
:101070009C0621E0883B904F09F020E0822F0895E4
:10108000FC0188279927E89421912032E9F329303F
:1010900010F02E30C8F32B3241F02D3239F4689421
:1010A00004C00E946A08820F911D219120532A30AA
:1010B000C0F31EF4909581959F4F0895F8940C9479
:1010C0009A08FB01DC0102C001900D924150504092
:1010D000D8F708957AE0979F902D879F802D910DE6
:1010E00011240895A1E21A2EAA1BBB1BFD010DC0FD
:1010F000AA1FBB1FEE1FFF1FA217B307E407F507C8
:1011000020F0A21BB30BE40BF50B661F771F881FA3
:10111000991F1A9469F760957095809590959B0139
:10112000AC01BD01CF010895EE0FFF1F0590F491B2
:08113000E02D0994F894FFCFB3
:101138000C0B0A2A2A2A2A2A2A382C000000000026
:101148000000000000000000000000000000000097
:101158000000000000000000000000000000000087
:101168000000000000000000000000000000000077
:1011780000000000000000426565204D6F6E697434
:101188006F7220527800200000000000BA034D055D
:1011980060038D037203AF030D0E131516191A1C85
:0811A800232526292A2C3234EC
:00000001FF
