:10000000C5C10000EAC10000E8C10000E6C100006F
:10001000E4C10000E2C10000E0C10000DEC1000058
:10002000DCC10000DAC10000D8C100000C94860BCE
:10003000D4C10000D2C10000D0C10000CEC1000078
:100040000C944608CAC100009EC50000CEC5000041
:10005000C4C10000C2C10000C0C10000BEC1000098
:10006000BCC10000BAC10000000000000000002F69
:1000700000000007000700147F147F14242A7F2A41
:1000800012616608334336495522500005030000CB
:10009000001C2241000041221C0014083E081408E4
:1000A000083E0808000050300010101010100060CA
:1000B00060000020100804023E5149453E00427F86
:1000C000400042615149462141454B311814127F8D
:1000D0001027454545393C4A494930017109050316
:1000E0003649494936064949291E0036360000007E
:1000F0005636000008142241001414141414004150
:100100002214080201510906324959513E7E11114B
:10011000117E7F494949363E414141227F4141227A
:100120001C7F494949417F090909013E4149497AF2
:100130007F0808087F00417F41002040413F017F48
:10014000081422417F404040407F020C027F7F0420
:1001500008107F3E4141413E7F090909063E415159
:10016000215E7F09192946464949493101017F012C
:10017000013F4040403F1F2040201F3F4038403F4C
:100180006314081463070870080761514945430068
:100190007F414100552A552A550041417F00040204
:1001A0000102044040404040000102040020545439
:1001B00054787F48444438384444442038444448C0
:1001C0007F3854545418087E0901020C5252523E92
:1001D0007F0804047800447D40002040443D007FB7
:1001E0001028440000417F40007C041804787C08FB
:1001F00004047838444444387C1414140808141453
:10020000187C7C080404084854545420043F44409B
:10021000203C4040207C1C2040201C3C4030403C86
:1002200044281028440C5050503C4464544C440022
:100230000609090600000008000201000003040787
:1002400000000000000000000102040810204080AF
:100250000102040810200102040810200404040410
:100260000404040402020202020203030303030360
:1002700000000000230026002900000000002500E7
:1002800028002B0000000000240027002A00004066
:100290007A10F35A00A0724E18090010A5D4E80095
:1002A00000E87648170000E40B54020000CA9A3BAD
:1002B000000000E1F5050000809698000000404233
:1002C0000F000000A08601000000102700000000C1
:1002D000E803000000006400000000000A000000C5
:1002E00000000100000000002C76D888DC674F0871
:1002F00023DFC1DFAE59E1B1B796E5E3E453C63A77
:10030000E651997696E8E6C28426EB898C9B62EDED
:10031000407C6FFCEFBC9C9F40F2BAA56FA5F490A7
:10032000055A2AF75C936B6CF9676DC11BFCE0E41E
:100330000D47FEF520E6B500D0ED902E0300943574
:1003400077050080841E080000204E0A000000C8C7
:100350000C333333330F986E12831141EF8D211418
:10036000893BE65516CFFEE6DB18D1844B381BF7E8
:100370007C1D901DA4BBE424203284725E22810087
:10038000C9F124ECA1E53D278004230611241FBEFA
:10039000CFEFD8E0DEBFCDBF11E0A0E0B1E0E0E7F5
:1003A000F3E202C005900D92A03FB107D9F723E018
:1003B000A0EFB1E001C01D92AE30B207E1F713E04B
:1003C000CCE8D3E004C02297FE010E94E50CC838B7
:1003D000D107C9F751D60C94B61112CE0F9381E014
:1003E000F7D780ED97E00E948C0A86E0EED70E9456
:1003F0005D0B8EE292E090D78EE292E06AD726E023
:1004000040E855E260E070E082E392E05CD365E5AD
:1004100071E082E392E0A3D401E024E631E040E021
:1004200060E08EE292E030D700E023E731E043E085
:1004300060E08EE292E028D72BE731E044E060E014
:100440008EE292E021D701E024E831E045E060E06F
:100450008EE292E019D70F9108959F92AF92BF92CA
:10046000CF92DF92EF92FF920F931F93CF93DF9380
:10047000CDB7DEB76F970FB6F894DEBF0FBECDBF16
:100480008EE18F8FBE01615E7F4FCE0101967C01B0
:100490000E94670B882309F479C0AF8CB12C6701E7
:1004A000C6018E199F098A159B050CF06CC0F601D8
:1004B00091906F01092D112707FD10950136110547
:1004C00049F482EF91E00E94280F90932D028093CF
:1004D0002C022FC00536110549F482EF91E00E94ED
:1004E000280F90932B0280932A0223C00B3611050C
:1004F00049F482EF91E00E94280F909329028093A3
:10050000280217C00D36110549F482EF91E00E94D0
:10051000280F90932702809326020BC00537110500
:1005200041F482EF91E00E94280F9093250280937E
:100530002402C801815691094A9730F000531109ED
:100540000A30110590F00CC01092F1011092F001E8
:10055000E2EFF1E0119281E0EC3FF807D9F7EECF3E
:1005600083ED890D823008F09BCF8091F00190914E
:10057000F101FC01EE50FE4F908201969093F10143
:100580008093F0018DCF81E090E002C080E090E0A8
:100590006F960FB6F894DEBF0FBECDBFDF91CF913F
:1005A0001F910F91FF90EF90DF90CF90BF90AF9091
:1005B0009F900895CF92DF92EF92FF920F931F9337
:1005C000CF93DF9300D000D0CDB7DEB746DF892BC5
:1005D00009F489C160912C0270912D02882777FD62
:1005E0008095982F0E94ED0D20E030E048EC52E419
:1005F0000E94520D6B017C016093200270932102D6
:10060000809322029093230260912A0270912B0220
:10061000882777FD8095982F0E94ED0D20E030E02F
:1006200048EC52E40E94520D60931C0270931D022C
:1006300080931E0290931F026091280270912902FC
:10064000882777FD8095982F0E94ED0D20E030E0FF
:1006500048EC52E40E94520D609318027093190204
:1006600080931A0290931B026091260270912702D8
:10067000882777FD8095982F0E94ED0D20E030E0CF
:1006800048EC52E40E94520D6093140270931502DC
:1006900080931602909317026091240270912502B4
:1006A000882777FD8095982F0E94ED0D20E030E09F
:1006B00048EC52E40E94520D6093100270931102B4
:1006C000809312029093130222E030E0B701A6015A
:1006D00082E392E0BFD468E871E082E392E034D331
:1006E00040911C0250911D0260911E0270911F02E8
:1006F00022E030E082E392E0ADD468E871E082E38A
:1007000092E022D3409118025091190260911A028E
:1007100070911B0222E030E082E392E09BD468E813
:1007200071E082E392E010D34091140250911502DF
:10073000609116027091170222E030E082E392E0AD
:100740008AD468E871E082E392E0FED24091100220
:1007500050911102609112027091130222E030E078
:1007600082E392E077D48EE292E0B3D501E024E612
:1007700031E040E060E08EE292E086D500E02AE8D9
:1007800031E041E060E08EE292E07ED521E931E0A7
:1007900042E060E08EE292E077D52AE931E043E082
:1007A00060E08EE292E070D521EA31E044E060E062
:1007B0008EE292E069D52AEA31E045E060E08EE21F
:1007C00092E062D560912002709121028091220214
:1007D000909123028E010F5F1F4F21E040E00E94A5
:1007E000080F63EB71E0C8010E944E0F00E09E010C
:1007F0002F5F3F4F41E060E38EE292E045D560918C
:100800001C0270911D0280911E0290911F028E01A8
:100810000F5F1F4F21E040E00E94080F63EB71E083
:10082000C8010E944E0F00E09E012F5F3F4F42E043
:1008300060E38EE292E028D560911802709119026F
:1008400080911A0290911B028E010F5F1F4F21E0D1
:1008500040E00E94080F63EB71E0C8010E944E0F58
:1008600000E09E012F5F3F4F43E060E38EE292E0A5
:100870000BD560911402709115028091160290912F
:1008800017028E010F5F1F4F21E040E00E94080F0A
:1008900063EB71E0C8010E944E0F00E09E012F5FE4
:1008A0003F4F44E060E38EE292E0EED460911002AC
:1008B0007091110280911202909113028E010F5FCC
:1008C0001F4F21E040E00E94080F65EB71E0C80176
:1008D0000E944E0F00E09E012F5F3F4F45E060E316
:1008E0008EE292E0D1D40F900F900F900F90DF9195
:1008F000CF911F910F91FF90EF90DF90CF900895CF
:100900008EE292E053C4FC01818D228D90E0805CE8
:100910009F4F821B91098F7399270895FC01918D38
:10092000828D981731F0828DE80FF11D858D90E052
:1009300008958FEF9FEF0895FC01918D828D981798
:1009400061F0828DDF01A80FB11D5D968C91928DB3
:100950009F5F9F73928F90E008958FEF9FEF0895B0
:100960008AE196E0892B41F080E090E0892B21F02C
:1009700061D181110C9400000895FC01848DDF0188
:10098000A80FB11DA35ABF4F2C91848D90E0019602
:100990008F739927848FA689B7892C93A089B189F1
:1009A0008C9180648C93938D848D981306C00288FB
:1009B000F389E02D80818F7D80830895CF93DF932D
:1009C000EC01888D8823C1F0EA89FB89808185FD4F
:1009D00005C0A889B9898C9186FD0EC00FB607FCA9
:1009E000F5CF808185FFF2CFA889B9898C9185FFE9
:1009F000EDCFCE01C2DFE8CFDF91CF910895CF9246
:100A0000DF92FF920F931F93CF93DF931F92CDB787
:100A1000DEB76C0181E0D60158968C9358975B96AF
:100A20009C915B975C968C915C97981307C050964D
:100A3000ED91FC915197808185FD2DC0F601038DCC
:100A400010E00F5F1F4F0F731127F02EF601848DFA
:100A5000F81210C00FB607FCF9CFD6015096ED91F1
:100A6000FC915197808185FFF1CFC601698385DFB5
:100A70006981ECCF838DE80FF11DE35AFF4F60834E
:100A8000D6015B960C935B975296ED91FC91539730
:100A9000808180620CC0D6015696ED91FC915797EB
:100AA00060835096ED91FC915197808180648083A2
:100AB00081E090E00F90DF91CF911F910F91FF9017
:100AC000DF90CF900895BF92CF92DF92EF92FF9286
:100AD000CF93DF93EC016A017B01B22EE889F9899B
:100AE00082E08083411581EE58076105710599F018
:100AF00060E079E08DE390E0A701960142D72150B4
:100B00003109410951095695479537952795211582
:100B100080E1380790F0E889F989108260E874E88C
:100B20008EE190E0A70196012CD7215031094109AF
:100B300051095695479537952795EC85FD85308366
:100B4000EE85FF852083188EEC89FD89B082EA89C5
:100B5000FB89808180618083EA89FB89808188604C
:100B60008083EA89FB89808180688083EA89FB89A8
:100B700080818F7D8083DF91CF91FF90EF90DF9018
:100B8000CF90BF9008951F920F920FB60F9211242D
:100B90002F938F939F93EF93FF93E0914202F091F5
:100BA00043028081E0914802F091490282FD12C027
:100BB000908180914B028F5F8F7320914C0282173E
:100BC00051F0E0914B02F0E0EE5CFD4F958F809389
:100BD0004B0201C08081FF91EF919F918F912F91E6
:100BE0000F900FBE0F901F9018951F920F920FB687
:100BF0000F9211242F933F934F935F936F937F93A3
:100C00008F939F93AF93BF93EF93FF9382E392E011
:100C1000B4DEFF91EF91BF91AF919F918F917F9142
:100C20006F915F914F913F912F910F900FBE0F9059
:100C30001F90189582E392E066DE21E0892B09F48B
:100C400020E0822F0895109235021092340288EE2F
:100C500093E0A0E0B0E08093360290933702A09337
:100C60003802B09339028BEB91E09093330280937A
:100C7000320285EC90E090933F0280933E0284EC38
:100C800090E0909341028093400280EC90E090933A
:100C900043028093420281EC90E09093450280935E
:100CA000440282EC90E0909347028093460286ECE7
:100CB00090E0909349028093480210924B02109268
:100CC0004C0210924D0210924E020895CF92DF9284
:100CD000EF92FF920F931F93CF93DF937C016A01F2
:100CE000EB0100E010E00C151D0571F06991D701D2
:100CF000ED91FC910190F081E02DC7010995892BC0
:100D000019F00F5F1F4FEFCFC801DF91CF911F91F7
:100D10000F91FF90EF90DF90CF90089561157105CE
:100D200081F0DB010D900020E9F7AD014150510940
:100D3000461B570BDC01ED91FC910280F381E02D05
:100D4000099480E090E00895E9CFDC01ED91FC91F9
:100D50000190F081E02D099467EC71E0DFCF0F93F3
:100D60001F93CF93DF93EC01D9DF8C01CE01F4DF29
:100D7000800F911FDF91CF911F910F9108958F9256
:100D80009F92AF92BF92DF92EF92FF920F931F93C9
:100D9000CF93DF93CDB7DEB7A1970FB6F894DEBF40
:100DA0000FBECDBF7C01F42FD52ECB0119A222306E
:100DB00008F42AE08E010F5D1F4F822E912CA12C8A
:100DC000B12C6F2F7D2DA5019401DBD5F22FD32EF1
:100DD000CA01015011096A3014F4E0E301C0E7E3ED
:100DE000E60FD801EC93232B242B252B51F7B801C8
:100DF000C70194DFA1960FB6F894DEBF0FBECDBF3A
:100E0000DF91CF911F910F91FF90EF90DF90BF90F6
:100E1000AF909F908F900895CF92DF92EF92FF92C4
:100E20000F931F93CF93DF93EC016A017B01211590
:100E3000310579F4E881F9810190F081E02D642F8A
:100E4000DF91CF911F910F91FF90EF90DF90CF90A6
:100E500009942A303105D9F477FF18C06DE275DFA7
:100E60008C0144275527BA014C195D096E097F0989
:100E70002AE0CE0184DF800F911FDF91CF911F9177
:100E80000F91FF90EF90DF90CF9008952AE0B70187
:100E9000A601CE01DF91CF911F910F91FF90EF90AE
:100EA000DF90CF906CCF4F925F926F927F928F9234
:100EB0009F92AF92BF92CF92DF92EF92FF920F93E9
:100EC0001F93CF93DF93EC016A017B01B22E9A014D
:100ED000AB01C701B60198D7882319F06AEC71E01D
:100EE00024C026013701E89477F82FEF3FEF4FE752
:100EF0005FE7C301B20188D781110CC02FEF3FEF2C
:100F00004FE75FE7C301B201C9D518161CF46EECB8
:100F100071E00BC02FEF3FEF4FE75FE4C701B60171
:100F20000CD71816A4F462ED71E0CE01DF91CF91D9
:100F30001F910F91FF90EF90DF90CF90BF90AF90F7
:100F40009F908F907F906F905F904F90E7CE2FEFA4
:100F50003FEF4FE75FECC701B601A0D587FDE3CFB8
:100F600020E030E0A901C701B60198D587FF09C08C
:100F70006DE2CE01EADE8C01F7FAF094F7F8F09416
:100F800002C000E010E0A12C60E070E080E09FE390
:100F9000AB1439F020E030E040E251E483D5A39473
:100FA000F7CF9B01AC01C701B60114D56B017C01E1
:100FB000E6D52B013C010FD69B01AC01C701B60160
:100FC00008D56B017C012AE0B301A201CE01D7DE76
:100FD000080F191FBB2031F066ED71E0CE019EDED7
:100FE000080F191F7B2C772019F120E030E040E238
:100FF00051E4C701B601A5D66B017C01BBD54B01FD
:10100000AA2497FCA094BA2C2AE030E0B501A401F0
:10101000CE0102DF080F191FC501B401DED59B0107
:10102000AC01C701B601D5D46B017C017A94DBCF4A
:10103000C801DF91CF911F910F91FF90EF90DF904A
:10104000CF90BF90AF909F908F907F906F905F9068
:101050004F90089528CF0F931F93CF93DF93EC0108
:1010600022DF8C01CE0178DE800F911FDF91CF91BE
:101070001F910F91089508955ED0FDDFAFD9C0EBA9
:10108000D4E098DA2097E9F36BDCFBCF1F920F9244
:101090000FB60F9211242F933F938F939F93AF938B
:1010A000BF938091D0029091D102A091D202B091D1
:1010B000D3023091CF0223E0230F2D3720F4019685
:1010C000A11DB11D05C026E8230F0296A11DB11D6B
:1010D0002093CF028093D0029093D102A093D202AA
:1010E000B093D3028091D4029091D502A091D60200
:1010F000B091D7020196A11DB11D8093D4029093A7
:10110000D502A093D602B093D702BF91AF919F9121
:101110008F913F912F910F900FBE0F901F901895B8
:101120008230910538F0880F991F880F991F059715
:101130000197F1F70895789484B5826084BD84B5F1
:10114000816084BD85B5826085BD85B5816085BDC2
:10115000EEE6F0E0808181608083E1E8F0E01082DB
:10116000808182608083808181608083E0E8F0E01C
:10117000808181608083E1EBF0E080818460808306
:10118000E0EBF0E0808181608083EAE7F0E080813D
:10119000846080838081826080838081816080839D
:1011A0008081806880831092C1000895FC011382C1
:1011B00012822CED31E03183208308952A982898FB
:1011C0006EBD0DB407FEFDCF2A9A08952A98289A7D
:1011D0006EBD0DB407FEFDCF2A9A0895DF92EF92FF
:1011E000FF920F931F93CF93DF937C01D42E70E077
:1011F0006052710985E0869F8001879F100D112440
:10120000C0E0D0E008591F4FF801EC0FFD1FD110CE
:1012100002C0649102C064916095C701D7DF219636
:10122000C530D10589F761E0D11001C060E061955A
:10123000C701DF91CF911F910F91FF90EF90DF9049
:10124000C5CF40E0CBDF81E090E008950F931F937E
:10125000CF93DF93EC01162F643508F013E5042FCC
:10126000463008F005E0612F6068CE01A7DF602FEF
:101270006064CE01A3DF0093D9021093D802DF91FE
:10128000CF911F910F910895CF92DF92EF92FF922D
:101290000F93CF93DF9300D0CDB7DEB77C012983C6
:1012A0003A83D4DF2981C22E3A81D32EF60161918F
:1012B0006F01662321F0402FC70190DFF7CF0F9019
:1012C0000F90DF91CF910F91FF90EF90DF90CF9033
:1012D0000895EF92FF920F931F93CF93DF93EC014A
:1012E00040E060E0B3DF86E0E82EF12C04E510E09A
:1012F00060E0CE016BDF01501109D1F781E0E81AFF
:10130000F108A1F740E060E0CE01DF91CF911F919D
:101310000F91FF90EF909ACFCF93DF93EC0184B1C0
:101320008F6284B9579A229A2A9A2A9A299881E038
:1013300090E0F6DE299A81E58CBD5F9A61E2CE01EC
:101340003DDF60ECCE013ADF66E0CE0137DF63E1DE
:10135000CE0134DF60E2CE0131DF6CE0CE012EDF62
:10136000CE01DF91CF91B5CF8627082E8295807F61
:101370008025092E982F82958F70082686959827AC
:101380008927880F880F880F802508951F93CF9392
:10139000DF93282F162FEC018FEF9FEF120F1C17F2
:1013A00019F06991E1DFFBCFDF91CF911F91089593
:1013B000E0EEF1E090E02191821729F09F5F9031FB
:1013C000D1F780E00895892F089580930101089551
:1013D0008093060308951F93CF93DF9390910503A5
:1013E000992329F0809102038F5F8093020320915B
:1013F000040380910303921759F0803510F42BE019
:1014000001C02DE1820F809303039093040303C076
:101410008C5E8093030320910303203A08F478C084
:101420008091FD029091FE02969587959093FE0221
:101430008093FD0230910203353028F0986090933C
:10144000FE028093FD02205A2093030310920203B0
:1014500080910103882309F44BC08091FC028F5FC7
:101460008093FC028C3008F453C0C091FD02D091EF
:10147000FE028C2F8F739CDF182FCE0126E09695ED
:1014800087952A95E1F794DF90E1199F9001112447
:10149000822B9091DC0291110EC08093DD029CEFB3
:1014A000980F9B3140F0109201038091DB028F5F17
:1014B0008093DB022DC0E091DC0291E09E0F9093BF
:1014C000DC02F0E0E252FD4F80839091DC028091DB
:1014D000DD02981750F0109201038091DA028F5FBD
:1014E0008093DA0281E0809300031092FC0210C026
:1014F0008091FD029091FE0288339B4049F481E087
:10150000809301031092FC021092DC0210920003FF
:10151000DF91CF911F9108954F925F926F927F92CA
:10152000BF92CF92DF92EF92FF920F931F93CF93D0
:10153000DF93CDB7DEB72E970FB6F894DEBF0FBEA0
:10154000CDBFBC018EE0E7E4F1E0DE011196019031
:101550000D928A95E1F76115710509F48EC080E05E
:1015600090E039D39B01AC0160E070E080E89FE33C
:1015700099D220E030E040E05EE3E3D36B017C01F0
:101580008E010D5F1F4FBB24B394F80161917191DF
:101590008F0180E090E01FD39B01AC0160E074E21A
:1015A00084E79BE47FD29B01AC0160E070E080E8BF
:1015B0009FE378D29B01AC01C701B60173D2DAD2A6
:1015C0002B013C01F2E04F1A5108610871082DEF20
:1015D00042162FEF52066104710428F0B394E7E03D
:1015E000BE12D3CF05C0F6E0BF1609F446C00CC04A
:1015F000623071058105910508F43FC061157105E0
:1016000021E082079105C8F5BB20B9F11092800056
:1016100028E020938100209181002B2920938100D4
:10162000709389006093880080916F00826080933E
:101630006F0061E0809100010ED160E080910101B6
:101640000AD161E08091020106D160910603809188
:1016500002012E960FB6F894DEBF0FBECDBFDF910C
:10166000CF911F910F91FF90EF90DF90CF90BF909F
:101670007F906F905F904F9027C12E960FB6F89491
:10168000DEBF0FBECDBFDF91CF911F910F91FF90B5
:10169000EF90DF90CF90BF907F906F905F904F90D2
:1016A000089560910603809102010ED160E080915F
:1016B00000010AD11092090308958091FF0281115F
:1016C00005C081E08093FF02109201030895FB01A1
:1016D000209100032223B9F02091DC0223503081B5
:1016E000231708F42083408150E06FED72E0CDD3E2
:1016F000109200036091DC028EED92E047DE21E063
:10170000883B904F09F020E0822F08951F920F929E
:101710000FB60F9211242F933F934F935F936F93C4
:101720007F938F939F93AF93BF93EF93FF9380919A
:10173000FF02882321F080910903882361F18091C1
:1017400009038823C1F080910A0391E0980F9093D8
:101750000A03811110C0E0910C0380910D03E8177A
:1017600000F19FDF80910703909108030196909309
:1017700008038093070380910A03883010F01092C9
:101780000A038091FF02882361F18091090381118E
:1017900028C021DE26C080910101CBD080930503B3
:1017A000CECFF0E0ED5FFE4F608120910B0381E032
:1017B000820F80930B0381E090E001C0880F2A958F
:1017C000EAF76823809100017FD080910B03863077
:1017D00090F210920B0380910C038F5F80930C03A7
:1017E000CACFFF91EF91BF91AF919F918F917F9160
:1017F0006F915F914F913F912F910F900FBE0F907E
:101800001F901895833081F028F4813099F0823050
:10181000A1F008958730A9F08830B9F08430D1F470
:10182000809180008F7D03C0809180008F778093AE
:101830008000089584B58F7702C084B58F7D84BD04
:1018400008958091B0008F7703C08091B0008F7DA4
:101850008093B0000895CF93DF9390E0FC01E85BA4
:10186000FD4F2491FC01E45AFD4F8491882349F1F6
:1018700090E0880F991FFC01EC57FD4FA591B491A2
:1018800086589D4FFC01C591D4919FB7611108C046
:10189000F8948C91209582238C93888182230AC0AE
:1018A000623051F4F8948C91322F309583238C93CD
:1018B0008881822B888304C0F8948C91822B8C932E
:1018C0009FBFDF91CF9108950F931F93CF93DF9325
:1018D0001F92CDB7DEB7282F30E0F901EC5CFD4F49
:1018E0008491F901E85BFD4F1491F901E45AFD4F31
:1018F00004910023C1F0882319F0698383DF698193
:10190000E02FF0E0EE0FFF1FE658FD4FA591B491D8
:101910009FB7F8948C91611103C01095812301C089
:10192000812B8C939FBF0F90DF91CF911F910F91CF
:101930000895CF93DF93282F30E0F901EC5CFD4F41
:101940008491F901E85BFD4FD491F901E45AFD4F10
:10195000C491CC2389F0811155DFEC2FF0E0EE0F1C
:10196000FF1FE059FD4FA591B4912C912D2381E0EB
:1019700090E021F480E002C080E090E0DF91CF9120
:101980000895A1E21A2EAA1BBB1BFD010DC0AA1FC0
:10199000BB1FEE1FFF1FA217B307E407F50720F0D8
:1019A000A21BB30BE40BF50B661F771F881F991F53
:1019B0001A9469F760957095809590959B01AC019C
:1019C000BD01CF010895EE0FFF1F0590F491E02DAA
:1019D00009945058BB27AA270ED075C166D130F0A4
:1019E0006BD120F031F49F3F11F41EF45BC10EF473
:1019F000E095E7FB51C1E92F77D180F3BA17620771
:101A000073078407950718F071F49EF58FC10EF4E3
:101A1000E0950B2EBA2FA02D0B01B90190010C01FE
:101A2000CA01A0011124FF27591B99F0593F50F416
:101A3000503E68F11A16F040A22F232F342F44276E
:101A4000585FF3CF469537952795A795F040539566
:101A5000C9F77EF41F16BA0B620B730B840BBAF036
:101A60009150A1F0FF0FBB1F661F771F881FC2F7A1
:101A70000EC0BA0F621F731F841F48F487957795B5
:101A80006795B795F7959E3F08F0B3CF9395880F6C
:101A900008F09927EE0F979587950895D9D008F407
:101AA00081E008950CD00FC107D140F0FED030F096
:101AB00021F45F3F19F0F0C0511139C1F3C014D1C6
:101AC00098F39923C9F35523B1F3951B550BBB2705
:101AD000AA2762177307840738F09F5F5F4F220FB2
:101AE000331F441FAA1FA9F333D00E2E3AF0E0E8AB
:101AF00030D091505040E695001CCAF729D0FE2FF7
:101B000027D0660F771F881FBB1F26173707480788
:101B1000AB07B0E809F0BB0B802DBF01FF2793583E
:101B20005F4F2AF09E3F510568F0B6C000C15F3F8D
:101B3000ECF3983EDCF3869577956795B795F79526
:101B40009F5FC9F7880F911D9695879597F908951E
:101B5000E1E0660F771F881FBB1F621773078407BA
:101B6000BA0720F0621B730B840BBA0BEE1F88F7C9
:101B7000E095089504D06894B111D9C00895BCD0FF
:101B800088F09F5790F0B92F9927B751A0F0D1F066
:101B9000660F771F881F991F1AF0BA95C9F712C0F0
:101BA000B13081F0C3D0B1E00895C0C0672F782F65
:101BB0008827B85F39F0B93FCCF38695779567955C
:101BC000B395D9F73EF490958095709561957F4FC8
:101BD0008F4F9F4F0895E89409C097FB3EF490956E
:101BE0008095709561957F4F8F4F9F4F9923A9F0F6
:101BF000F92F96E9BB279395F69587957795679585
:101C0000B795F111F8CFFAF4BB0F11F460FF1BC0C8
:101C10006F5F7F4F8F4F9F4F16C0882311F096E95B
:101C200011C0772321F09EE8872F762F05C0662309
:101C300071F096E8862F70E060E02AF09A95660FC2
:101C4000771F881FDAF7880F9695879597F908957B
:101C5000990F0008550FAA0BE0E8FEEF16161706BD
:101C6000E807F907C0F012161306E407F50798F025
:101C7000621B730B840B950B39F40A2661F0232B3E
:101C8000242B252B21F408950A2609F4A140A695BA
:101C90008FEF811D811D089597F99F6780E870E09F
:101CA00060E008959FEF80EC089500240A941616D2
:101CB000170618060906089500240A94121613063A
:101CC000140605060895092E0394000C11F48823C8
:101CD00052F0BB0F40F4BF2B11F460FF04C06F5FE4
:101CE0007F4F8F4F9F4F089557FD9058440F551FBA
:101CF00059F05F3F71F04795880F97FB991F61F08E
:101D00009F3F79F087950895121613061406551F04
:101D1000F2CF4695F1DF08C0161617061806991F70
:101D2000F1CF86957105610508940895E894BB2765
:101D300066277727CB0197F908958ADF08F48FEF9C
:101D400008950BD0C0CFB1DF28F0B6DF18F095238F
:101D500009F0A2CFA7CF1124EACFC6DFA0F3959F49
:101D6000D1F3950F50E0551F629FF001729FBB2782
:101D7000F00DB11D639FAA27F00DB11DAA1F649F2E
:101D80006627B00DA11D661F829F2227B00DA11DE1
:101D9000621F739FB00DA11D621F839FA00D611D67
:101DA000221F749F3327A00D611D231F849F600D88
:101DB000211D822F762F6A2F11249F5750408AF0C1
:101DC000E1F088234AF0EE0FFF1FBB1F661F771F4D
:101DD000881F91505040A9F79E3F510570F05CCF8D
:101DE000A6CF5F3FECF3983EDCF386957795679539
:101DF000B795F795E7959F5FC1F7FE2B880F911D6B
:101E00009695879597F9089523DF880B990B089588
:101E1000EF920F931F93CF93DF93E80147FF02C028
:101E200034E101C034E0E42FFF27E7FDF095F7FF30
:101E300003C0F195E195F109E32E022F2E2FAE019B
:101E400040D0CE01DF91CF911F910F91EF90089577
:101E5000FC0188279927E89421912032E9F3293061
:101E600010F02E30C8F32B3239F02D3231F4689453
:101E700003C01FD0820F911D219120532A30C8F337
:101E80001EF4909581959F4F0895FB01DC0102C0DF
:101E900001900D9241505040D8F70895FB01DC01AC
:101EA0000D900020E9F7119701900D920020E1F7C5
:101EB00008957AE0979F902D879F802D910D112492
:101EC00008956F927F929F92AF92BF92CF92DF92CE
:101ED000EF92FF920F931F93CF93DF93CDB7DEB7AF
:101EE00029970FB6F894DEBF0FBECDBF6A01B22EA0
:101EF000102F0C3320F4FF24F394F00E02C04CE3B7
:101F0000F42E0F2D27E0AE014F5F5F4F57D179813F
:101F1000272F2970213031F0E1FC06C0E0FC06C01B
:101F200060E005C06DE203C06BE201C060E2AE2D6F
:101F3000A07173FF36C0662311F084E001C083E016
:101F40008B1510F4B81A01C0B12CA1110BC0F60109
:101F50008B2D90E2882319F091938150FBCFCB0C0D
:101F6000D11CB12C662331F0F601608396012F5FFE
:101F70003F4F6901C6010396E2FE05C02EE4F6015B
:101F8000208331E404C02EE6F601208331E631835C
:101F90002283FC012B2D30E22223F1F131932150D9
:101FA000FBCF72FF40C0662311F084E001C083E0E4
:101FB0008B1510F4B81A01C0B12CA1110BC0F60199
:101FC0008B2D90E2882319F091938150FBCFCB0C9D
:101FD000D11CB12C662331F0F601608396012F5F8E
:101FE0003F4F6901C6010396E2FE07C029E4F601EE
:101FF00020832EE4218326E406C029E6F60120830F
:102000002EE6218326E62283FC012B2D30E22223BB
:1020100019F031932150FBCFFC01EB0DF11D108223
:102020008EEF9FEFB7C0B1E0611101C0B0E04B2F60
:1020300050E01816190624F49C012F5F3F4F02C090
:1020400021E030E0240F351F112329F0412F50E00B
:102050004F5F5F4F02C040E050E0420F531F2B2DF7
:1020600030E04217530714F4B41A01C0B12C2E2DDE
:10207000287159F4F6012B2D30E2222319F0319307
:102080002150FBCFCB0CD11CB12CBB2331F0F6017E
:10209000608396012F5F3F4F6901A1110BC0F601CC
:1020A0002B2D30E3222319F031932150FBCFCB0CA1
:1020B000D11CB12CF80E0A81372F3071A32E74FF7A
:1020C00003C0013309F4FA941F142CF42F2D293086
:1020D00018F028E001C021E0682F392F97FF02C0D7
:1020E00060E030E0462F532F612C712C3EE2932E9E
:1020F000BC01621B71099B01DC01A41BB50BE1E073
:10210000F0E0EC0FFD1FAE0FBF1FE12EF12CF1949C
:10211000E194F1084F3FFFEF5F0731F4F601908241
:10212000B6016F5F7F4F6B01841795074CF0241742
:10213000350734F4BD01660D771DFB01118101C027
:1021400010E341505109FFEF6F1A7F0AB6016F5F2C
:102150007F4F4E155F0524F0F60110836B01DACF37
:102160004817590739F4063320F4053319F4A11040
:1021700001C011E3F6011083FB018B2D90E288234F
:1021800019F091938150FBCFFB01EB0DF11D1082F3
:1021900080E090E029960FB6F894DEBF0FBECDBF69
:1021A000DF91CF911F910F91FF90EF90DF90CF9033
:1021B000BF90AF909F907F906F900895283008F067
:1021C00027E03327DA01990F311D87FD91600096D2
:1021D0006105710539F432602E5F3D9330E32A9535
:1021E000E1F708959F3F30F080387105610509F0EF
:1021F0003C5F3C5F3D93913008F08068911DDF9318
:10220000CF931F930F93FF92EF92192F987F96957C
:10221000E92F96959695E90FFF27E851FD4F9927ED
:102220003327EE24FF24A701E701059008940794C3
:1022300028F4360FE71EF81E491F511D660F771F41
:10224000881F991F0694A1F70590079428F4E70EBC
:10225000F81E491F561FC11D770F881F991F661F43
:102260000694A1F70590079428F4F80E491F561F0D
:10227000C71FD11D880F991F661F771F0694A1F7EE
:102280000590079420F4490F561FC71FD81F990FB8
:10229000661F771F881F0694A9F784911095177001
:1022A00041F0D695C79557954795F794E7941A95B9
:1022B000C1F7EEE8F2E068941590159135916591BB
:1022C000959105907FE27395E118F10A430B560B47
:1022D000C90BD009C0F7E10CF11E431F561FC91FDF
:1022E000D01D7EF4703311F48A95E6CFE894015046
:1022F00030F0080F0AF40027021708F4202F239566
:10230000022F7A3328F079E37D932A95E9F710C0FC
:102310007D932A9589F60694979567953795179535
:102320001794E118F10A430B560BC90BD00998F02A
:1023300023957E9173957A3308F070E37C93201394
:10234000B8F77E9170617D9330F0839571E37D9352
:1023500070E32A95E1F71124EF90FF900F911F9100
:10236000CF91DF91992787FD90950895F894FFCF3D
:102370000C0B0A2A2A2A2A2A2A382C0000000000DC
:10238000000000000000000000000000000000004D
:10239000000000000000000000000000000000003D
:1023A000000000000000000000000000000000002D
:1023B00000000000000000000001000800400000D4
:1023C000010004050D4265654D6F6E56322E3520B5
:1023D0006C636400426565204D6F6E69746F722096
:1023E0005632004E4F204441544100524543454926
:1023F000564544003A2D2800200043726F776E3A0C
:1024000000416D6269656E743A0053757065723A89
:1024100000436C75737465723A004261747465723E
:10242000793A004300560000000000FF046606836E
:10243000049C048E04DE040D0A006E616E00696E59
:1024400066006F7666002E00000000002109660617
:102450000D0E131516191A1C232526292A2C323481
:00000001FF
