:100000000C94E3000C949C0F0C94C90F0C940B01FE
:100010000C940B010C940B010C940D010C940B012E
:100020000C940B010C940B010C940B010C94960E88
:100030000C940B010C940B010C940B010C940B0110
:100040000C94CA020C940B010C9425050C946805C1
:100050000C940B010C940B010C940B010C940B01F0
:100060000C940B010C940B0100000007000201002E
:100070000003040600000000000000000102040864
:100080001020408001020408102001020408102002
:10009000040404040404040402020202020203032E
:1000A00003030303000000002300260029000000D2
:1000B0000000250028002B0000000000240027007D
:1000C0002A00005EBCE2613FDD83C29C7E20A3FD6E
:1000D0001F419DC3217FFCA2401E5F01E3BD3E6026
:1000E00082DC237D9FC1421CFEA0E1BF5D0380DE58
:1000F0003C62BEE0025CDF81633D7C22C09E1D430A
:10010000A1FF4618FAA427799BC584DA3866E5BBB7
:100110005907DB856739BAE406581947A5FB7826E5
:10012000C49A653BD987045AB8E6A7F91B45C69817
:100130007A24F8A6441A99C7257B3A6486D85B05C9
:10014000E7B98CD2306EEDB3510F4E10F2AC2F7177
:1001500093CD114FADF3702ECC92D38D6F31B2ECA5
:100160000E50AFF1134DCE90722C6D33D18F0C52D7
:10017000B0EE326C8ED0530DEFB1F0AE4C1291CF89
:100180002D73CA947628ABF517490856B4EA693737
:10019000D58B5709EBB536688AD495CB2977F4AA65
:1001A0004816E9B7550B88D6346A2B7597C94A1497
:1001B000F6A8742AC896154BA9F7B6E80A54D78949
:1001C0006B35BF02240611241FBECFEFD8E0DEBF7F
:1001D000CDBF11E0A0E0B1E0E2E5F3E202C005909E
:1001E0000D92A03EB107D9F712E0A0EEB1E001C038
:1001F0001D92A83FB107E1F711E0C6ECD1E004C0C1
:100200002297FE010E94A311C23CD107C9F70E94A8
:10021000A2070C94F60F0C9400001F920F920FB6D9
:100220000F9211242F933F934F935F936F937F937C
:100230008F939F93AF93BF93EF93FF930E94960F7B
:10024000FF91EF91BF91AF919F918F917F916F91AE
:100250005F914F913F912F910F900FBE0F901F9084
:100260001895FC0101900020E9F7BF016150710968
:10027000681B790B0E94F80D0E94F30D6AE070E094
:1002800080E090E00C944303CF93DF9340E855E285
:1002900060E070E084E192E00E94A30561E08DE0FF
:1002A0000E94F50361E08DE00E942E0468E671E093
:1002B00084E192E00E94D5066EE771E084E192E06D
:1002C0000E94D5068AEE91E00E945A098AEE91E0DA
:1002D0000E94BF0790E09093E9018093E80164E9F0
:1002E00071E084E192E00E94B8066091E8017091AB
:1002F000E9014AE050E084E192E00E948A07C0E010
:10030000D0E08091E8019091E901C817D90794F4F1
:100310004C2F60EE71E08AEE91E00E94D1078823B5
:1003200039F04CE060EE71E08AEE91E00E94E40862
:100330002196E7CF85E00E94F80C81E00E94FB0C3B
:1003400080ED97E00E94A10D68EB7BE080E090E0FB
:100350000E94430360E08DE0DF91CF910C942E0466
:100360004F925F926F927F928F929F92AF92BF92C5
:10037000CF92DF92EF92FF920F931F93CF93DF9371
:10038000CDB7DEB7A2970FB6F894DEBF0FBECDBFD4
:100390008AEE91E00E943E0A68E171E08AEE91E007
:1003A0000E94CF0A2B013C0160E171E08AEE91E0EE
:1003B0000E94CF0A4B015C0168E071E08AEE91E097
:1003C0000E94CF0A6B017C0160E071E08AEE91E04F
:1003D0000E94CF0A6F8F78A389A39AA381E00E941D
:1003E000AF038C0120E030E048EC52E4C301B201DD
:1003F0000E94E4100E942510DC01CB014AE050E08D
:10040000BE016F5F7F4F0E94041060EB71E0CE0170
:1004100001960E94F90FCE0101960E94310120E061
:1004200030E048EC52E4C501B4010E94E4100E949F
:100430002510DC01CB014AE050E0BE016F5F7F4F29
:100440000E94041062EB71E0CE0101960E94F90F48
:10045000CE0101960E94310120E030E048EC52E4E8
:10046000C701B6010E94E4100E942510DC01CB01F7
:100470004AE050E0BE016F5F7F4F0E94041064EBC2
:1004800071E0CE0101960E94F90FCE0101960E9403
:10049000310120E030E048EC52E46F8D78A189A171
:1004A0009AA10E94E4100E942510DC01CB014AE0D1
:1004B00050E0BE016F5F7F4F0E94041066EB71E059
:1004C000CE0101960E94F90FCE0101960E943101E2
:1004D000B801882777FD8095982F0E94581028E64C
:1004E00038EE4FE95BE30E94E41025E236E041E399
:1004F00050E40E94E41020E030E048EC52E40E9416
:10050000E4100E942510DC01CB014AE050E0BE015E
:100510006F5F7F4F0E94041068EB71E0CE0101967F
:100520000E94F90FCE0101960E94310161E08DE039
:100530000E942E0464E670E080E090E00E94430395
:1005400060E08DE00E942E0480E69AEE0E94410F4A
:10055000A2960FB6F894DEBF0FBECDBFDF91CF914C
:100560001F910F91FF90EF90DF90CF90BF90AF90D1
:100570009F908F907F906F905F904F90089562E072
:100580008DEF91E00E940D0C6DEF71E08AEE91E02D
:100590000C94B0071F920F920FB60F9211242F9355
:1005A0003F938F939F93AF93BF9380910C02909151
:1005B0000D02A0910E02B0910F0230910B0223E0C8
:1005C000230F2D3720F40196A11DB11D05C026E88B
:1005D000230F0296A11DB11D20930B0280930C02E4
:1005E00090930D02A0930E02B0930F02809110021F
:1005F00090911102A0911202B09113020196A11DD7
:10060000B11D8093100290931102A0931202B09337
:100610001302BF91AF919F918F913F912F910F90B6
:100620000FBE0F901F9018952FB7F89460910C0291
:1006300070910D0280910E0290910F022FBF0895CC
:100640003FB7F8948091100290911102A09112028C
:10065000B091130226B5A89B05C02F3F19F0019653
:10066000A11DB11D3FBF6627782F892F9A2F620FDA
:10067000711D811D911D42E0660F771F881F991F14
:100680004A95D1F70895CF92DF92EF92FF92CF93E0
:10069000DF936B017C010E942003EB01C114D104A4
:1006A000E104F10479F00E9420036C1B7D0B683E8D
:1006B0007340A0F381E0C81AD108E108F108C851DD
:1006C000DC4FECCFDF91CF91FF90EF90DF90CF9098
:1006D00008950197009739F0880F991F880F991F87
:1006E00002970197F1F70895789484B5826084BDEC
:1006F00084B5816084BD85B5826085BD85B5816026
:1007000085BDEEE6F0E0808181608083E1E8F0E085
:100710001082808182608083808181608083E0E8B4
:10072000F0E0808181608083E1EBF0E08081846093
:100730008083E0EBF0E0808181608083EAE7F0E095
:1007400080818460808380818260808380818160F9
:1007500080838081806880831092C10008958E30EC
:1007600008F08E5087702091200190E4299F90011D
:100770001124822B80937C0080917A008064809386
:100780007A0080917A0086FDFCCF809178002091DC
:10079000790090E0922B0895833081F028F4813025
:1007A00099F08230A1F008958630A9F08730B9F031
:1007B0008430D1F4809180008F7D03C080918000CF
:1007C0008F7780938000089584B58F7702C084B5B9
:1007D0008F7D84BD08958091B0008F7703C0809194
:1007E000B0008F7D8093B0000895CF93DF9390E0A9
:1007F000FC01E458FF4F2491FC01E057FF4F849126
:10080000882349F190E0880F991FFC01E854FF4FBD
:10081000A591B49182559F4FFC01C591D4919FB78A
:10082000611108C0F8948C91209582238C93888163
:1008300082230AC0623051F4F8948C91322F3095A3
:1008400083238C938881822B888304C0F8948C91B5
:10085000822B8C939FBFDF91CF9108950F931F93AD
:10086000CF93DF931F92CDB7DEB7282F30E0F90189
:10087000E859FF4F8491F901E458FF4F1491F901B1
:10088000E057FF4F04910023C9F0882321F06983CA
:100890000E94CC036981E02FF0E0EE0FFF1FE255CC
:1008A000FF4FA591B4919FB7F8948C91611103C04B
:1008B0001095812301C0812B8C939FBF0F90DF91F6
:1008C000CF911F910F910895CF93DF93282F30E0A0
:1008D000F901E859FF4F8491F901E458FF4FD49191
:1008E000F901E057FF4FC491CC2391F081110E9490
:1008F000CC03EC2FF0E0EE0FFF1FEC55FF4FA5915E
:10090000B4912C912D2381E090E021F480E002C08D
:1009100080E090E0DF91CF910895FC01248535853A
:10092000F901E05CFF4F80819181F901EE5BFF4F9F
:1009300020813181821B930B8F7399270895FC01CD
:1009400084859585FC01E05CFF4F40815181FC016D
:10095000EE5BFF4F208131814217530741F0019038
:10096000F081E02DE80FF91F808190E008958FEF6E
:100970009FEF0895FC0184859585FC01E05CFF4FA5
:1009800040815181FC01EE5BFF4F20813181421794
:10099000530779F0A081B181A80FB91F8C912081F4
:1009A00031812F5F3F4F2F7333273183208390E0B6
:1009B00008958FEF9FEF0895FC0181A1882329F00E
:1009C000A489B5898C9186FFFBCF11A20895CF939E
:1009D000DF93FC0126853785D901A05CBF4F8D913F
:1009E0009C91119701968F739927E901CE5BDF4F98
:1009F0004881598184179507D9F30D90BC91A02D9A
:100A0000A20FB31F6C93A685B785A05CBF4F11964C
:100A10009C938E93A689B7892C9181E090E0078CF6
:100A200002C0880F991F0A94E2F7282B2C9381E0CB
:100A300081A30488F589E02D80818064808381E032
:100A400090E0DF91CF91089508951F920F920FB615
:100A50000F9211242F933F934F938F939F93EF9374
:100A6000FF938091C00082FD1CC04091C600809120
:100A7000BA029091BB0201968F7399272091BC0214
:100A80003091BD028217930771F0E091BA02F091A4
:100A9000BB02E658FD4F40839093BB028093BA029D
:100AA00002C08091C600FF91EF919F918F914F916D
:100AB0003F912F910F900FBE0F901F90189584E1DA
:100AC00092E00E948D04892B11F00C942405089566
:100AD0001F920F920FB60F9211242F933F938F9373
:100AE0009F93EF93FF93209176023091770280914C
:100AF0007802909179022817390731F48091C1006A
:100B00008F7D8093C10014C0E0917802F09179024A
:100B1000EA5CFD4F208180917802909179020196E4
:100B20008F73992790937902809378022093C6005F
:100B3000FF91EF919F918F913F912F910F900FBE59
:100B40000F901F901895CF92DF92EF92FF92CF9364
:100B5000DF93EC016A017B01411581EE58076105C5
:100B60007105F9F0EC89FD8981E090E008A002C0F0
:100B7000880F991F0A94E2F7808360E079E08DE3A3
:100B800090E0A70196010E947F112150310941098F
:100B900051095695479537952795211580E13807D6
:100BA00098F0EC89FD89108260E874E88EE190E0AD
:100BB000A70196010E947F11215031094109510975
:100BC0005695479537952795E889F9893083EA89BD
:100BD000FB89208319A2EE89FF89408181E090E0A2
:100BE0009C010C8C02C0220F331F0A94E2F7422BA7
:100BF0004083EE89FF8940819C010D8C02C0220F49
:100C0000331F0A94E2F7422B4083EE89FF8940812B
:100C10009C010E8C02C0220F331F0A94E2F7422B74
:100C20004083EE89FF8920810F8C02C0880F991FB5
:100C30000A94E2F7809582238083DF91CF91FF9021
:100C4000EF90DF90CF900895109217021092160245
:100C500088EE93E0A0E0B0E0809318029093190230
:100C6000A0931A02B0931B028EEB91E090931502B1
:100C7000809314028AE792E09093210280932002ED
:100C800086E392E0909323028093220285EC90E029
:100C9000909325028093240284EC90E090932702A5
:100CA0008093260280EC90E09093290280932802A2
:100CB00081EC90E090932B0280932A0282EC90E0EA
:100CC00090932D0280932C0286EC90E090932F025B
:100CD00080932E0284E08093300283E0809331027F
:100CE00087E08093320285E08093330281E0809335
:100CF00034020895CF92DF92EF92FF920F931F93E9
:100D0000CF93DF936C017A01EB01E60EF71E00E052
:100D100010E0CE15DF0561F06991D601ED91FC91EF
:100D20000190F081E02DC6010995080F191FF1CF40
:100D3000C801DF91CF911F910F91FF90EF90DF904D
:100D4000CF9008956115710581F0DB010D900020B1
:100D5000E9F7AD0141505109461B570BDC01ED91FC
:100D6000FC910280F381E02D099480E090E00895E9
:100D70000C94A206DC01ED91FC910190F081E02D34
:100D800009940F931F93CF93DF93EC016DE00E94C2
:100D9000BA068C016AE0CE010E94BA06800F911F4C
:100DA000DF91CF911F910F9108950F931F93CF93D0
:100DB000DF93EC010E94A2068C01CE010E94C106C5
:100DC000800F911FDF91CF911F910F9108958F9206
:100DD0009F92AF92BF92CF92DF92EF92FF920F93CA
:100DE0001F93CF93DF93CDB7DEB7A1970FB6F894DB
:100DF000DEBF0FBECDBF7C01C42EE52FCB01D22EAE
:100E000019A221E02D1510F02AE0D22E8E010F5DDF
:100E10001F4F8D2C912CA12CB12C6C2D7E2FA50158
:100E200094010E947F118C2DD29E801911240150B3
:100E300011098A3014F4805D01C0895CF801808357
:100E4000211531054105510521F0C22EE32FCA01BC
:100E5000E4CFB801C7010E94A206A1960FB6F8948C
:100E6000DEBF0FBECDBFDF91CF911F910F91FF90DD
:100E7000EF90DF90CF90BF90AF909F908F900895AC
:100E8000CF92DF92EF92FF920F931F93CF93DF9356
:100E9000EC016A017B012115310579F4E881F981C2
:100EA0000190F081E02D642FDF91CF911F910F9180
:100EB000FF90EF90DF90CF9009942A303105E9F44C
:100EC00077FF1AC06DE20E94BA068C0144275527AD
:100ED000BA014C195D096E097F092AE0CE010E9412
:100EE000E706800F911FDF91CF911F910F91FF9027
:100EF000EF90DF90CF9008952AE0B701A601CE01D0
:100F0000DF91CF911F910F91FF90EF90DF90CF90E5
:100F10000C94E7060F931F93CF93DF93EC019A0194
:100F2000AB01662757FD6095762F0E9440078C0124
:100F3000CE010E94C106800F911FDF91CF911F91BA
:100F40000F9108950E9474030E944401CFE5D5E0FB
:100F50000E94B0012097E1F30E945F05F9CF089548
:100F6000FC018FEA97E0928B818B768365831482F4
:100F7000108289E0818381E0828383830895FC016C
:100F800084810895CF93DF93EB0167E0CE010E9447
:100F9000CD0C91E02F81821390E0892FDF91CF91CA
:100FA0000895EF92FF920F931F93CF93DF93EC017D
:100FB0008B01E42E8D819E810E94FB0BF12C41E080
:100FC000B8018D819E810E94300C882359F0FE105B
:100FD00006C0B801CE010E94C207811104C0F3947B
:100FE000EF1468F780E0DF91CF911F910F91FF9090
:100FF000EF900895CF92DF92EF92FF920F931F939D
:10100000CF93DF9300D0CDB7DEB76C01F42EE52E81
:10101000FC018581968169837A830E94D30A698164
:101020007A81882311F1F601858196810E94CF0B88
:1010300040E06EEBF601858196810E94700B0F2DCA
:101040001E2D89E0F82EF601858196810E94B20B53
:10105000F80181938F01FA94B1F7F60185819681A9
:101060000E94D30A91E0813009F090E0892F0F901F
:101070000F90DF91CF911F910F91FF90EF90DF9034
:10108000CF900895CF93DF93EA010E94FA07882357
:1010900051F068E0CE010E94CD0C91E028858213CA
:1010A00090E0892F01C080E0DF91CF910895EF9209
:1010B000FF920F931F93CF93DF93EC018B017A0183
:1010C0008D819E810E94D30AB8018D819E810E94EC
:1010D000CF0B40E06EE48D819E810E94700B40E05A
:1010E000F70162818D819E810E94700B40E0F701C3
:1010F00063818D819E810E94700BF8018081803117
:1011000039F040E0F70164818D819E810E94700B6F
:101110008D819E810E94D30AB8018D819E810E949B
:10112000CF0B488168E48D819E810E94700B64E141
:1011300070E080E090E00E9443038881882331F0D2
:101140006AE070E080E090E00E9443038D819E8120
:10115000DF91CF911F910F91FF90EF900C94D30AE4
:10116000EF92FF921F93CF93DF9300D0CDB7DEB7FE
:101170007C01FC018581968169837A830E94D30A70
:1011800069817A81F701858196810E94CF0B40E0C9
:1011900064EBF701858196810E94700BF7018581D0
:1011A00096810E94450B182FF701858196810E9438
:1011B000D30A81E0111180E00F900F90DF91CF9161
:1011C0001F91FF90EF900895EF92FF920F931F935E
:1011D000CF93DF93CDB7DEB72A970FB6F894DEBF73
:1011E0000FBECDBF7C018B01242FAE014F5F5F4F3F
:1011F0002A870E9442082A858823D1F0F80180813D
:101200008031C1F02B3041F02C3021F02A3031F404
:101210008FE305C08FE703C08FE501C08FE18D83A9
:10122000AE014F5F5F4FB801C7010E94570802C06F
:1012300080E001C081E02A960FB6F894DEBF0FBEB1
:10124000CDBFDF91CF911F910F91FF90EF90089547
:10125000CF93DF93CDB7DEB729970FB6F894DEBFF3
:101260000FBECDBFFB0120812031D1F0AE014F5F19
:101270005F4F0E944208882379F08D818F3351F0AF
:1012800020F48F3149F489E00CC08F3539F08F3765
:1012900039F002C08AE005C080E003C08BE001C0E5
:1012A0008CE029960FB6F894DEBF0FBECDBFDF915C
:1012B000CF910895FF920F931F93CF93DF93CDB7F4
:1012C000DEB761970FB6F894DEBF0FBECDBF8C01BD
:1012D000FC01858196810E94FB0BF801148241E09C
:1012E000BE01665F7F4FF801858196810E94300CB8
:1012F0008823D1F1BE01665F7F4FC8010E94C207FB
:10130000882369F3F8018081811108C0BE01665FFE
:101310007F4FC8010E94B008811122C0AE014F5F0B
:101320005F4FBE01665F7F4FC8010E94FA07F80158
:10133000F180BE01665F7F4FC8010E9428098F15AA
:1013400018F4F801818106C0BE01665F7F4FC801B5
:101350000E942809F801818384818F5F8483BFCF35
:1013600081E0F8018083DACF61960FB6F894DEBF92
:101370000FBECDBFDF91CF911F910F91FF900895C8
:10138000CF93DF93CDB7DEB729970FB6F894DEBFC2
:101390000FBECDBFAE014F5F5F4F0E94FA0781E0E5
:1013A0009981911101C080E029960FB6F894DEBFB3
:1013B0000FBECDBFDF91CF9108958F929F92AF92D4
:1013C000BF92CF92DF92EF92FF920F931F93CF9332
:1013D000DF93EC018A016950633048F4E62FF0E0B6
:1013E000EE0FFF1FE653FE4F8080918004C09EEEFB
:1013F000892E92E0992E0115110501F18B81882328
:10140000E9F0888181111AC00E9414036B017C01EC
:10141000AA2497FCA094BA2CB801CE010E94C0095E
:1014200081111FC00E941403681979098A099B0958
:101430006C157D058E059F05A0F4EECFB4018827BD
:1014400077FD8095982FDF91CF911F910F91FF909D
:10145000EF90DF90CF90BF90AF909F908F900C94C3
:101460004303DF91CF911F910F91FF90EF90DF9099
:10147000CF90BF90AF909F908F900895CF93DF93C0
:10148000EC018D819E810E94D30A8D819E810E94F4
:10149000F70B488164E48D819E810E94700B8A81E4
:1014A000882341F040E050E06981CE01DF91CF9187
:1014B0000C94DD09DF91CF910895FA01208148E075
:1014C000249F90011124818190E0982F8827990F03
:1014D000990F990F282B392BDB018C918031C1F4A6
:1014E000678170E08681AB01481B5109CA0196955E
:1014F000982F8827979587950E946B1160517109E5
:10150000207F53E0220F331F5A95E1F7260F371F34
:10151000C9010895EF92FF920F931F93CF93DF932A
:10152000CDB7DEB729970FB6F894DEBF0FBECDBF9B
:101530008C017B01AE014F5F5F4F0E944208882300
:1015400041F0AE014F5F5F4FB701C8010E945D0AD5
:1015500002C080E894EE29960FB6F894DEBF0FBE65
:10156000CDBFDF91CF911F910F91FF90EF90089524
:10157000813824EE920774F0BC01882777FD8095AE
:10158000982F0E94581020E030E040E05CE30E9479
:10159000E410089560E070E08EEF92EC08950E94F0
:1015A0008A0A0C94B80AFF920F931F93CF93DF938C
:1015B000FC010081C181D281F8948981F02EF094E0
:1015C0008F21898378941DE7115029F182E090E002
:1015D0000E94690388818023B9F3F8948A818F215E
:1015E0008A838981802B8983789480EE91E00E94A0
:1015F0006903F89489818F21898386E490E00E94B1
:1016000069038881802311E009F010E078948AE969
:1016100091E00E946903812FDF91CF911F910F917B
:10162000FF9008951F93CF93DF93FC011081C18138
:10163000D281912F909560FF12C0F8948A818923FE
:101640008A838981812B89838AE090E00E946903E3
:101650008A81812B8A83789487E390E011C0F89483
:101660008A8189238A838981812B898381E490E01F
:101670000E9469038A81812B8A83789485E090E0B7
:10168000DF91CF911F910C9469030F931F93CF9318
:10169000DF93FC011081C181D281F8948981812B73
:1016A00089838A81012F009580238A8383E090E0DB
:1016B0000E9469038981802389838AE090E00E94E7
:1016C0006903C881789485E390E00E9469031C2334
:1016D00081E009F480E0DF91CF911F910F9108958F
:1016E000CF92DF92EF92FF920F931F93CF93DF93EE
:1016F0001F92CDB7DEB76C01E62E08E010E0FF24A4
:10170000F39461E09F2D9E2109F460E0C6014983B6
:101710000E94120BFF0C015011094981011511059E
:1017200081F7411115C0F894D6011196ED91FC9105
:10173000129791818C918095892381831196ED91E7
:10174000FC91129792818C91809589238283789461
:101750000F90DF91CF911F910F91FF90EF90DF904D
:10176000CF900895EF92FF920F931F93CF93DF9343
:101770008C01C8E0D0E0F12CEE24E394C8010E9473
:10178000450B8111FE28EE0C21972097B9F78F2D7C
:10179000DF91CF911F910F91FF90EF900895CF921D
:1017A000DF92FF920F931F93CF93DF931F92CDB7DA
:1017B000DEB78C01F62E40E065E579830E94700B60
:1017C000CF2C7981D72E88E0F82EF60161916F0138
:1017D00040E0C8010E94700BFA94B9F70F90DF91B6
:1017E000CF911F910F91FF90DF90CF90089540E02F
:1017F0006CEC0C94700BFC0113861586148627E0A4
:1018000030E0DF01A20FB31F13961C9221153105A2
:1018100019F021503109F5CF08951F93CF93DF932D
:10182000EC01162F60E0812F0E94F503612F70E01C
:10183000FB01E458FF4FE491E883FB01E057FF4FC1
:10184000E491F0E0EE0FFF1FEC55FF4F859194916E
:101850009A838983CE01DF91CF911F910C94FB0B6A
:10186000AF92BF92CF92DF92EF92FF920F931F93AE
:10187000CF93DF931F92CDB7DEB75C01D62EE72E54
:10188000FC018585811164C0C50149830E94D30A8A
:101890004981811105C0F50113861586148671C032
:1018A000442319F040E060EF02C040E06CEEC50157
:1018B0000E94700B01E0F12CC12C11E0C5010E94C7
:1018C000450B682FC50169830E94450B6981613012
:1018D00019F48130B9F433C02F2D30E068131BC0E8
:1018E000F5018385181730F4E20FF31F83818023FD
:1018F00049F402C0181731F060E0193058F4F501CE
:10190000148708C0F501EF0DF11D8381802B8383BF
:1019100061E009C0C12EF501E20FF31F8381902F12
:10192000909589238383C5010E94120B1F5F000FCE
:1019300011F4F39401E0F7E0FF1508F0BFCF113484
:1019400038F0F501C386C11009C081E0858706C063
:10195000F50113861586148680E013C0F501838196
:101960008823B1F3ED2DFE2D80E090E0D501A80F86
:10197000B91F13962C912193019688309105B1F7E8
:1019800081E00F90DF91CF911F910F91FF90EF9029
:10199000DF90CF90BF90AF900895DC0180E0615060
:1019A00038F0ED91E827F0E0EE53FF4F8491F7CF48
:1019B00008958627082E8295807F8025092E982FEE
:1019C00082958F700826869598278927880F880F1B
:1019D000880F80250895E0EDF1E090E021918217D5
:1019E00029F09F5F9031D1F780E00895892F089505
:1019F0008093210108958093EA0208951F93CF9365
:101A0000DF939091E902992329F08091E6028F5F9C
:101A10008093E6022091E8028091E702921759F044
:101A2000803510F42BE001C02DE1820F8093E70296
:101A30009093E80203C08C5E8093E7022091E70256
:101A4000203A08F47AC08091E1029091E2029695E2
:101A500087959093E2028093E1023091E60235305F
:101A600028F098609093E2028093E102205A20933C
:101A7000E7021092E6028091E502882309F44DC046
:101A80008091E0028F5F8093E0028C3008F455C0B3
:101A9000C091E102D091E2028C2F8F730E94EB0C77
:101AA000182FCE0126E0969587952A95E1F70E949A
:101AB000EB0C90E1199F90011124822B9091C002B0
:101AC00091110EC08093C1029CEF980F9B3140F0A2
:101AD0001092E5028091BF028F5F8093BF022DC0FC
:101AE000E091C00291E09E0F9093C002F0E0EE53AF
:101AF000FD4F80839091C0028091C102981750F0F1
:101B00001092E5028091BE028F5F8093BE0281E059
:101B10008093E4021092E00210C08091E102909163
:101B2000E20288339B4049F481E08093E502109201
:101B3000E0021092C0021092E402DF91CF911F9157
:101B400008959C0140E050E060E874E88EE190E088
:101B50000E947F111092800089E080938100309371
:101B6000890020938800EFE6F0E080818260808326
:101B700061E0809121010E94F50360E080912201E3
:101B80000E94F50361E0809123010E94F5036091BA
:101B9000EA02809123010C942E04CF931092F0025C
:101BA0001092EF021092EE021092E3026091EA02AC
:101BB000C1E06C27809123010E942E04C093ED02A6
:101BC000CF9108956091EA02809123010E942E0432
:101BD00060E0809121010E942E041092ED0281E0CC
:101BE0008093E30208958091ED028111FCCF089566
:101BF000CF92DF92EF92FF920F931F93CF93DF93D9
:101C0000F82EE92ED62E8BE1861708F485C00E94A7
:101C1000F30DC3E0CD0D6C2F8FEF9FEF0E94D90C19
:101C2000AC2FB0E0F4E0B595A795FA95E1F7A05395
:101C3000BE4F2C9120932C01CF70EC2FF0E0E0539D
:101C4000FE4F208120932D010CE211E0CF2CCF2DEF
:101C5000DE2D0E5F1F4F2C2F2C192D15D0F47E0179
:101C600068810E94D90CA991B0E0E4E0B595A795F0
:101C7000EA95E1F7A053BE4F2C91D8012C93D701E0
:101C8000EC91EF70F0E0E053FE4F2081F8012183EA
:101C9000E0CF61E06D0D660F80959095E62FF0E046
:101CA000E45DFE4FDC0144E0B695A7954A95E1F767
:101CB000AF70BB27A053BE4F2C912083E1E0E60F0D
:101CC000F0E0E45DFE4FDC01AF70BB27A053BE4FD8
:101CD0002C912083E2E0E60FF0E0E45DFE4FDC01B2
:101CE000AB2FBB27A295AF70A053BE4F2C91208382
:101CF000A3E0A60FB0E0A45DBE4FE92FFF27EF7071
:101D0000FF27E053FE4F80818C93645F6093F10264
:101D10000E94CD0D81E001C080E0DF91CF911F9145
:101D20000F91FF90EF90DF90CF9008951F920F9248
:101D30000FB60F9211242F933F934F935F936F939E
:101D40007F938F939F93AF93BF93EF93FF93809174
:101D500022010E9464048093E9028091ED028823AD
:101D6000C9F08091EE0291E0980F9093EE028111FC
:101D700011C0E091F0028091F102E817C0F00E94DA
:101D8000E20D8091EB029091EC0201969093EC02AF
:101D90008093EB028091EE02883010F01092EE02F8
:101DA0008091E302882321F10E94FE0C21C0F0E023
:101DB000EC5DFE4F60812091EF0281E0820F809305
:101DC000EF0281E090E001C0880F2A95EAF76823CE
:101DD000809121010E942E048091EF028630D0F282
:101DE0001092EF028091F0028F5F8093F002D2CFC9
:101DF000FF91EF91BF91AF919F918F917F916F91E3
:101E00005F914F913F912F910F900FBE0F901F90B8
:101E1000189583FF02C098E2892787FD06C0806479
:101E2000909160009093F20202C08091F20294B708
:101E3000977F94BFF89490916000986190936000B0
:101E40008093600078940895EAE7F0E090818081C3
:101E50008F77808383B7817F846083BFF89483B753
:101E6000816083BF85B7806685BF85B78F798064C1
:101E700085BF7894889583B78E7F83BF90937A00CF
:101E80000895DF92EF92FF920F931F93CF93DF930A
:101E90008C01EC0128E0E22EF12CC031D10538F1A3
:101EA0009E01D12C2032310538F0D39489E0D81628
:101EB00019F036952795F6CF1092F3028D2D0E94DA
:101EC000090F0E94240F8FEF0E94090FC70102C063
:101ED000880F991FDA94E2F7C81BD90B2091F302FF
:101EE000222319F0C81BD90BD8CF80E001C081E0B4
:101EF00040910C0250910D0260910E0270910F0200
:101F00000C1B1D0B400F511F611D711D40930C02D6
:101F100050930D0260930E0270930F02DF91CF91E8
:101F20001F910F91FF90EF90DF9008958091F30241
:101F30008F5F8093F30208951F920F920FB60F9256
:101F400011242F933F934F935F936F937F938F93BE
:101F50009F93AF93BF93EF93FF938091F40290917F
:101F6000F502892B29F0E091F402F091F502099530
:101F7000FF91EF91BF91AF919F918F917F916F9161
:101F80005F914F913F912F910F900FBE0F901F9037
:101F900018951F920F920FB60F9211242F933F9313
:101FA0004F935F936F937F938F939F93AF93BF9361
:101FB000EF93FF938091F6029091F702892B29F01D
:101FC000E091F602F091F7020995FF91EF91BF9130
:101FD000AF919F918F917F916F915F914F913F91C1
:101FE0002F910F900FBE0F901F901895F8940C949E
:101FF000A711FB01DC010D900020E9F7119701907A
:102000000D920020E1F70895FB019F01E894423012
:10201000C4F04532B4F44A3029F497FB1EF490958D
:1020200081959F4F642F77270E945711805D8A33D7
:102030000CF0895D8193CB010097A1F716F45DE266
:1020400051931082C9010C94471104D06894B111C6
:10205000B5C0089598D088F09F5790F0B92F992770
:10206000B751A0F0D1F0660F771F881F991F1AF0A3
:10207000BA95C9F712C0B13081F09FD0B1E0089590
:102080009CC0672F782F8827B85F39F0B93FCCF311
:10209000869577956795B395D9F73EF49095809599
:1020A000709561957F4F8F4F9F4F0895E89409C0B9
:1020B00097FB3EF490958095709561957F4F8F4F7B
:1020C0009F4F9923A9F0F92F96E9BB279395F69591
:1020D000879577956795B795F111F8CFFAF4BB0F0F
:1020E00011F460FF1BC06F5F7F4F8F4F9F4F16C073
:1020F000882311F096E911C0772321F09EE8872FFD
:10210000762F05C0662371F096E8862F70E060E0B8
:102110002AF09A95660F771F881FDAF7880F969531
:10212000879597F9089597F99F6780E870E060E0D8
:1021300008959FEF80EC089500240A941616170660
:1021400018060906089500240A94121613061406A8
:1021500005060895092E0394000C11F4882352F00B
:10216000BB0F40F4BF2B11F460FF04C06F5F7F4FC3
:102170008F4F9F4F089557FD9058440F551F59F0AA
:102180005F3F71F04795880F97FB991F61F09F3F64
:1021900079F087950895121613061406551FF2CF8D
:1021A0004695F1DF08C0161617061806991FF1CFDD
:1021B00086957105610508940895E894BB27662704
:1021C0007727CB0197F908950BD0C4CFB5DF28F05E
:1021D000BADF18F0952309F0A6CFABCF1124EECFCC
:1021E000CADFA0F3959FD1F3950F50E0551F629F72
:1021F000F001729FBB27F00DB11D639FAA27F00D60
:10220000B11DAA1F649F6627B00DA11D661F829F86
:102210002227B00DA11D621F739FB00DA11D621F6B
:10222000839FA00D611D221F749F3327A00D611D88
:10223000231F849F600D211D822F762F6A2F11246A
:102240009F5750408AF0E1F088234AF0EE0FFF1FBD
:10225000BB1F661F771F881F91505040A9F79E3FF4
:10226000510570F060CFAACF5F3FECF3983EDCF3EE
:10227000869577956795B795F795E7959F5FC1F731
:10228000FE2B880F911D9695879597F90895DC018F
:10229000FC01672F71917723E1F7329704C07C919D
:1022A0006D9370836291AE17BF07C8F30895AA1BA0
:1022B000BB1B51E107C0AA1FBB1FA617B70710F031
:1022C000A61BB70B881F991F5A95A9F78095909563
:1022D000BC01CD01089597FB072E16F4009407D09A
:1022E00077FD09D00E94571107FC05D03EF4909568
:1022F00081959F4F0895709561957F4F0895A1E254
:102300001A2EAA1BBB1BFD010DC0AA1FBB1FEE1F6F
:10231000FF1FA217B307E407F50720F0A21BB30BBA
:10232000E40BF50B661F771F881F991F1A9469F736
:1023300060957095809590959B01AC01BD01CF0192
:102340000895EE0FFF1F0590F491E02D0994F89485
:02235000FFCFBD
:10235200284E947A03000087286FABE00300001731
:1023620028F588E0030000DF2828CFE0030000E919
:10237200010C0B0A2A2A2A2A2A2A382C00000000D9
:10238200000000000000000000000000000000004B
:10239200000000000000000000000000000000003B
:1023A200000000000000000000000000000000002B
:1023B2000000000000000000426565204D6F6E695C
:1023C200746F72205632203331354D687A006F7047
:1023D200656E656E657267796D6F6E69746F722E68
:1023E2006F72670054656D706572617475726520F5
:1023F20073656E736F727320666F756E643A200038
:102402004100420043004400450000000000E70490
:102412007A068D04BA049F04DC045E00BC007701D6
:102422000D0E131516191A1C232526292A2C3234AF
:00000001FF
