:10000000E2C0000007C1000005C1000003C10000FC
:1000100001C10000FFC00000FEC00000FBC00000E6
:10002000F9C00000F7C00000F5C000000C943B10C0
:10003000F1C00000EFC00000EDC00000EBC0000008
:100040003EC60000E7C0000081C40000B1C400004B
:10005000E1C00000DFC00000DDC00000DBC0000028
:10006000D9C00000D7C00000000000080002010055
:100070000003040700000000000000000102040863
:100080001020408001020408102001020408102002
:10009000040404040404040402020202020203032E
:1000A00003030303000000002300260029000000D2
:1000B0000000250028002B0000000000240027007D
:1000C0002A00005EBCE2613FDD83C29C7E20A3FD6E
:1000D0001F419DC3217FFCA2401E5F01E3BD3E6026
:1000E00082DC237D9FC1421CFEA0E1BF5D0380DE58
:1000F0003C62BEE0025CDF81633D7C22C09E1D430A
:10010000A1FF4618FAA427799BC584DA3866E5BBB7
:100110005907DB856739BAE406581947A5FB7826E5
:10012000C49A653BD987045AB8E6A7F91B45C69817
:100130007A24F8A6441A99C7257B3A6486D85B05C9
:10014000E7B98CD2306EEDB3510F4E10F2AC2F7177
:1001500093CD114FADF3702ECC92D38D6F31B2ECA5
:100160000E50AFF1134DCE90722C6D33D18F0C52D7
:10017000B0EE326C8ED0530DEFB1F0AE4C1291CF89
:100180002D73CA947628ABF517490856B4EA693737
:10019000D58B5709EBB536688AD495CB2977F4AA65
:1001A0004816E9B7550B88D6346A2B7597C94A1497
:1001B000F6A8742AC896154BA9F7B6E80A54D78949
:1001C0006B353203060511241FBECFEFD8E0DEBF2A
:1001D000CDBF12E0A0E0B1E0E0E2F6E202C005909F
:1001E0000D92AA30B107D9F723E0AAE0B2E001C02E
:1001F0001D92A532B207E1F711E0C6ECD1E004C0D0
:100200002297FE010E94DD10C23CD107C9F74DD5EF
:100210000C940E13F5CE1F920F920FB60F9211246D
:100220002F933F934F935F936F937F938F939F93FE
:10023000AF93BF93EF93FF939FD7FF91EF91BF9140
:10024000AF919F918F917F916F915F914F913F916E
:100250002F910F900FBE0F901F901895FC010190E9
:100260000020E9F7BF0161507109681B790B0E94FA
:10027000A10F0E949C0F6AE070E080E090E098C5BA
:10028000CF93DF9326E040E855E260E070E089E438
:1002900092E0FAD261E08DE04ED661E08DE084D646
:1002A0006CE771E089E492E03DD46CE971E089E4A7
:1002B00092E038D488E292E00E944C0C88E292E00E
:1002C0000E94C10A90E0909327028093260262EB7D
:1002D00071E089E492E01BD46091260270912702BC
:1002E0004AE050E089E492E0C9D4C0E0D0E08091D7
:1002F000260290912702C817D90794F44C2F6EE17B
:1003000072E088E292E00E94D20A882339F04CE041
:100310006EE172E088E292E00E94D90B2196E7CF6D
:1003200085E00E94120E81E00E94150E80ED97E09C
:100330000E94B90E68EB7BE080E090E039D560E088
:100340008DE0DF91CF9130C6CF93DF93CDB7DEB78D
:100350006E970FB6F894DEBF0FBECDBF88E292E075
:100360000E94100D6EE171E088E292E00E94C50DDE
:1003700020E030E048EC52E40E946D120E94AE1181
:1003800070931D0260931C0268EC70E080E090E0C6
:100390000FD566E171E088E292E00E94C50D20E091
:1003A00030E048EC52E40E946D120E94AE1170934E
:1003B0001B0260931A0268EC70E080E090E0F8D4D1
:1003C0006EE071E088E292E00E94C50D20E030E02E
:1003D00048EC52E40E946D120E94AE117093190213
:1003E0006093180268EC70E080E090E0E1D466E091
:1003F00071E088E292E00E94C50D20E030E048EC18
:1004000052E40E946D120E94AE1170931702609325
:10041000160268EC70E080E090E0CAD481E045D537
:10042000BC01882777FD8095982F0E94E11128E66E
:1004300038EE4FE95BE30E946D1225E236E041E3BE
:1004400050E40E946D1220E030E048EC52E40E943B
:100450006D120E94AE1170931502609314022091E8
:100460001C0230911D02309313022093120240911E
:100470001A0250911B0250931102409310024091B6
:1004800018025091190250930F0240930E024091AE
:1004900016025091170250930D0240930C02709374
:1004A0000B0260930A024AE0BE016F5F7F4FC901F1
:1004B0000E94DB126EEC71E0CE0101960E94D01218
:1004C000CE010196CBDE64E670E080E090E070D46F
:1004D00084EF91E0FFD54AE0BE016F5F7F4F8091CE
:1004E0001002909111020E94DB1260ED71E0CE01CA
:1004F00001960E94D012CE010196B0DE64E670E053
:1005000080E090E055D484EF91E0E4D54AE0BE016C
:100510006F5F7F4F80910E0290910F020E94DB125D
:1005200062ED71E0CE0101960E94D012CE010196DB
:1005300095DE64E670E080E090E03AD484EF91E0EC
:10054000C9D54AE0BE016F5F7F4F80910C02909148
:100550000D020E94DB1264ED71E0CE0101960E9453
:10056000D012CE0101967ADE64E670E080E090E081
:100570001FD484EF91E0AED54AE0BE016F5F7F4F9C
:1005800080910A0290910B020E94DB1266ED71E0ED
:10059000CE0101960E94D012CE0101965FDE64E684
:1005A00070E080E090E004D484EF91E093D5609116
:1005B0001C0270911D024AE050E089E492E057D39A
:1005C0006CEC71E089E492E0A2D260911A02709121
:1005D0001B024AE050E089E492E049D36CEC71E000
:1005E00089E492E094D260911802709119024AE075
:1005F00050E089E492E03BD36CEC71E089E492E056
:1006000086D260911602709117024AE050E089E4A8
:1006100092E02DD36CEC71E089E492E078D26091A5
:100620001402709115024AE050E089E492E026D36A
:1006300068EC70E080E090E0BBD361E08DE0B4D482
:1006400088EC90E047D560E08DE0AED480E69AEE8D
:1006500041D56E960FB6F894DEBF0FBECDBFDF91C9
:10066000CF91089562E08BE392E0B6D66BE372E03F
:1006700088E292E077D780911C0290911D029093BE
:1006800013028093120280911A0290911B029093A0
:100690001102809310028091180290911902909398
:1006A0000F0280930E028091160290911702909390
:1006B0000D0280930C028091140290911502909388
:1006C0000B0280930A020895FC01818D228D90E037
:1006D000805C9F4F821B91098F7399270895FC01BD
:1006E000918D828D981731F0828DE80FF11D858DE7
:1006F00090E008958FEF9FEF0895FC01918D828D1A
:10070000981761F0828DDF01A80FB11D5D968C9165
:10071000928D9F5F9F73928F90E008958FEF9FEF70
:1007200008958DEF94E0892B41F080E090E0892BD3
:1007300021F063D181110C9400000895FC01848D97
:10074000DF01A80FB11DA35ABF4F2C91848D90E0FB
:1007500001968F739927848FA689B7892C93A089D6
:10076000B1898C9180648C93938D848D981306C08D
:100770000288F389E02D80818F7D80830895CF9357
:10078000DF93EC01888D8823C1F0EA89FB898081A1
:1007900085FD05C0A889B9898C9186FD0EC00FB66C
:1007A00007FCF5CF808185FFF2CFA889B9898C91AC
:1007B00085FFEDCFCE01C2DFE8CFDF91CF91089565
:1007C000CF92DF92FF920F931F93CF93DF931F92ED
:1007D000CDB7DEB76C0181E0D60158968C9358975F
:1007E0005B969C915B975C968C915C97981307C085
:1007F0005096ED91FC915197808185FD2DC0F601B9
:10080000038D10E00F5F1F4F0F731127F02EF601BD
:10081000848DF81210C00FB607FCF9CFD6015096A0
:10082000ED91FC915197808185FFF1CFC6016983DD
:1008300085DF6981ECCF838DE80FF11DE35AFF4F0F
:100840006083D6015B960C935B975296ED91FC9179
:100850005397808180620CC0D6015696ED91FC9131
:10086000579760835096ED91FC91519780818064F9
:10087000808381E090E00F90DF91CF911F910F91E5
:10088000FF90DF90CF900895BF92CF92DF92EF92CA
:10089000FF92CF93DF93EC016A017B01B22EE889CE
:1008A000F98982E08083411581EE58076105710561
:1008B000A1F060E079E08DE390E0A70196010E944D
:1008C000B91021503109410951095695479537957D
:1008D0002795211580E1380798F0E889F989108279
:1008E00060E874E88EE190E0A70196010E94B910DB
:1008F000215031094109510956954795379527955A
:10090000EC85FD853083EE85FF852083188EEC898C
:10091000FD89B082EA89FB89808180618083EA89D0
:10092000FB89808188608083EA89FB898081806877
:100930008083EA89FB8980818F7D8083DF91CF91DD
:10094000FF90EF90DF90CF90BF9008951F920F928D
:100950000FB60F9211242F938F939F93EF93FF93D2
:10096000E0915902F0915A028081E0915F02F0918A
:10097000600282FD12C09081809162028F5F8F734E
:1009800020916302821751F0E0916202F0E0E75B90
:10099000FD4F958F8093620201C08081FF91EF919E
:1009A0009F918F912F910F900FBE0F901F901895D0
:1009B0001F920F920FB60F9211242F933F934F93D4
:1009C0005F936F937F938F939F93AF93BF93EF93B7
:1009D000FF9389E492E0B2DEFF91EF91BF91AF9176
:1009E0009F918F917F916F915F914F913F912F9147
:1009F0000F900FBE0F901F90189589E492E064DE6F
:100A000021E0892B09F420E0822F089510924C02F6
:100A100010924B0288EE93E0A0E0B0E080934D028C
:100A200090934E02A0934F02B09350028CED91E050
:100A300090934A028093490285EC90E0909356028D
:100A40008093550284EC90E0909358028093570273
:100A500080EC90E090935A028093590281EC90E0F0
:100A600090935C0280935B0282EC90E090935E0234
:100A700080935D0286EC90E09093600280935F0229
:100A80001092620210926302109264021092650248
:100A90000895CF92DF92EF92FF920F931F93CF931F
:100AA000DF937C016A01EB0100E010E00C151D05ED
:100AB00071F06991D701ED91FC910190F081E02DE9
:100AC000C7010995892B19F00F5F1F4FEFCFC801A0
:100AD000DF91CF911F910F91FF90EF90DF90CF901A
:100AE00008956115710581F0DB010D900020E9F793
:100AF000AD0141505109461B570BDC01ED91FC91B2
:100B00000280F381E02D099480E090E00895E9CF20
:100B1000DC01ED91FC910190F081E02D099468EEEB
:100B200071E0DFCF0F931F93CF93DF93EC01D9DFF9
:100B30008C01CE01F4DF800F911FDF91CF911F91C7
:100B40000F9108958F929F92AF92BF92DF92EF9292
:100B5000FF920F931F93CF93DF93CDB7DEB7A1978B
:100B60000FB6F894DEBF0FBECDBF7C01F42FD52E9B
:100B7000CB0119A2223008F42AE08E010F5D1F4F2D
:100B8000822E912CA12CB12C6F2F7D2DA5019401CB
:100B90000E94B910F22FD32ECA01015011096A30F8
:100BA00014F4E0E301C0E7E3E60FD801EC93232B54
:100BB000242B252B49F7B801C70193DFA1960FB667
:100BC000F894DEBF0FBECDBFDF91CF911F910F9183
:100BD000FF90EF90DF90BF90AF909F908F9008951F
:100BE000CF92DF92EF92FF920F931F93CF93DF93F9
:100BF000EC016A017B012115310579F4E881F98165
:100C00000190F081E02D642FDF91CF911F910F9122
:100C1000FF90EF90DF90CF9009942A303105D9F4FE
:100C200077FF18C06DE274DF8C0144275527BA01A5
:100C30004C195D096E097F092AE0CE0183DF800F20
:100C4000911FDF91CF911F910F91FF90EF90DF9057
:100C5000CF9008952AE0B701A601CE01DF91CF9190
:100C60001F910F91FF90EF90DF90CF906BCF9A0183
:100C7000AB01662757FD6095762FB2CF0F931F9378
:100C8000CF93DF93EC019A01AB01662757FD609586
:100C9000762FA6DF8C01CE0142DF800F911FDF91FE
:100CA000CF911F910F9108950895C4D0FDDFE8DA28
:100CB000C1E9D3E049DB2097E9F333DDFBCF1F9295
:100CC0000F920FB60F9211242F933F938F939F9300
:100CD000AF93BF938091E7029091E802A091E9025F
:100CE000B091EA023091E60223E0230F2D3720F481
:100CF0000196A11DB11D05C026E8230F0296A11D76
:100D0000B11D2093E6028093E7029093E802A0933E
:100D1000E902B093EA028091EB029091EC02A0917B
:100D2000ED02B091EE020196A11DB11D8093EB0280
:100D30009093EC02A093ED02B093EE02BF91AF91BD
:100D40009F918F913F912F910F900FBE0F901F9009
:100D500018952FB7F8946091E7027091E80280919E
:100D6000E9029091EA022FBF08953FB7F89480916D
:100D7000EB029091EC02A091ED02B091EE0226B54B
:100D8000A89B05C02F3F19F00196A11DB11D3FBFC3
:100D90006627782F892F9A2F620F711D811D911D53
:100DA00042E0660F771F881F991F4A95D1F7089573
:100DB0008F929F92AF92BF92CF92DF92EF92FF926B
:100DC0006B017C01D2DF4B015C01C114D104E10451
:100DD000F104E1F046D1C9DF681979098A099B0954
:100DE000683E73408105910580F321E0C21AD10865
:100DF000E108F10888EE880E83E0981EA11CB11C62
:100E0000C114D104E104F10431F7DFCFFF90EF907A
:100E1000DF90CF90BF90AF909F908F9008958230D9
:100E2000910538F0880F991F880F991F0597019732
:100E3000F1F70895789484B5826084BD84B58160AB
:100E400084BD85B5826085BD85B5816085BDEEE6D2
:100E5000F0E0808181608083E1E8F0E010828081B1
:100E600082608083808181608083E0E8F0E080811F
:100E700081608083E1EBF0E0808184608083E0EB3F
:100E8000F0E0808181608083EAE7F0E08081846027
:100E90008083808182608083808181608083808183
:100EA000806880831092C10008958E3008F08E50C3
:100EB00087702091260190E4299F90011124822BB4
:100EC00080937C0080917A00806480937A00809186
:100ED0007A0086FDFCCF809178002091790090E027
:100EE000922B0895833081F028F4813099F082307C
:100EF000A1F008958730A9F08830B9F08430D1F49A
:100F0000809180008F7D03C0809180008F778093D7
:100F10008000089584B58F7702C084B58F7D84BD2D
:100F200008958091B0008F7703C08091B0008F7DCD
:100F30008093B0000895CF93DF9390E0FC01E458D4
:100F4000FF4F2491FC01E057FF4F8491882349F122
:100F500090E0880F991FFC01E854FF4FA591B491D0
:100F600082559F4FFC01C591D4919FB7611108C074
:100F7000F8948C91209582238C93888182230AC0D7
:100F8000623051F4F8948C91322F309583238C93F6
:100F90008881822B888304C0F8948C91822B8C9357
:100FA0009FBFDF91CF9108950F931F93CF93DF934E
:100FB0001F92CDB7DEB7282F30E0F901E859FF4F77
:100FC0008491F901E458FF4F1491F901E057FF4F64
:100FD00004910023C1F0882319F0698383DF6981BC
:100FE000E02FF0E0EE0FFF1FE255FF4FA591B49107
:100FF0009FB7F8948C91611103C01095812301C0B3
:10100000812B8C939FBF0F90DF91CF911F910F91F8
:101010000895CF93DF93282F30E0F901E859FF4F6F
:101020008491F901E458FF4FD491F901E057FF4F43
:10103000C491CC2389F0811155DFEC2FF0E0EE0F45
:10104000FF1FEC55FF4FA591B4912C912D2381E00A
:1010500090E021F480E002C080E090E0DF91CF9149
:101060000895089583FF02C098E2892787FD06C08E
:101070008064909160009093EF0202C08091EF0233
:1010800094B7977F94BFF894909160009861909383
:1010900060008093600078940895EAE7F0E0908122
:1010A00080818F77808383B7817F846083BFF8944A
:1010B00083B7816083BF85B7806685BF85B78F7929
:1010C000806485BF7894889583B78E7F83BF909323
:1010D0007A000895DF92EF92FF920F931F93CF93C0
:1010E000DF938C01EC0128E0E22EF12CC031D10518
:1010F00020F19E01D12C2032310538F0D39489E0C3
:10110000D81619F036952795F6CF1092F0028D2D4E
:10111000A9DFC3DF8FEFA6DFC70102C0880F991FC9
:10112000DA94E2F7C81BD90B2091F002222319F0C0
:10113000C81BD90BDBCF80E001C081E04091E70202
:101140005091E8026091E9027091EA020C1B1D0BBC
:10115000400F511F611D711D4093E7025093E8023B
:101160006093E9027093EA02DF91CF911F910F9192
:10117000FF90EF90DF9008958091F0028F5F809351
:10118000F0020895FF920F931F93CF93DF93FC011A
:101190000081C181D281F8948981F02EF0948F2151
:1011A000898378941DE7115009F182E090E037DEE1
:1011B00088818023C1F3F8948A818F218A83898171
:1011C000802B8983789480EE91E029DEF8948981E0
:1011D0008F21898386E490E022DE8881802311E0DC
:1011E00009F010E078948AE991E019DE812FDF910F
:1011F000CF911F910F91FF9008951F93CF93DF938D
:10120000FC011081C181D281912F909560FF11C0A6
:10121000F8948A8189238A838981812B89838AE052
:1012200090E0FDDD8A81812B8A83789487E390E0CA
:1012300010C0F8948A8189238A838981812B8983CC
:1012400081E490E0ECDD8A81812B8A83789485E0CB
:1012500090E0DF91CF911F91E2CD0F931F93CF9339
:10126000DF93FC011081C181D281F8948981812BA7
:1012700089838A81012F009580238A8383E090E00F
:10128000CEDD8981802389838AE090E0C8DDC88132
:10129000789485E390E0C3DD1C2381E009F480E0CD
:1012A000DF91CF911F910F910895CF92DF92EF922E
:1012B000FF920F931F93CF93DF931F92CDB7DEB7AB
:1012C0006C01E62E08E010E0FF24F39461E09F2D0E
:1012D0009E2109F460E0C60149838FDFFF0C0150B5
:1012E000110949810115110589F7411115C0F894BB
:1012F000D6011196ED91FC91129791818C91809578
:10130000892381831196ED91FC91129792818C91A2
:1013100080958923828378940F90DF91CF911F91DC
:101320000F91FF90EF90DF90CF900895EF92FF9292
:101330000F931F93CF93DF938C01C8E0D0E0F12C83
:10134000EE24E394C80189DF8111FE28EE0C219779
:10135000C9F78F2DDF91CF911F910F91FF90EF90E3
:101360000895CF92DF92FF920F931F93CF93DF9355
:101370001F92CDB7DEB78C01F62E40E065E579838C
:1013800094DFCF2C7981D72E88E0F82EF601619179
:101390006F0140E0C80189DFFA94C1F70F90DF9137
:1013A000CF911F910F91FF90DF90CF90089540E073
:1013B0006CEC7BCFFC0113861586148627E030E0A9
:1013C000DF01A20FB31F13961C922115310519F0EE
:1013D00021503109F5CF08951F93CF93DF93EC018E
:1013E000162F60E0812FA7DD612F70E0FB01E4582C
:1013F000FF4FE491E883FB01E057FF4FE491F0E0F9
:10140000EE0FFF1FEC55FF4F859194919A838983CE
:10141000CE01DF91CF911F91CDCFAF92BF92CF92EE
:10142000DF92EF92FF920F931F93CF93DF931F9260
:10143000CDB7DEB75C01D62EE72EFC018585811184
:101440005FC0C50149839EDE4981811105C0F50158
:101450001386158614866DC0442319F040E060EFB2
:1014600002C040E06CEEC50120DF01E0F12CC12C90
:1014700011E0C501F2DE682FC5016983EEDE6981E6
:10148000613019F48130B9F432C02F2D30E0681387
:101490001BC0F5018385181730F4E20FF31F838119
:1014A000802349F402C0181731F060E0193058F475
:1014B000F501148708C0F501EF0DF11D8381802B24
:1014C000838361E009C0C12EF501E20FF31F838120
:1014D000902F909589238383C5018FDE1F5F000FB6
:1014E00011F4F39401E0F7E0FF1508F0C2CF1134D6
:1014F00038F0F501C386C11009C081E0858706C0B8
:10150000F50113861586148680E013C0F5018381EA
:101510008823B1F3ED2DFE2D80E090E0D501A80FDA
:10152000B91F13962C912193019688309105B1F73C
:1015300081E00F90DF91CF911F910F91FF90EF907D
:10154000DF90CF90BF90AF900895DC0180E06150B4
:1015500038F0ED91E827F0E0EE53FF4F8491F7CF9C
:1015600008950895FC0181EB9AE0928B818B76833C
:1015700065831482108289E0818381E08283838382
:101580000895FC0184810895CF93DF93EB0167E018
:10159000CE01DBDF91E02F81821390E0892FDF9174
:1015A000CF910895EF92FF920F931F93CF93DF9304
:1015B000EC018B01E42E8D819E81FCDEF12C41E05B
:1015C000B8018D819E8129DF882351F0FE1005C06E
:1015D000B801CE01D9DF811104C0F394EF1478F77C
:1015E00080E0DF91CF911F910F91FF90EF900895D0
:1015F000EF92FF920F931F93CF93DF9300D0CDB75D
:10160000DEB77C018A01FC018581968169837A833A
:10161000B9DD69817A81F70185819681A2DE40E09A
:101620006EEBF7018581968140DEF7018581968119
:101630007DDEF8018083F7018581968177DEF801F0
:101640008183F7018581968171DEF8018283F7013C
:10165000858196816BDEF8018383F7018581968110
:1016600065DEF8018483F701858196815FDEF801EC
:101670008583F7018581968159DEF8018683F7011C
:101680008581968153DEF8018783F70185819681F4
:101690004DDEF8018087F701858196810F900F90CC
:1016A000DF91CF911F910F91FF90EF906BCDCF9372
:1016B000DF93EA019DDF68E0CE0147DF91E02885F6
:1016C000821390E0892FDF91CF910895EF92FF92DE
:1016D0000F931F93CF93DF93EC017B018A018D81E0
:1016E0009E8150DDB7018D819E813BDE40E06EE43E
:1016F0008D819E81DADD40E0F80162818D819E81DD
:10170000D4DD40E0F80163818D819E81CEDDF7015B
:101710008081803131F040E0F80164818D819E81CB
:10172000C4DD8D819E812EDD488168E48D819E819E
:10173000BCDD8881882329F06AE070E080E090E0D9
:1017400037DB8D819E81DF91CF911F910F91FF90AB
:10175000EF9018CDEF92FF921F93CF93DF9300D0BD
:10176000CDB7DEB77C01FC018581968169837A83E0
:1017700009DD69817A81F70185819681F2DD40E09A
:1017800064EBF7018581968190DDF7018581968173
:1017900064DD182FF70185819681F4DC81E0111159
:1017A00080E00F900F90DF91CF911F91FF90EF900D
:1017B0000895EF92FF920F931F93CF93DF93CDB7CE
:1017C000DEB72A970FB6F894DEBF0FBECDBF7C01FF
:1017D0008B01242FAE014F5F5F4F2A8768DF2A8578
:1017E0008823C9F0F80180818031B9F02B3041F0B5
:1017F0002C3021F02A3031F48FE305C08FE703C08D
:101800008FE501C08FE18D83AE014F5F5F4FB8015F
:10181000C7015CDF02C080E001C081E02A960FB6FC
:10182000F894DEBF0FBECDBFDF91CF911F910F9116
:10183000FF90EF900895CF93DF93CDB7DEB7299750
:101840000FB6F894DEBF0FBECDBFFB012081203163
:10185000C9F0AE014F5F5F4F2ADF882379F08D8199
:101860008F3351F018F48F3169F008C08F3541F093
:101870008F3721F48CE007C08AE005C080E003C008
:101880008BE001C089E029960FB6F894DEBF0FBE49
:10189000CDBFDF91CF910895FF920F931F93CF9308
:1018A000DF93CDB7DEB761970FB6F894DEBF0FBEFA
:1018B000CDBF8C01FC01858196817CDDF80114820D
:1018C00041E0BE01665F7F4FF80185819681A5DD0D
:1018D0008823A9F1BE01665F7F4FC80155DE8823CA
:1018E00079F3F8018081811107C0BE01665F7F4FE7
:1018F000C80130DF81111FC0AE014F5F5F4FBE01D5
:10190000665F7F4FC80174DEF801F180BE01665F3B
:101910007F4FC80190DF8F1518F4F801818105C051
:10192000BE01665F7F4FC80186DFF8018183848135
:101930008F5F8483C5CF81E0F8018083DDCF61961E
:101940000FB6F894DEBF0FBECDBFDF91CF911F91D0
:101950000F91FF900895CF93DF93CDB7DEB729970E
:101960000FB6F894DEBF0FBECDBFAE014F5F5F4F25
:101970003FDE81E09981911101C080E029960FB688
:10198000F894DEBF0FBECDBFDF91CF910895CF9207
:10199000DF92EF92FF920F931F93CF93DF93EC01AF
:1019A0008B01452BC9F08B818823B1F0888181118F
:1019B00013C0CFD96B017C0160E070E0CE01CBDFBA
:1019C00081110AC0C6D96C197D098E099F096E3E26
:1019D00072408105910580F3F80180818A3049F0D9
:1019E0008B3061F0893079F46EE570E080E090E052
:1019F0000EC06CEB70E080E090E009C067E771E03A
:101A000080E090E004C06EEE72E080E090E0DF9154
:101A1000CF911F910F91FF90EF90DF90CF90C8C9A9
:101A2000CF93DF93EC018D819E81ACDB8D819E8114
:101A3000BEDC488164E48D819E8137DC8A81882305
:101A400049F0BE016F5F7F4F40E050E0CE01DF9173
:101A5000CF919DCFDF91CF9108958F929F92AF92BA
:101A6000BF92CF92DF92EF92FF921F93CF93DF93BB
:101A7000FB01EA01698170E0762F66278881682B77
:101A80008081823281F1883271F1803109F06DC03C
:101A90001F8175956795882777FD8095982F91D43C
:101AA00020E030E040E85EE38CD36B017C01612FE5
:101AB00070E08E81681B7109882777FD8095982FCB
:101AC00080D44B015C01612F70E080E090E077D41E
:101AD0009B01AC01C501B401D9D39B01AC01C70185
:101AE000B60170D33EC08C818F3369F190F48F3191
:101AF00009F03BC093E0759567959A95E1F78827C3
:101B000077FD8095982F5DD420E030E040E05FE3E2
:101B100027C08F3561F08F3741F5882777FD809595
:101B2000982F4FD420E030E040E85DE319C0759570
:101B30006795882777FD8095982F43D420E030E083
:101B400040E05EE30DC075956795759567958827AC
:101B500077FD8095982F35D420E030E040E85EE3B3
:101B6000BCD4562F472F382F292F652F742F832F42
:101B7000922FDF91CF911F91FF90EF90DF90CF9048
:101B8000BF90AF909F908F900895EF92FF920F9328
:101B90001F93CF93DF93CDB7DEB729970FB6F89495
:101BA000DEBF0FBECDBF8C017B01AE014F5F5F4F2B
:101BB0007EDD882339F0AE014F5F5F4FB701C8016A
:101BC0004CDF04C060E070E08EEF92EC29960FB617
:101BD000F894DEBF0FBECDBFDF91CF911F910F9163
:101BE000FF90EF9008958627082E8295807F8025AC
:101BF000092E982F82958F70082686959827892719
:101C0000880F880F880F80250895E9EFF1E090E0B4
:101C10002191821729F09F5F9031D1F780E00895DC
:101C2000892F089580932701089580931D030895B7
:101C30001F93CF93DF9390911C03992329F08091F8
:101C400019038F5F8093190320911B0380911A035E
:101C5000921759F0803510F42BE001C02DE1820F6E
:101C600080931A0390931B0303C08C5E80931A0326
:101C700020911A03203A08F478C0809114039091BF
:101C800015039695879590931503809314033091CF
:101C90001903353028F0986090931503809314034E
:101CA000205A20931A031092190380911803882355
:101CB00009F44BC0809113038F5F809313038C3022
:101CC00008F453C0C0911403D09115038C2F8F7367
:101CD0009CDF182FCE0126E0969587952A95E1F78F
:101CE00094DF90E1199F90011124822B9091F302CF
:101CF00091110EC08093F4029CEF980F9B3140F03D
:101D0000109218038091F2028F5F8093F2022DC02F
:101D1000E091F30291E09E0F9093F302F0E0EB501C
:101D2000FD4F80839091F3028091F402981750F058
:101D3000109218038091F1028F5F8093F10281E08D
:101D4000809317031092130310C080911403909195
:101D5000150388339B4049F481E080931803109267
:101D600013031092F30210921703DF91CF911F918A
:101D700008954F925F926F927F92BF92CF92DF92BF
:101D8000EF92FF920F931F93CF93DF93CDB7DEB700
:101D90002E970FB6F894DEBF0FBECDBFBC018EE00C
:101DA000EEE6F1E0DE01119601900D928A95E1F7E1
:101DB0006115710509F48EC080E090E000D39B01AD
:101DC000AC0160E070E080E89FE360D220E030E0AA
:101DD00040E05EE382D36B017C018E010D5F1F4FFB
:101DE000BB24B394F801619171918F0180E090E080
:101DF000E6D29B01AC0160E074E284E79BE446D24A
:101E00009B01AC0160E070E080E89FE33FD29B0162
:101E1000AC01C701B6013AD2A1D22B013C01F2E0DC
:101E20004F1A5108610871082DEF42162FEF520624
:101E30006104710428F0B394E7E0BE12D3CF05C06B
:101E4000F6E0BF1609F446C00CC06230710581058A
:101E5000910508F43FC06115710521E082079105E5
:101E6000C8F5BB20B9F11092800028E020938100D2
:101E7000209181002B292093810070938900609329
:101E8000880080916F00826080936F0061E0809194
:101E9000270151D860E0809128014DD861E0809100
:101EA000290149D860911D03809129012E960FB612
:101EB000F894DEBF0FBECDBFDF91CF911F910F9180
:101EC000FF90EF90DF90CF90BF907F906F905F90EA
:101ED0004F906AC82E960FB6F894DEBF0FBECDBFE6
:101EE000DF91CF911F910F91FF90EF90DF90CF90F6
:101EF000BF907F906F905F904F900895CF93109216
:101F00002303109222031092210360911D03C1E06C
:101F10006C278091290148D8C0932003CF91089560
:101F200060911D03809129013FD860E080912701D5
:101F30003BD8109220030895809120038111FCCF9B
:101F40000895CF92DF92EF92FF920F931F93CF935A
:101F5000DF93F82EE92ED62E8BE1861708F481C088
:101F6000EBDFC3E0CD0D6C2F8FEF9FEF3CDEAC2F8E
:101F7000B0E0F4E0B595A795FA95E1F7A750BE4F0C
:101F80002C9120933201CF70EC2FF0E0E750FE4F00
:101F900020812093330102E311E0CF2CCF2DDE2DE1
:101FA0000E5F1F4F2C2F2C192D15C8F47E01688150
:101FB0001ADEA991B0E0E4E0B595A795EA95E1F7BE
:101FC000A750BE4F2C91D8012C93D701EC91EF7004
:101FD000F0E0E750FE4F2081F8012183E1CF61E07E
:101FE0006D0D660F80959095E62FF0E0EE5CFE4F4C
:101FF000DC0144E0B695A7954A95E1F7AF70BB27A1
:10200000A750BE4F2C912083E1E0E60FF0E0EE5C9C
:10201000FE4FDC01AF70BB27A750BE4F2C91208331
:10202000E2E0E60FF0E0EE5CFE4FDC01AB2FBB27F9
:10203000A295AF70A750BE4F2C912083A3E0A60FAE
:10204000B0E0AE5CBE4FE92FFF27EF70FF27E750EF
:10205000FE4F80818C93645F609324034FDF81E0A7
:1020600001C080E0DF91CF911F910F91FF90EF9021
:10207000DF90CF9008951F920F920FB60F92112408
:102080002F933F934F935F936F937F938F939F9380
:10209000AF93BF93EF93FF9380911603882321F0B2
:1020A00080912003882361F1809120038823C1F06F
:1020B0008091210391E0980F90932103811110C02A
:1020C000E091230380912403E81708F129DF809130
:1020D0001E0390911F03019690931F0380931E038C
:1020E00080912103883010F0109221038091160313
:1020F000882371F18091200381112AC099DD28C0C5
:10210000809128010E94090880931C03CDCFF0E044
:10211000E65DFE4F60812091220381E0820F809373
:10212000220381E090E001C0880F2A95EAF7682336
:10213000809127010E94D40780912203863080F28B
:1021400010922203809123038F5F80932303C8CFD3
:10215000FF91EF91BF91AF919F918F917F916F917F
:102160005F914F913F912F910F900FBE0F901F9055
:102170001895A1E21A2EAA1BBB1BFD010DC0AA1FB8
:10218000BB1FEE1FFF1FA217B307E407F50720F0E0
:10219000A21BB30BE40BF50B661F771F881F991F5B
:1021A0001A9469F760957095809590959B01AC01A4
:1021B000BD01CF010895EE0FFF1F0590F491E02DB2
:1021C00009945058BB27AA270ED04DC13ED130F0FC
:1021D00043D120F031F49F3F11F41EF433C10EF4CB
:1021E000E095E7FB29C1E92F4FD180F3BA176207C9
:1021F00073078407950718F071F49EF567C10EF414
:10220000E0950B2EBA2FA02D0B01B90190010C0106
:10221000CA01A0011124FF27591B99F0593F50F41E
:10222000503E68F11A16F040A22F232F342F442776
:10223000585FF3CF469537952795A795F04053956E
:10224000C9F77EF41F16BA0B620B730B840BBAF03E
:102250009150A1F0FF0FBB1F661F771F881FC2F7A9
:102260000EC0BA0F621F731F841F48F487957795BD
:102270006795B795F7959E3F08F0B3CF9395880F74
:1022800008F09927EE0F9795879508950CD0EBC02D
:10229000E3D040F0DAD030F021F45F3F19F0CCC049
:1022A000511115C1CFC0F0D098F39923C9F355232C
:1022B000B1F3951B550BBB27AA2762177307840739
:1022C00038F09F5F5F4F220F331F441FAA1FA9F3EF
:1022D00033D00E2E3AF0E0E830D091505040E695E1
:1022E000001CCAF729D0FE2F27D0660F771F881F42
:1022F000BB1F261737074807AB07B0E809F0BB0B31
:10230000802DBF01FF2793585F4F2AF09E3F510554
:1023100068F092C0DCC05F3FECF3983EDCF386953A
:1023200077956795B795F7959F5FC9F7880F911DCA
:102330009695879597F90895E1E0660F771F881FB6
:10234000BB1F621773078407BA0720F0621B730B69
:10235000840BBA0BEE1F88F7E095089504D06894BB
:10236000B111B5C0089598D088F09F5790F0B92F5B
:102370009927B751A0F0D1F0660F771F881F991FDA
:102380001AF0BA95C9F712C0B13081F09FD0B1E010
:1023900008959CC0672F782F8827B85F39F0B93F20
:1023A000CCF3869577956795B395D9F73EF49095DC
:1023B0008095709561957F4F8F4F9F4F0895E8945A
:1023C00009C097FB3EF490958095709561957F4F7D
:1023D0008F4F9F4F9923A9F0F92F96E9BB2793952B
:1023E000F695879577956795B795F111F8CFFAF43B
:1023F000BB0F11F460FF1BC06F5F7F4F8F4F9F4F6C
:1024000016C0882311F096E911C0772321F09EE8C9
:10241000872F762F05C0662371F096E8862F70E02F
:1024200060E02AF09A95660F771F881FDAF7880F09
:102430009695879597F9089597F99F6780E870E0DA
:1024400060E008959FEF80EC089500240A9416162A
:10245000170618060906089500240A941216130692
:10246000140605060895092E0394000C11F4882320
:1024700052F0BB0F40F4BF2B11F460FF04C06F5F3C
:102480007F4F8F4F9F4F089557FD9058440F551F12
:1024900059F05F3F71F04795880F97FB991F61F0E6
:1024A0009F3F79F087950895121613061406551F5D
:1024B000F2CF4695F1DF08C0161617061806991FC9
:1024C000F1CF86957105610508940895E894BB27BE
:1024D00066277727CB0197F908950BD0C4CFB5DFD6
:1024E00028F0BADF18F0952309F0A6CFABCF11245E
:1024F000EECFCADFA0F3959FD1F3950F50E0551FA3
:10250000629FF001729FBB27F00DB11D639FAA2748
:10251000F00DB11DAA1F649F6627B00DA11D661F97
:10252000829F2227B00DA11D621F739FB00DA11DB8
:10253000621F839FA00D611D221F749F3327A00D72
:10254000611D231F849F600D211D822F762F6A2F0E
:1025500011249F5750408AF0E1F088234AF0EE0F93
:10256000FF1FBB1F661F771F881F91505040A9F7A0
:102570009E3F510570F060CFAACF5F3FECF3983ECD
:10258000DCF3869577956795B795F795E7959F5F07
:10259000C1F7FE2B880F911D9695879597F90895A1
:1025A000FB01DC010D900020E9F7119701900D92DD
:1025B0000020E1F70895BB274A3031F4992322F433
:1025C000BDE2909581959F4F01C0BB27FB01552728
:1025D000AA27880F991FAA1FA41710F0A41B839580
:1025E0005051B9F7A05DAA3308F0A95DA1930097F7
:1025F00079F7B111B1931192CB0100C0DC01FC015C
:10260000672F71917723E1F7329704C07C916D9326
:1026100070836291AE17BF07C8F30895F894FFCF97
:10262000000025038000284E947A03000087286F5D
:10263000ABE00300001728F588E0030000DF28283E
:10264000CFE0030000E9010C0B0A2A2A2A2A2A2AD1
:10265000382C000000000000000000000000000016
:10266000000000000000000000000000000000006A
:10267000000000000000000000000000000000005A
:10268000000000000000000000000000000000004A
:1026900001000800400000010004050D42656520AE
:1026A0004D6F6E69746F722056322E352031314A6B
:1026B000756C3136203331354D687A006F70656E38
:1026C000656E657267796D6F6E69746F722E6F7269
:1026D000670054656D70657261747572652073650D
:1026E0006E736F727320666F756E643A20006100BE
:1026F00065006B006D00750000000000E0034905F7
:1027000064037D036F03BF030D0A006E616E0069F1
:102710006E66006F7666002E000D0E131516191AE0
:0A2720001C232526292A2C32340040
:00000001FF
