:100000000C94E3000C948B100C94B8100C940B011E
:100010000C940B010C940B010C940D010C940B012E
:100020000C940B010C940B010C940B010C94850F98
:100030000C940B010C940B010C940B010C940B0110
:100040000C9451030C940B010C94AC050C94EF052B
:100050000C940B010C940B010C940B010C940B01F0
:100060000C940B010C940B0100000007000201002E
:100070000003040600000000000000000102040864
:100080001020408001020408102001020408102002
:10009000040404040404040402020202020203032E
:1000A00003030303000000002300260029000000D2
:1000B0000000250028002B0000000000240027007D
:1000C0002A00005EBCE2613FDD83C29C7E20A3FD6E
:1000D0001F419DC3217FFCA2401E5F01E3BD3E6026
:1000E00082DC237D9FC1421CFEA0E1BF5D0380DE58
:1000F0003C62BEE0025CDF81633D7C22C09E1D430A
:10010000A1FF4618FAA427799BC584DA3866E5BBB7
:100110005907DB856739BAE406581947A5FB7826E5
:10012000C49A653BD987045AB8E6A7F91B45C69817
:100130007A24F8A6441A99C7257B3A6486D85B05C9
:10014000E7B98CD2306EEDB3510F4E10F2AC2F7177
:1001500093CD114FADF3702ECC92D38D6F31B2ECA5
:100160000E50AFF1134DCE90722C6D33D18F0C52D7
:10017000B0EE326C8ED0530DEFB1F0AE4C1291CF89
:100180002D73CA947628ABF517490856B4EA693737
:10019000D58B5709EBB536688AD495CB2977F4AA65
:1001A0004816E9B7550B88D6346A2B7597C94A1497
:1001B000F6A8742AC896154BA9F7B6E80A54D78949
:1001C0006B351D03AB0611241FBECFEFD8E0DEBF99
:1001D000CDBF11E0A0E0B1E0E2EAF6E202C0059096
:1001E0000D92AA3DB107D9F713E0AAEDB1E001C025
:1001F0001D92A630B107E1F711E0C6ECD1E004C0D2
:100200002297FE010E944B13C23CD107C9F70E94FE
:1002100031080C94E5100C9400001F920F920FB659
:100220000F9211242F933F934F935F936F937F937C
:100230008F939F93AF93BF93EF93FF930E9485108B
:10024000FF91EF91BF91AF919F918F917F916F91AE
:100250005F914F913F912F910F900FBE0F901F9084
:100260001895FC0101900020E9F7BF016150710968
:10027000681B790B0E94E70E0E94E20E6AE070E0B4
:1002800080E090E00C94CA03CF93DF9340E855E2FE
:1002900060E070E082E292E00E942A0661E08DE078
:1002A0000E947C0461E08DE00E94B50468E671E084
:1002B00082E292E00E945C076EE771E082E292E0E7
:1002C0000E945C0788EF91E00E94FE0988EF91E0B0
:1002D0000E944E0890E09093F7018093F60164E944
:1002E00071E082E292E00E943F076091F601709116
:1002F000F7014AE050E082E292E00E941908C0E073
:10030000D0E08091F6019091F701C817D90794F4D5
:100310004C2F6EEE71E088EF91E00E946008882318
:1003200039F04CE06EEE71E088EF91E00E948809B0
:100330002196E7CF85E00E94E70D81E00E94EA0D5B
:1003400080ED97E00E94900E68EB7BE080E090E00B
:100350000E94CA0360E08DE0DF91CF910C94B50458
:10036000CF93DF93CDB7DEB76E970FB6F894DEBFAD
:100370000FBECDBF88EF91E00E94CE0A68E171E028
:1003800088EF91E00E94920B20E030E048EC52E4CC
:100390000E94A0120E94E1117093ED016093EC01A4
:1003A00060E171E088EF91E00E94920B20E030E084
:1003B00048EC52E40E94A0120E94E1117093EB01FC
:1003C0006093EA0168E071E088EF91E00E94920B8F
:1003D00020E030E048EC52E40E94A0120E94E111BB
:1003E0007093E9016093E80160E071E088EF91E0CB
:1003F0000E94920B20E030E048EC52E40E94A012F0
:100400000E94E1117093E7016093E60181E00E9490
:100410003604BC01882777FD8095982F0E9414121E
:1004200028E638EE4FE95BE30E94A01225E236E0B1
:1004300041E350E40E94A01220E030E048EC52E496
:100440000E94A0120E94E1117093E5016093E40103
:100450002091EC013091ED013093E3012093E20112
:100460004091EA015091EB015093E1014093E0018A
:100470004091E8015091E9015093DF014093DE0182
:100480004091E6015091E7015093DD014093DC017A
:100490007093DB016093DA014AE050E0BE016F5FC8
:1004A0007F4FC9010E94F31060EB71E0CE0101960D
:1004B0000E94E810CE0101960E9431014AE050E00E
:1004C000BE016F5F7F4F8091E0019091E1010E943A
:1004D000F31062EB71E0CE0101960E94E810CE01AC
:1004E00001960E9431014AE050E0BE016F5F7F4FEC
:1004F0008091DE019091DF010E94F31064EB71E0C6
:10050000CE0101960E94E810CE0101960E943101B1
:100510004AE050E0BE016F5F7F4F8091DC01909117
:10052000DD010E94F31066EB71E0CE0101960E949E
:10053000E810CE0101960E9431014AE050E0BE0170
:100540006F5F7F4F8091DA019091DB010E94F31081
:1005500068EB71E0CE0101960E94E810CE01019691
:100560000E9431016091EC017091ED014AE050E090
:1005700082E292E00E9411086EEA71E082E292E06B
:100580000E943F076091EA017091EB014AE050E060
:1005900082E292E00E9411086EEA71E082E292E04B
:1005A0000E943F076091E8017091E9014AE050E044
:1005B00082E292E00E9411086EEA71E082E292E02B
:1005C0000E943F076091E6017091E7014AE050E028
:1005D00082E292E00E9411086EEA71E082E292E00B
:1005E0000E943F076091E4017091E5014AE050E00C
:1005F00082E292E00E94190868EC70E080E090E0EE
:100600000E94CA0361E08DE00E94B50464E670E0D8
:1006100080E090E00E94CA0360E08DE00E94B50493
:1006200080E69AEE0E9430106E960FB6F894DEBF08
:100630000FBECDBFDF91CF91089562E08BE092E0D5
:100640000E94FC0C6BE072E088EF91E00E943F0892
:100650008091EC019091ED019093E3018093E20190
:100660008091EA019091EB019093E1018093E00188
:100670008091E8019091E9019093DF018093DE0180
:100680008091E6019091E7019093DD018093DC0178
:100690008091E4019091E5019093DB018093DA0170
:1006A00008951F920F920FB60F9211242F933F932C
:1006B0008F939F93AF93BF9380911A0290911B02E7
:1006C000A0911C02B0911D023091190223E0230F6A
:1006D0002D3720F40196A11DB11D05C026E8230F7A
:1006E0000296A11DB11D2093190280931A029093C6
:1006F0001B02A0931C02B0931D0280911E029091D8
:100700001F02A0912002B09121020196A11DB11DEE
:1007100080931E0290931F02A0932002B0932102A7
:10072000BF91AF919F918F913F912F910F900FBEED
:100730000F901F9018952FB7F89460911A0270913E
:100740001B0280911C0290911D022FBF08953FB79C
:10075000F89480911E0290911F02A0912002B09106
:10076000210226B5A89B05C02F3F19F00196A11DB7
:10077000B11D3FBF6627782F892F9A2F620F711DF9
:10078000811D911D42E0660F771F881F991F4A95B2
:10079000D1F70895CF92DF92EF92FF92CF93DF933C
:1007A0006B017C010E94A703EB01C114D104E10499
:1007B000F10479F00E94A7036C1B7D0B683E734027
:1007C000A0F381E0C81AD108E108F108C851DC4F54
:1007D000ECCFDF91CF91FF90EF90DF90CF90089515
:1007E0000197009739F0880F991F880F991F02977A
:1007F0000197F1F70895789484B5826084BD84B53B
:10080000816084BD85B5826085BD85B5816085BD0B
:10081000EEE6F0E0808181608083E1E8F0E0108224
:10082000808182608083808181608083E0E8F0E065
:10083000808181608083E1EBF0E08081846080834F
:10084000E0EBF0E0808181608083EAE7F0E0808186
:1008500084608083808182608083808181608083E6
:100860008081806880831092C10008958E3008F0E6
:100870008E5087702091200190E4299F90011124CF
:10088000822B80937C0080917A00806480937A0030
:1008900080917A0086FDFCCF8091780020917900CC
:1008A00090E0922B0895833081F028F4813099F004
:1008B0008230A1F008958630A9F08730B9F08430F5
:1008C000D1F4809180008F7D03C0809180008F776C
:1008D00080938000089584B58F7702C084B58F7DA2
:1008E00084BD08958091B0008F7703C08091B000DF
:1008F0008F7D8093B0000895CF93DF9390E0FC014B
:10090000E458FF4F2491FC01E057FF4F8491882366
:1009100049F190E0880F991FFC01E854FF4FA59121
:10092000B49182559F4FFC01C591D4919FB761113D
:1009300008C0F8948C91209582238C93888182231F
:100940000AC0623051F4F8948C91322F3095832391
:100950008C938881822B888304C0F8948C91822B9D
:100960008C939FBFDF91CF9108950F931F93CF93E7
:10097000DF931F92CDB7DEB7282F30E0F901E85999
:10098000FF4F8491F901E458FF4F1491F901E057AA
:10099000FF4F04910023C9F0882321F069830E944E
:1009A00053046981E02FF0E0EE0FFF1FE255FF4F87
:1009B000A591B4919FB7F8948C91611103C01095E3
:1009C000812301C0812B8C939FBF0F90DF91CF912A
:1009D0001F910F910895CF93DF93282F30E0F901F5
:1009E000E859FF4F8491F901E458FF4FD491F90180
:1009F000E057FF4FC491CC2391F081110E94530422
:100A0000EC2FF0E0EE0FFF1FEC55FF4FA591B491D6
:100A10002C912D2381E090E021F480E002C080E061
:100A200090E0DF91CF910895FC0124853585F9018F
:100A3000E05CFF4F80819181F901EE5BFF4F2081E7
:100A40003181821B930B8F7399270895FC01848554
:100A50009585FC01E05CFF4F40815181FC01EE5B1C
:100A6000FF4F208131814217530741F00190F081FF
:100A7000E02DE80FF91F808190E008958FEF9FEF40
:100A80000895FC0184859585FC01E05CFF4F408161
:100A90005181FC01EE5BFF4F2081318142175307EA
:100AA00079F0A081B181A80FB91F8C91208131818B
:100AB0002F5F3F4F2F7333273183208390E00895BA
:100AC0008FEF9FEF0895FC0181A1882329F0A4896D
:100AD000B5898C9186FFFBCF11A20895CF93DF9348
:100AE000FC0126853785D901A05CBF4F8D919C9173
:100AF000119701968F739927E901CE5BDF4F4881EB
:100B0000598184179507D9F30D90BC91A02DA20FA0
:100B1000B31F6C93A685B785A05CBF4F11969C93BD
:100B20008E93A689B7892C9181E090E0078C02C052
:100B3000880F991F0A94E2F7282B2C9381E081A358
:100B40000488F589E02D80818064808381E090E0D5
:100B5000DF91CF91089508951F920F920FB60F92D3
:100B600011242F933F934F938F939F93EF93FF9372
:100B70008091C00082FD1CC04091C6008091C802D7
:100B80009091C90201968F7399272091CA023091E2
:100B9000CB028217930771F0E091C802F091C9026D
:100BA000E857FD4F40839093C9028093C80202C06A
:100BB0008091C600FF91EF919F918F914F913F914E
:100BC0002F910F900FBE0F901F90189582E292E028
:100BD0000E941405892B11F00C94AB0508951F9207
:100BE0000F920FB60F9211242F933F938F939F93E1
:100BF000EF93FF93209184023091850280918602C9
:100C0000909187022817390731F48091C1008F7DB8
:100C10008093C10014C0E0918602F0918702EC5BE2
:100C2000FD4F2081809186029091870201968F73FB
:100C3000992790938702809386022093C600FF91A4
:100C4000EF919F918F913F912F910F900FBE0F9039
:100C50001F901895CF92DF92EF92FF92CF93DF9380
:100C6000EC016A017B01411581EE580761057105B0
:100C7000F9F0EC89FD8981E090E008A002C0880FBE
:100C8000991F0A94E2F7808360E079E08DE390E0B9
:100C9000A70196010E9427132150310941095109EA
:100CA0005695479537952795211580E1380798F097
:100CB000EC89FD89108260E874E88EE190E0A7017C
:100CC00096010E9427132150310941095109569577
:100CD000479537952795E889F9893083EA89FB8913
:100CE000208319A2EE89FF89408181E090E09C0178
:100CF0000C8C02C0220F331F0A94E2F7422B408370
:100D0000EE89FF8940819C010D8C02C0220F331FA8
:100D10000A94E2F7422B4083EE89FF8940819C01CF
:100D20000E8C02C0220F331F0A94E2F7422B40833D
:100D3000EE89FF8920810F8C02C0880F991F0A94C9
:100D4000E2F7809582238083DF91CF91FF90EF902F
:100D5000DF90CF900895109225021092240288EE21
:100D600093E0A0E0B0E08093260290932702A09346
:100D70002802B09329028EEB91E090932302809396
:100D8000220288E892E090932F0280932E0284E45E
:100D900092E0909331028093300285EC90E0909342
:100DA00033028093320284EC90E09093350280937A
:100DB000340280EC90E0909337028093360281EC0D
:100DC00090E0909339028093380282EC90E0909307
:100DD0003B0280933A0286EC90E090933D02809330
:100DE0003C0284E080933E0283E080933F0287E0F0
:100DF0008093400285E08093410281E0809342022B
:100E00000895CF92DF92EF92FF920F931F93CF93AB
:100E1000DF936C017A01EB01E60EF71E00E010E0B3
:100E2000CE15DF0561F06991D601ED91FC9101903D
:100E3000F081E02DC6010995080F191FF1CFC801F7
:100E4000DF91CF911F910F91FF90EF90DF90CF90A6
:100E500008956115710581F0DB010D900020E9F71F
:100E6000AD0141505109461B570BDC01ED91FC913E
:100E70000280F381E02D099480E090E008950C94C5
:100E80002907DC01ED91FC910190F081E02D09949E
:100E90000F931F93CF93DF93EC016DE00E94410706
:100EA0008C016AE0CE010E944107800F911FDF9103
:100EB000CF911F910F9108950F931F93CF93DF93BD
:100EC000EC010E9429078C01CE010E944807800F87
:100ED000911FDF91CF911F910F9108958F929F9253
:100EE000AF92BF92CF92DF92EF92FF920F931F9338
:100EF000CF93DF93CDB7DEB7A1970FB6F894DEBFDF
:100F00000FBECDBF7C01C42EE52FCB01D22E19A27E
:100F100021E02D1510F02AE0D22E8E010F5D1F4F1B
:100F20008D2C912CA12CB12C6C2D7E2FA501940120
:100F30000E9427138C2DD29E801911240150110973
:100F40008A3014F4805D01C0895CF801808321152A
:100F500031054105510521F0C22EE32FCA01E4CF2E
:100F6000B801C7010E942907A1960FB6F894DEBF09
:100F70000FBECDBFDF91CF911F910F91FF90EF90EA
:100F8000DF90CF90BF90AF909F908F900895CF92B9
:100F9000DF92EF92FF920F931F93CF93DF93EC01B9
:100FA0006A017B012115310579F4E881F98101900D
:100FB000F081E02D642FDF91CF911F910F91FF9071
:100FC000EF90DF90CF9009942A303105E9F477FF54
:100FD0001AC06DE20E9441078C0144275527BA01CF
:100FE0004C195D096E097F092AE0CE010E946E0747
:100FF000800F911FDF91CF911F910F91FF90EF9084
:10100000DF90CF9008952AE0B701A601CE01DF91CD
:10101000CF911F910F91FF90EF90DF90CF900C94A4
:101020006E079A01AB01662757FD6095762F0C94E9
:10103000C7070F931F93CF93DF93EC019A01AB0186
:10104000662757FD6095762F0E94C7078C01CE0159
:101050000E944807800F911FDF91CF911F910F9140
:1010600008950E94FB030E944401C6EED5E00E9451
:10107000B0012097E1F30E94E605F9CF0895FC0145
:101080008EE398E0928B818B768365831482108245
:1010900089E0818381E0828383830895FC018481D8
:1010A0000895CF93DF93EB0167E0CE010E94BC0D62
:1010B00091E02F81821390E0892FDF91CF910895E5
:1010C000EF92FF920F931F93CF93DF93EC018B016D
:1010D000E42E8D819E810E94EA0CF12C41E0B80142
:1010E0008D819E810E941F0D882359F0FE1006C03D
:1010F000B801CE010E945108811104C0F394EF148D
:1011000068F780E0DF91CF911F910F91FF90EF90F2
:101110000895EF92FF920F931F93CF93DF9300D028
:10112000CDB7DEB77C018A01FC0185819681698398
:101130007A830E94C20B69817A81F7018581968149
:101140000E94BE0C40E06EEBF701858196810E9403
:101150005F0CF701858196810E94A10CF8018083C4
:10116000F701858196810E94A10CF8018183F70126
:10117000858196810E94A10CF8018283F701858107
:1011800096810E94A10CF8018383F70185819681E5
:101190000E94A10CF8018483F701858196810E9449
:1011A000A10CF8018583F701858196810E94A10C2D
:1011B000F8018683F701858196810E94A10CF801D0
:1011C0008783F701858196810E94A10CF8018087B1
:1011D000F701858196810F900F90DF91CF911F913C
:1011E0000F91FF90EF900C94C20BCF93DF93EA0125
:1011F0000E94890868E0CE010E94BC0D91E028851C
:10120000821390E0892FDF91CF910895EF92FF92A2
:101210000F931F93CF93DF93EC017B018A018D81A4
:101220009E810E94C20BB7018D819E810E94BE0CDF
:1012300040E06EE48D819E810E945F0C40E0F801E9
:1012400062818D819E810E945F0C40E0F801638184
:101250008D819E810E945F0CF7018081803139F081
:1012600040E0F80164818D819E810E945F0C8D8138
:101270009E810E94C20B488168E48D819E810E94FC
:101280005F0C8881882331F06AE070E080E090E0B4
:101290000E94CA038D819E81DF91CF911F910F9192
:1012A000FF90EF900C94C20BEF92FF921F93CF939D
:1012B000DF9300D0CDB7DEB77C01FC01858196813C
:1012C00069837A830E94C20B69817A81F7018581E3
:1012D00096810E94BE0C40E064EBF7018581968107
:1012E0000E945F0CF701858196810E94340C182FB3
:1012F000F701858196810E94C20B81E0111180E087
:101300000F900F90DF91CF911F91FF90EF90089574
:10131000EF92FF920F931F93CF93DF93CDB7DEB77A
:101320002A970FB6F894DEBF0FBECDBF7C018B01AC
:10133000242FAE014F5F5F4F2A870E94F5082A8550
:101340008823D1F0F80180818031C1F02B3041F049
:101350002C3021F02A3031F48FE305C08FE703C031
:101360008FE501C08FE18D83AE014F5F5F4FB80104
:10137000C7010E94060902C080E001C081E02A96F0
:101380000FB6F894DEBF0FBECDBFDF91CF911F9196
:101390000F91FF90EF900895CF93DF93CDB7DEB715
:1013A00029970FB6F894DEBF0FBECDBFFB01208199
:1013B0002031D1F0AE014F5F5F4F0E94F5088823C6
:1013C00079F08D818F3351F018F48F3169F008C0B6
:1013D0008F3541F08F3721F48CE007C08AE005C0DB
:1013E00080E003C08BE001C089E029960FB6F89435
:1013F000DEBF0FBECDBFDF91CF910895FF920F9357
:101400001F93CF93DF93CDB7DEB761970FB6F894F4
:10141000DEBF0FBECDBF8C01FC01858196810E948D
:10142000EA0CF801148241E0BE01665F7F4FF801CB
:10143000858196810E941F0D8823D1F1BE01665FD0
:101440007F4FC8010E945108882369F3F801808109
:10145000811108C0BE01665F7F4FC8010E94540918
:10146000811122C0AE014F5F5F4FBE01665F7F4FAB
:10147000C8010E948908F801F180BE01665F7F4FB4
:10148000C8010E94CC098F1518F4F801818106C0AB
:10149000BE01665F7F4FC8010E94CC09F8018183BD
:1014A00084818F5F8483BFCF81E0F8018083DACFAE
:1014B00061960FB6F894DEBF0FBECDBFDF91CF911E
:1014C0001F910F91FF900895CF93DF93CDB7DEB7B3
:1014D00029970FB6F894DEBF0FBECDBFAE014F5FA8
:1014E0005F4F0E94890881E09981911101C080E0DD
:1014F00029960FB6F894DEBF0FBECDBFDF91CF9116
:101500000895CF92DF92EF92FF920F931F93CF93A4
:10151000DF93EC018B01452BE1F08B818823C9F02F
:101520008881811116C00E949B036B017C0160E0E1
:1015300070E0CE010E94640A81110BC00E949B03DF
:101540006C197D098E099F096E3E724081059105D7
:1015500070F3F80180818A3049F08B3061F0893076
:1015600079F46EE570E080E090E00EC06CEB70E026
:1015700080E090E009C067E771E080E090E004C09F
:101580006EEE72E080E090E0DF91CF911F910F91BD
:10159000FF90EF90DF90CF900C94CA03CF93DF932E
:1015A000EC018D819E810E94C20B8D819E810E94E3
:1015B000E60C488164E48D819E810E945F0C8A81E3
:1015C000882351F0BE016F5F7F4F40E050E0CE01B5
:1015D000DF91CF910C94810ADF91CF9108958F9282
:1015E0009F92AF92BF92CF92DF92EF92FF921F93A2
:1015F000CF93DF93FB01EA01698170E0762F6627C4
:101600008881682B80818232B1F18832A1F18031EA
:1016100009F078C01F8175956795882777FD8095BB
:10162000982F0E94141220E030E040E85EE30E9410
:1016300014116B017C01612F70E08E81681B7109B0
:10164000882777FD8095982F0E9414124B015C012A
:10165000612F70E080E090E00E9412129B01AC01CB
:10166000C501B4010E9479119B01AC01C701B6010B
:101670000E94151143C08C818F3381F198F48F3112
:1016800009F040C093E0759567959A95E1F7882732
:1016900077FD8095982F0E94141220E030E040E002
:1016A0005FE32AC08F3569F08F3761F5882777FDB2
:1016B0008095982F0E94141220E030E040E85DE30E
:1016C0001BC075956795882777FD8095982F0E9498
:1016D000141220E030E040E05EE30EC0759567959F
:1016E00075956795882777FD8095982F0E9414122D
:1016F00020E030E040E85EE30E94A012562F472F22
:10170000382F292F652F742F832F922FDF91CF91A0
:101710001F91FF90EF90DF90CF90BF90AF909F9080
:101720008F900895EF92FF920F931F93CF93DF93C3
:10173000CDB7DEB729970FB6F894DEBF0FBECDBF89
:101740008C017B01AE014F5F5F4F0E94F50888233B
:1017500041F0AE014F5F5F4FB701C8010E94EF0A31
:1017600004C060E070E08EEF92EC29960FB6F8941A
:10177000DEBF0FBECDBFDF91CF911F910F91FF90C4
:10178000EF900895FF920F931F93CF93DF93FC0187
:101790000081C181D281F8948981F02EF0948F214B
:1017A000898378941DE7115029F182E090E00E942E
:1017B000F00388818023B9F3F8948A818F218A838A
:1017C0008981802B8983789480EE91E00E94F003D8
:1017D000F89489818F21898386E490E00E94F00348
:1017E0008881802311E009F010E078948AE991E083
:1017F0000E94F003812FDF91CF911F910F91FF90F5
:1018000008951F93CF93DF93FC011081C181D28192
:10181000912F909560FF12C0F8948A8189238A8362
:101820008981812B89838AE090E00E94F0038A817C
:10183000812B8A83789487E390E011C0F8948A81A1
:1018400089238A838981812B898381E490E00E94A6
:10185000F0038A81812B8A83789485E090E0DF9180
:10186000CF911F910C94F0030F931F93CF93DF93AD
:10187000FC011081C181D281F8948981812B8983F7
:101880008A81012F009580238A8383E090E00E9463
:10189000F0038981802389838AE090E00E94F0032D
:1018A000C881789485E390E00E94F0031C2381E0D6
:1018B00009F480E0DF91CF911F910F910895CF92AD
:1018C000DF92EF92FF920F931F93CF93DF931F92BC
:1018D000CDB7DEB76C01E62E08E010E0FF24F394EC
:1018E00061E09F2D9E2109F460E0C60149830E94BA
:1018F000010CFF0C0150110949810115110581F7F7
:10190000411115C0F894D6011196ED91FC911297F2
:1019100091818C918095892381831196ED91FC9121
:10192000129792818C9180958923828378940F906D
:10193000DF91CF911F910F91FF90EF90DF90CF90AB
:101940000895EF92FF920F931F93CF93DF938C0133
:10195000C8E0D0E0F12CEE24E394C8010E94340CDE
:101960008111FE28EE0C21972097B9F78F2DDF917A
:10197000CF911F910F91FF90EF900895CF92DF923A
:10198000FF920F931F93CF93DF931F92CDB7DEB7D4
:101990008C01F62E40E065E579830E945F0CCF2C28
:1019A0007981D72E88E0F82EF60161916F0140E031
:1019B000C8010E945F0CFA94B9F70F90DF91CF91A4
:1019C0001F910F91FF90DF90CF90089540E06CEC55
:1019D0000C945F0CFC0113861586148627E030E01A
:1019E000DF01A20FB31F13961C922115310519F0C8
:1019F00021503109F5CF08951F93CF93DF93EC0168
:101A0000162F60E0812F0E947C04612F70E0FB01A3
:101A1000E458FF4FE491E883FB01E057FF4FE49166
:101A2000F0E0EE0FFF1FEC55FF4F859194919A83E4
:101A30008983CE01DF91CF911F910C94EA0CAF9274
:101A4000BF92CF92DF92EF92FF920F931F93CF93AB
:101A5000DF931F92CDB7DEB75C01D62EE72EFC01D7
:101A60008585811164C0C50149830E94C20B4981EB
:101A7000811105C0F50113861586148671C04423B3
:101A800019F040E060EF02C040E06CEEC5010E943A
:101A90005F0C01E0F12CC12C11E0C5010E94340C57
:101AA000682FC50169830E94340C6981613019F483
:101AB0008130B9F433C02F2D30E068131BC0F5011D
:101AC0008385181730F4E20FF31F8381802349F4D4
:101AD00002C0181731F060E0193058F4F50114878E
:101AE00008C0F501EF0DF11D8381802B838361E038
:101AF00009C0C12EF501E20FF31F8381902F90954D
:101B000089238383C5010E94010C1F5F000F11F41C
:101B1000F39401E0F7E0FF1508F0BFCF113438F07F
:101B2000F501C386C11009C081E0858706C0F501B3
:101B300013861586148680E013C0F50183818823FF
:101B4000B1F3ED2DFE2D80E090E0D501A80FB91F77
:101B500013962C912193019688309105B1F781E07D
:101B60000F90DF91CF911F910F91FF90EF90DF9039
:101B7000CF90BF90AF900895DC0180E0615038F0C5
:101B8000ED91E827F0E0EE53FF4F8491F7CF0895F1
:101B90008627082E8295807F8025092E982F829592
:101BA0008F700826869598278927880F880F880FB9
:101BB00080250895EAECF1E090E02191821729F068
:101BC0009F5F9031D1F780E00895892F0895809329
:101BD000210108958093F80208951F93CF93DF9316
:101BE0009091F702992329F08091F4028F5F8093FE
:101BF000F4022091F6028091F502921759F0803597
:101C000010F42BE001C02DE1820F8093F502909338
:101C1000F60203C08C5E8093F5022091F502203A13
:101C200008F47AC08091EF029091F0029695879522
:101C30009093F0028093EF023091F402353028F057
:101C400098609093F0028093EF02205A2093F5025F
:101C50001092F4028091F302882309F44DC0809120
:101C6000EE028F5F8093EE028C3008F455C0C09175
:101C7000EF02D091F0028C2F8F730E94DA0D182F93
:101C8000CE0126E0969587952A95E1F70E94DA0D18
:101C900090E1199F90011124822B9091CE02911115
:101CA0000EC08093CF029CEF980F9B3140F01092B2
:101CB000F3028091CD028F5F8093CD022DC0E09121
:101CC000CE0291E09E0F9093CE02F0E0E053FD4FE4
:101CD00080839091CE028091CF02981750F010929D
:101CE000F3028091CC028F5F8093CC0281E08093DD
:101CF000F2021092EE0210C08091EF029091F00279
:101D000088339B4049F481E08093F3021092EE0205
:101D10001092CE021092F202DF91CF911F9108959E
:101D20009C0140E050E060E874E88EE190E00E94A1
:101D300027131092800089E08093810030938900FE
:101D400020938800EFE6F0E080818260808361E08C
:101D5000809121010E947C0460E0809122010E9418
:101D60007C0461E0809123010E947C046091F80270
:101D7000809123010C94B504CF931092FE0210922F
:101D8000FD021092FC021092F1026091F802C1E093
:101D90006C27809123010E94B504C093FB02CF9170
:101DA00008956091F802809123010E94B50460E0DB
:101DB000809121010E94B5041092FB0281E0809382
:101DC000F10208958091FB028111FCCF0895CF921A
:101DD000DF92EF92FF920F931F93CF93DF93F82E32
:101DE000E92ED62E8BE1861708F485C00E94E20EFC
:101DF000C3E0CD0D6C2F8FEF9FEF0E94C80DAC2F6D
:101E0000B0E0F4E0B595A795FA95E1F7A653BE4F7B
:101E10002C9120932C01CF70EC2FF0E0E653FE4F75
:101E2000208120932D010CE211E0CF2CCF2DDE2D4F
:101E30000E5F1F4F2C2F2C192D15D0F47E016881B9
:101E40000E94C80DA991B0E0E4E0B595A795EA9588
:101E5000E1F7A653BE4F2C91D8012C93D701EC91FA
:101E6000EF70F0E0E653FE4F2081F8012183E0CFD0
:101E700061E06D0D660F80959095E62FF0E0E45DD2
:101E8000FE4FDC0144E0B695A7954A95E1F7AF70A7
:101E9000BB27A653BE4F2C912083E1E0E60FF0E074
:101EA000E45DFE4FDC01AF70BB27A653BE4F2C9103
:101EB0002083E2E0E60FF0E0E45DFE4FDC01AB2FB3
:101EC000BB27A295AF70A653BE4F2C912083A3E0F1
:101ED000A60FB0E0A45DBE4FE92FFF27EF70FF27EC
:101EE000E653FE4F80818C93645F6093FF020E94F3
:101EF000BC0E81E001C080E0DF91CF911F910F9176
:101F0000FF90EF90DF90CF9008951F920F920FB641
:101F10000F9211242F933F934F935F936F937F936F
:101F20008F939F93AF93BF93EF93FF938091220181
:101F30000E94EB048093F7028091FB028823C9F092
:101F40008091FC0291E0980F9093FC02811111C0E6
:101F5000E091FE028091FF02E817C0F00E94D10ECE
:101F60008091F9029091FA0201969093FA0280937F
:101F7000F9028091FC02883010F01092FC028091EE
:101F8000F102882321F10E94ED0D21C0F0E0EC5D0B
:101F9000FE4F60812091FD0281E0820F8093FD025F
:101FA00081E090E001C0880F2A95EAF768238091CC
:101FB00021010E94B5048091FD028630D0F210927A
:101FC000FD028091FE028F5F8093FE02D2CFFF91CF
:101FD000EF91BF91AF919F918F917F916F915F91A1
:101FE0004F913F912F910F900FBE0F901F9018951A
:101FF00083FF02C098E2892787FD06C08064909124
:1020000060009093000302C08091000394B7977F13
:1020100094BFF894909160009861909360008093D1
:10202000600078940895EAE7F0E0908180818F77EE
:10203000808383B7817F846083BFF89483B7816096
:1020400083BF85B7806685BF85B78F79806485BF7C
:102050007894889583B78E7F83BF90937A00089594
:10206000DF92EF92FF920F931F93CF93DF938C0138
:10207000EC0128E0E22EF12CC031D10538F19E01AF
:10208000D12C2032310538F0D39489E0D81619F0DC
:1020900036952795F6CF109201038D2D0E94F80FEB
:1020A0000E9413108FEF0E94F80FC70102C0880F23
:1020B000991FDA94E2F7C81BD90B20910103222360
:1020C00019F0C81BD90BD8CF80E001C081E0409146
:1020D0001A0250911B0260911C0270911D020C1B90
:1020E0001D0B400F511F611D711D40931A0250932B
:1020F0001B0260931C0270931D02DF91CF911F9110
:102100000F91FF90EF90DF900895809101038F5F12
:102110008093010308951F920F920FB60F9211241E
:102120002F933F934F935F936F937F938F939F93DF
:10213000AF93BF93EF93FF938091020390910303BA
:10214000892B29F0E0910203F09103030995FF9197
:10215000EF91BF91AF919F918F917F916F915F911F
:102160004F913F912F910F900FBE0F901F90189598
:102170001F920F920FB60F9211242F933F934F93FC
:102180005F936F937F938F939F93AF93BF93EF93DF
:10219000FF938091040390910503892B29F0E0912E
:1021A0000403F09105030995FF91EF91BF91AF9161
:1021B0009F918F917F916F915F914F913F912F915F
:1021C0000F900FBE0F901F901895F8940C944F131A
:1021D000FB01DC010D900020E9F7119701900D92B1
:1021E0000020E1F70895FB019F01E8944230C4F01C
:1021F0004532B4F44A3029F497FB1EF4909581954A
:102200009F4F642F77270E941313805D8A330CF051
:10221000895D8193CB010097A1F716F45DE251939C
:102220001082C9010C9403135058BB27AA270ED063
:102230004DC13ED130F043D120F031F49F3F11F435
:102240001EF433C10EF4E095E7FB29C1E92F4FD10D
:1022500080F3BA17620773078407950718F071F4C3
:102260009EF567C10EF4E0950B2EBA2FA02D0B0141
:10227000B90190010C01CA01A0011124FF27591BCB
:1022800099F0593F50F4503E68F11A16F040A22FD1
:10229000232F342F4427585FF3CF46953795279542
:1022A000A795F0405395C9F77EF41F16BA0B620B41
:1022B000730B840BBAF09150A1F0FF0FBB1F661F88
:1022C000771F881FC2F70EC0BA0F621F731F841FCB
:1022D00048F4879577956795B795F7959E3F08F0F1
:1022E000B3CF9395880F08F09927EE0F97958795B0
:1022F00008950CD0EBC0E3D040F0DAD030F021F4F8
:102300005F3F19F0CCC0511115C1CFC0F0D098F388
:102310009923C9F35523B1F3951B550BBB27AA2766
:1023200062177307840738F09F5F5F4F220F331FD8
:10233000441FAA1FA9F333D00E2E3AF0E0E830D0A4
:1023400091505040E695001CCAF729D0FE2F27D0A7
:10235000660F771F881FBB1F261737074807AB0775
:10236000B0E809F0BB0B802DBF01FF2793585F4FEA
:102370002AF09E3F510568F092C0DCC05F3FECF34D
:10238000983EDCF3869577956795B795F7959F5FAF
:10239000C9F7880F911D9695879597F90895E1E003
:1023A000660F771F881FBB1F621773078407BA0762
:1023B00020F0621B730B840BBA0BEE1F88F7E095BD
:1023C000089504D06894B111B5C0089598D088F0EC
:1023D0009F5790F0B92F9927B751A0F0D1F0660F11
:1023E000771F881F991F1AF0BA95C9F712C0B1302C
:1023F00081F09FD0B1E008959CC0672F782F882787
:10240000B85F39F0B93FCCF3869577956795B3956A
:10241000D9F73EF490958095709561957F4F8F4FD9
:102420009F4F0895E89409C097FB3EF490958095DE
:10243000709561957F4F8F4F9F4F9923A9F0F92F8A
:1024400096E9BB279395F695879577956795B79508
:10245000F111F8CFFAF4BB0F11F460FF1BC06F5FEE
:102460007F4F8F4F9F4F16C0882311F096E911C000
:10247000772321F09EE8872F762F05C0662371F021
:1024800096E8862F70E060E02AF09A95660F771F35
:10249000881FDAF7880F9695879597F9089597F929
:1024A0009F6780E870E060E008959FEF80EC0895FA
:1024B00000240A9416161706180609060895002423
:1024C0000A9412161306140605060895092E03949D
:1024D000000C11F4882352F0BB0F40F4BF2B11F411
:1024E00060FF04C06F5F7F4F8F4F9F4F089557FD70
:1024F0009058440F551F59F05F3F71F04795880F72
:1025000097FB991F61F09F3F79F087950895121608
:1025100013061406551FF2CF4695F1DF08C01616B4
:1025200017061806991FF1CF869571056105089465
:102530000895E894BB2766277727CB0197F908957C
:102540000BD0C4CFB5DF28F0BADF18F0952309F01F
:10255000A6CFABCF1124EECFCADFA0F3959FD1F366
:10256000950F50E0551F629FF001729FBB27F00D41
:10257000B11D639FAA27F00DB11DAA1F649F662796
:10258000B00DA11D661F829F2227B00DA11D621FE5
:10259000739FB00DA11D621F839FA00D611D221F9F
:1025A000749F3327A00D611D231F849F600D211D83
:1025B000822F762F6A2F11249F5750408AF0E1F026
:1025C00088234AF0EE0FFF1FBB1F661F771F881F6F
:1025D00091505040A9F79E3F510570F060CFAACFAF
:1025E0005F3FECF3983EDCF3869577956795B7955A
:1025F000F795E7959F5FC1F7FE2B880F911D969584
:10260000879597F90895DC01FC01672F7191772375
:10261000E1F7329704C07C916D9370836291AE179D
:10262000BF07C8F30895AA1BBB1B51E107C0AA1F2F
:10263000BB1FA617B70710F0A61BB70B881F991F63
:102640005A95A9F780959095BC01CD010895A1E216
:102650001A2EAA1BBB1BFD010DC0AA1FBB1FEE1F1C
:10266000FF1FA217B307E407F50720F0A21BB30B67
:10267000E40BF50B661F771F881F991F1A9469F7E3
:1026800060957095809590959B01AC01BD01CF013F
:102690000895EE0FFF1F0590F491E02D0994F89432
:0226A000FFCF6A
:1026A200284E947A03000087286FABE003000017DE
:1026B20028F588E0030000DF2828CFE0030000E9C6
:1026C200010C0B0A2A2A2A2A2A2A382C0000000086
:1026D20000000000000000000000000000000000F8
:1026E20000000000000000000000000000000000E8
:1026F20000000000000000000000000000000000D8
:102702000000000000000000426565204D6F6E6908
:10271200746F72205632203331354D687A006F70F3
:10272200656E656E657267796D6F6E69746F722E14
:102732006F72670054656D706572617475726520A1
:1027420073656E736F727320666F756E643A2000E4
:1027520041004200430044004500000000006E05B5
:10276200010714054105260563050D0E13151619FB
:0A2772001A1C232526292A2C3234D4
:00000001FF
