:1000000061C0000086C0000084C0000082C0000003
:1000100080C000007EC000007CC000007AC00000EC
:1000200078C0000076C0000074C000000C9429085D
:1000300070C000006EC000006CC000006AC000000C
:100040008DC4000066C00000D1C2000001C30000E2
:1000500060C000005EC000005CC000005AC000002C
:1000600058C0000056C00000000000080002010057
:100070000003040700000000000000000102040863
:100080001020408001020408102001020408102002
:10009000040404040404040402020202020203032E
:1000A00003030303000000002300260029000000D2
:1000B0000000250028002B0000000000240027007D
:1000C0002A00560311241FBECFEFD8E0DEBFCDBFFC
:1000D00011E0A0E0B1E0EEE0F5E102C005900D9284
:1000E000A43AB107D9F722E0A4EAB1E001C01D9219
:1000F000AE3EB207E1F710E0C4ECD0E004C02297B6
:10010000FE010E94C908C23CD107C9F71DD40C9456
:10011000850A76CF9F92AF92BF92CF92DF92EF92F5
:10012000FF920F931F93CF93DF93CDB7DEB76F97F7
:100130000FB6F894DEBF0FBECDBF8EE18F8FBE012C
:10014000615E7F4FCE0101967C0164D7882309F45C
:1001500079C0AF8CB12C6701C6018E199F098A1531
:100160009B050CF06CC0F60191906F01092D1127D1
:1001700007FD10950136110549F486EA91E00E94C9
:10018000570A90931302809312022FC0053611056F
:1001900049F486EA91E00E94570A909311028093F5
:1001A000100223C00B36110549F486EA91E00E9443
:1001B000570A90930F0280930E0217C00D36110557
:1001C00049F486EA91E00E94570A90930D028093C9
:1001D0000C020BC00537110541F486EA91E00E943C
:1001E000570A90930B0280930A02C8018156910925
:1001F0004A9730F0005311090A30110590F00CC0F5
:100200001092A5011092A401E6EAF1E0119281E0BA
:10021000E03BF807D9F7EECF83ED890D823008F087
:100220009BCF8091A4019091A501FC01EA55FE4F5E
:10023000908201969093A5018093A4018DCF81E0D7
:1002400090E002C080E090E06F960FB6F894DEBFB9
:100250000FBECDBFDF91CF911F910F91FF90EF9017
:10026000DF90CF90BF90AF909F90089561E08DE0B8
:100270007DD426E040E855E260E070E084E192E061
:1002800055D181E048D580ED97E0E9D587E040D5AC
:10029000B7D661E08DE0A3D465E571E084E192E03A
:1002A00091D268EE73E080E090E0C5D360E08DE02D
:1002B00096C430DF892B09F458C061E08DE08FD4FB
:1002C0004AE050E06BE070E084E192E01FD361E728
:1002D00071E084E192E06BD260911202709113029E
:1002E0004AE050E084E192E011D361E771E084E1FB
:1002F00092E05DD260911002709111024AE050E0EC
:1003000084E192E003D361E771E084E192E04FD2AF
:1003100060910E0270910F024AE050E084E192E099
:10032000F5D261E771E084E192E041D260910C0284
:1003300070910D024AE050E084E192E0E7D261E77B
:1003400071E084E192E033D260910A0270910B0275
:100350004AE050E084E192E0E0D268EE73E080E0B1
:1003600090E069D360E08DE03AC40895FC01818D8E
:10037000228D90E0805C9F4F821B91098F7399279B
:100380000895FC01918D828D981731F0828DE80FD0
:10039000F11D858D90E008958FEF9FEF0895FC018A
:1003A000918D828D981761F0828DDF01A80FB11DAC
:1003B0005D968C91928D9F5F9F73928F90E00895D0
:1003C0008FEF9FEF08958DE493E0892B41F080E05B
:1003D00090E0892B21F061D181110C9400000895E7
:1003E000FC01848DDF01A80FB11DA35ABF4F2C91D2
:1003F000848D90E001968F739927848FA689B789A1
:100400002C93A089B1898C9180648C93938D848D79
:10041000981306C00288F389E02D80818F7D808348
:100420000895CF93DF93EC01888D8823C1F0EA898A
:10043000FB89808185FD05C0A889B9898C9186FDDD
:100440000EC00FB607FCF5CF808185FFF2CFA889DB
:10045000B9898C9185FFEDCFCE01C2DFE8CFDF9166
:10046000CF910895CF92DF92FF920F931F93CF9376
:10047000DF931F92CDB7DEB76C0181E0D6015896AD
:100480008C9358975B969C915B975C968C915C974C
:10049000981307C05096ED91FC915197808185FD8E
:1004A0002DC0F601038D10E00F5F1F4F0F73112752
:1004B000F02EF601848DF81210C00FB607FCF9CFAC
:1004C000D6015096ED91FC915197808185FFF1CF37
:1004D000C601698385DF6981ECCF838DE80FF11D4B
:1004E000E35AFF4F6083D6015B960C935B9752965D
:1004F000ED91FC915397808180620CC0D601569695
:10050000ED91FC91579760835096ED91FC91519736
:1005100080818064808381E090E00F90DF91CF91B3
:100520001F910F91FF90DF90CF900895BF92CF92CF
:10053000DF92EF92FF92CF93DF93EC016A017B0190
:10054000B22EE889F98982E08083411581EE58074F
:100550006105710599F060E079E08DE390E0A70115
:100560009601F3D521503109410951095695479516
:1005700037952795211580E1380790F0E889F989AA
:10058000108260E874E88EE190E0A7019601DDD565
:1005900021503109410951095695479537952795BD
:1005A000EC85FD853083EE85FF852083188EEC89F0
:1005B000FD89B082EA89FB89808180618083EA8934
:1005C000FB89808188608083EA89FB8980818068DB
:1005D0008083EA89FB8980818F7D8083DF91CF9141
:1005E000FF90EF90DF90CF90BF9008951F920F92F1
:1005F0000FB60F9211242F938F939F93EF93FF9336
:10060000E0912402F09125028081E0912A02F0918C
:100610002B0282FD12C0908180912D028F5F8F731B
:1006200020912E02821751F0E0912D02F0E0EC5E55
:10063000FD4F958F80932D0201C08081FF91EF9136
:100640009F918F912F910F900FBE0F901F90189533
:100650001F920F920FB60F9211242F933F934F9337
:100660005F936F937F938F939F93AF93BF93EF931A
:10067000FF9384E192E0B4DEFF91EF91BF91AF91DF
:100680009F918F917F916F915F914F913F912F91AA
:100690000F900FBE0F901F90189584E192E066DED8
:1006A00021E0892B09F420E0822F0895109217028F
:1006B0001092160288EE93E0A0E0B0E0809318025A
:1006C00090931902A0931A02B0931B0287E791E05E
:1006D000909315028093140285EC90E09093210290
:1006E0008093200284EC90E0909323028093220276
:1006F00080EC90E0909325028093240281EC90E0BE
:10070000909327028093260282EC90E09093290236
:100710008093280286EC90E090932B0280932A022B
:1007200010922D0210922E0210922F02109230027F
:100730000895CF92DF92EF92FF920F931F93CF9382
:10074000DF937C016A01EB0100E010E00C151D0550
:1007500071F06991D701ED91FC910190F081E02D4C
:10076000C7010995892B19F00F5F1F4FEFCFC80103
:10077000DF91CF911F910F91FF90EF90DF90CF907D
:1007800008956115710581F0DB010D900020E9F7F6
:10079000AD0141505109461B570BDC01ED91FC9115
:1007A0000280F381E02D099480E090E00895E9CF84
:1007B000DC01ED91FC910190F081E02D099463E85A
:1007C00071E0DFCF0F931F93CF93DF93EC01D9DF5D
:1007D0008C01CE01F4DF800F911FDF91CF911F912B
:1007E0000F9108958F929F92AF92BF92DF92EF92F6
:1007F000FF920F931F93CF93DF93CDB7DEB7A197EF
:100800000FB6F894DEBF0FBECDBF7C01F42FD52EFE
:10081000CB0119A2223008F42AE08E010F5D1F4F90
:10082000822E912CA12CB12C6F2F7D2DA50194012E
:100830008CD4F22FD32ECA01015011096A3014F45E
:10084000E0E301C0E7E3E60FD801EC93232B242B70
:10085000252B51F7B801C70194DFA1960FB6F89484
:10086000DEBF0FBECDBFDF91CF911F910F91FF90E3
:10087000EF90DF90BF90AF909F908F900895CF92B0
:10088000DF92EF92FF920F931F93CF93DF93EC01D0
:100890006A017B012115310579F4E881F981019024
:1008A000F081E02D642FDF91CF911F910F91FF9088
:1008B000EF90DF90CF9009942A303105D9F477FF7B
:1008C00018C06DE275DF8C0144275527BA014C1919
:1008D0005D096E097F092AE0CE0184DF800F911F38
:1008E000DF91CF911F910F91FF90EF90DF90CF900C
:1008F00008952AE0B701A601CE01DF91CF911F91A3
:100900000F91FF90EF90DF90CF906CCF9A01AB01E9
:10091000662757FD6095762FB2CF0F931F93CF9325
:10092000DF93EC019A01AB01662757FD6095762FA6
:10093000A6DF8C01CE0143DF800F911FDF91CF91A5
:100940001F910F9108950895ADD0FDDF8FDCC3EEA8
:10095000D1E0AFDC2097E9F336DDFBCF1F920F9299
:100960000FB60F9211242F933F938F939F93AF93C2
:10097000BF938091B2029091B302A091B402B09162
:10098000B5023091B10223E0230F2D3720F40196F8
:10099000A11DB11D05C026E8230F0296A11DB11DA2
:1009A0002093B1028093B2029093B302A093B40259
:1009B000B093B5028091B6029091B702A091B802AF
:1009C000B091B9020196A11DB11D8093B60290931A
:1009D000B702A093B802B093B902BF91AF919F91B3
:1009E0008F913F912F910F900FBE0F901F901895F0
:1009F0003FB7F8948091B6029091B702A091B802E7
:100A0000B091B90226B5A89B05C02F3F19F00196F9
:100A1000A11DB11D3FBF6627782F892F9A2F620F26
:100A2000711D811D911D42E0660F771F881F991F60
:100A30004A95D1F708958F929F92AF92BF92CF922D
:100A4000DF92EF92FF926B017C01D2DF4B015C01E0
:100A5000C114D104E104F104E1F01ED1C9DF681929
:100A600079098A099B09683E73408105910580F3E5
:100A700021E0C21AD108E108F10888EE880E83E06F
:100A8000981EA11CB11CC114D104E104F10431F77A
:100A9000DFCFFF90EF90DF90CF90BF90AF909F900F
:100AA0008F900895789484B5826084BD84B5816008
:100AB00084BD85B5826085BD85B5816085BDEEE666
:100AC000F0E0808181608083E1E8F0E01082808145
:100AD00082608083808181608083E0E8F0E08081B3
:100AE00081608083E1EBF0E0808184608083E0EBD3
:100AF000F0E0808181608083EAE7F0E080818460BB
:100B00008083808182608083808181608083808116
:100B1000806880831092C1000895833081F028F4AA
:100B2000813099F08230A1F008958730A9F08830A3
:100B3000B9F08430D1F4809180008F7D03C0809122
:100B400080008F7780938000089584B58F7702C0EE
:100B500084B58F7D84BD08958091B0008F7703C0E8
:100B60008091B0008F7D8093B0000895CF93DF9384
:100B700090E0FC01E458FF4F2491FC01E057FF4F47
:100B80008491882349F190E0880F991FFC01E85473
:100B9000FF4FA591B49182559F4FFC01C591D4910F
:100BA0009FB7611108C0F8948C91209582238C9393
:100BB000888182230AC0623051F4F8948C91322FDC
:100BC000309583238C938881822B888304C0F8948A
:100BD0008C91822B8C939FBFDF91CF9108950F93BF
:100BE0001F93CF93DF931F92CDB7DEB7282F30E04E
:100BF000F901E859FF4F8491F901E458FF4F14912E
:100C0000F901E057FF4F04910023C1F0882319F048
:100C1000698383DF6981E02FF0E0EE0FFF1FE2556B
:100C2000FF4FA591B4919FB7F8948C91611103C0C7
:100C30001095812301C0812B8C939FBF0F90DF9172
:100C4000CF911F910F910895CF93DF93282F30E01C
:100C5000F901E859FF4F8491F901E458FF4FD4910D
:100C6000F901E057FF4FC491CC2389F0811155DF82
:100C7000EC2FF0E0EE0FFF1FEC55FF4FA591B49164
:100C80002C912D2381E090E021F480E002C080E0EF
:100C900090E0DF91CF9108950895682780E1689FE3
:100CA00090011124622770E0362F2227492F50E04F
:100CB000242B352BCB01F4E095958795FA95E1F738
:100CC00028273927CB01A3E0880F991FAA95E1F7C0
:100CD0008227932708951F93CF93DF93162FEC015C
:100CE0008FEF9FEF115018F06991D7DFFBCFDF91A5
:100CF000CF911F910895E4E9F1E090E021918217EE
:100D000029F09F5F9031D1F780E00895892F0895F1
:100D10008093010108958093E60208951F93CF9375
:100D2000DF939091E502992329F08091E2028F5F91
:100D30008093E2022091E4028091E302921759F03D
:100D4000803510F42BE001C02DE1820F8093E30287
:100D50009093E40203C08C5E8093E3022091E3024F
:100D6000203A08F478C08091DD029091DE029695D9
:100D700087959093DE028093DD023091E202353058
:100D800028F098609093DE028093DD02205A209331
:100D9000E3021092E2028091E102882309F44BC041
:100DA0008091DC028F5F8093DC028C3008F453C0AA
:100DB000C091DD02D091DE028C2F8F739CDF182F43
:100DC000CE01C6E096958795CA95E1F794DF90E14C
:100DD000199F90011124822B9091BC0291110EC099
:100DE0008093BD029CEF980F9B3140F01092E1027E
:100DF0008091BB028F5F8093BB022DC0E091BC024B
:100E000091E09E0F9093BC02F0E0E254FD4F80838E
:100E10009091BC028091BD02981750F01092E102AF
:100E20008091BA028F5F8093BA0281E08093E002E2
:100E30001092DC0210C08091DD029091DE028833B6
:100E40009B4049F481E08093E1021092DC02109211
:100E5000BC021092E002DF91CF911F9108954F9252
:100E60005F926F927F92BF92CF92DF92EF92FF924A
:100E70000F931F93CF93DF93CDB7DEB72E970FB6A7
:100E8000F894DEBF0FBECDBFBC018EE0E7E4F1E019
:100E9000DE01119601900D928A95E1F761157105B9
:100EA00009F48EC080E090E011D29B01AC0160E0BB
:100EB00070E080E89FE371D120E030E040E05EE345
:100EC00093D26B017C018E010D5F1F4FBB24B39445
:100ED000F801619171918F0180E090E0F7D19B0161
:100EE000AC0160E074E284E79BE457D19B01AC0164
:100EF00060E070E080E89FE350D19B01AC01C70146
:100F0000B6014BD1B2D12B013C01F2E04F1A51088E
:100F1000610871082DEF42162FEF5206610471042B
:100F200028F0B394E7E0BE12D3CF05C0F6E0BF16B9
:100F300009F446C00CC0623071058105910508F4C2
:100F40003FC06115710521E082079105C8F5BB20FE
:100F5000B9F11092800028E0209381002091810057
:100F60002B292093810070938900609388008091E1
:100F70006F00826080936F0061E080910001F6DD78
:100F800060E080910101F2DD61E080910201EEDD1F
:100F90006091E602809102012E960FB6F894DEBFB2
:100FA0000FBECDBFDF91CF911F910F91FF90EF90BA
:100FB000DF90CF90BF907F906F905F904F900FCE5B
:100FC0002E960FB6F894DEBF0FBECDBFDF91CF9146
:100FD0001F910F91FF90EF90DF90CF90BF907F9087
:100FE0006F905F904F9008956091E60280910201AA
:100FF000F6DD60E080910001F2DD1092E9020895D3
:101000008091DF02811105C081E08093DF021092A0
:10101000E1020895FB012091E0022223B9F0209122
:10102000BC0223503081231708F42083408150E014
:101030006FEB72E059D21092E0026091BC028EEB2D
:1010400092E049DE21E0883B904F09F020E0822FBA
:1010500008951F920F920FB60F9211242F933F9372
:101060004F935F936F937F938F939F93AF93BF93B0
:10107000EF93FF938091DF02882321F08091E902B2
:10108000882361F18091E9028823C1F08091EA020E
:1010900091E0980F9093EA02811110C0E091EC0268
:1010A0008091ED02E81700F19FDF8091E7029091B7
:1010B000E80201969093E8028093E7028091EA02A9
:1010C000883010F01092EA028091DF02882361F1EB
:1010D0008091E902811128C021DE26C080910101A2
:1010E000B3DD8093E502CECFF0E0ED5FFE4F60818F
:1010F0002091EB0281E0820F8093EB0281E090E08F
:1011000001C0880F2A95EAF768238091000167DD06
:101110008091EB02863090F21092EB028091EC020B
:101120008F5F8093EC02CACFFF91EF91BF91AF9197
:101130009F918F917F916F915F914F913F912F91EF
:101140000F900FBE0F901F901895A1E21A2EAA1BA8
:10115000BB1BFD010DC0AA1FBB1FEE1FFF1FA21767
:10116000B307E407F50720F0A21BB30BE40BF50B64
:10117000661F771F881F991F1A9469F760957095ED
:10118000809590959B01AC01BD01CF010895EE0FB4
:10119000FF1F0590F491E02D09940CD0EBC0E3D033
:1011A00040F0DAD030F021F45F3F19F0CCC051119B
:1011B00015C1CFC0F0D098F39923C9F35523B1F3EB
:1011C000951B550BBB27AA2762177307840738F0B6
:1011D0009F5F5F4F220F331F441FAA1FA9F333D015
:1011E0000E2E3AF0E0E830D091505040E695001CC9
:1011F000CAF729D0FE2F27D0660F771F881FBB1F85
:10120000261737074807AB07B0E809F0BB0B802D5E
:10121000BF01FF2793585F4F2AF09E3F510568F0AA
:1012200092C0DCC05F3FECF3983EDCF38695779587
:101230006795B795F7959F5FC9F7880F911D9695AC
:10124000879597F90895E1E0660F771F881FBB1F08
:10125000621773078407BA0720F0621B730B840BB5
:10126000BA0BEE1F88F7E095089504D06894B11189
:10127000B5C0089598D088F09F5790F0B92F99275E
:10128000B751A0F0D1F0660F771F881F991F1AF091
:10129000BA95C9F712C0B13081F09FD0B1E008957E
:1012A0009CC0672F782F8827B85F39F0B93FCCF3FF
:1012B000869577956795B395D9F73EF49095809587
:1012C000709561957F4F8F4F9F4F0895E89409C0A7
:1012D00097FB3EF490958095709561957F4F8F4F69
:1012E0009F4F9923A9F0F92F96E9BB279395F6957F
:1012F000879577956795B795F111F8CFFAF4BB0FFD
:1013000011F460FF1BC06F5F7F4F8F4F9F4F16C060
:10131000882311F096E911C0772321F09EE8872FEA
:10132000762F05C0662371F096E8862F70E060E0A6
:101330002AF09A95660F771F881FDAF7880F96951F
:10134000879597F9089597F99F6780E870E060E0C6
:1013500008959FEF80EC089500240A94161617064E
:1013600018060906089500240A9412161306140696
:1013700005060895092E0394000C11F4882352F0F9
:10138000BB0F40F4BF2B11F460FF04C06F5F7F4FB1
:101390008F4F9F4F089557FD9058440F551F59F098
:1013A0005F3F71F04795880F97FB991F61F09F3F52
:1013B00079F087950895121613061406551FF2CF7B
:1013C0004695F1DF08C0161617061806991FF1CFCB
:1013D00086957105610508940895E894BB276627F2
:1013E0007727CB0197F908950BD0C4CFB5DF28F04C
:1013F000BADF18F0952309F0A6CFABCF1124EECFBA
:10140000CADFA0F3959FD1F3950F50E0551F629F5F
:10141000F001729FBB27F00DB11D639FAA27F00D4D
:10142000B11DAA1F649F6627B00DA11D661F829F74
:101430002227B00DA11D621F739FB00DA11D621F59
:10144000839FA00D611D221F749F3327A00D611D76
:10145000231F849F600D211D822F762F6A2F112458
:101460009F5750408AF0E1F088234AF0EE0FFF1FAB
:10147000BB1F661F771F881F91505040A9F79E3FE2
:10148000510570F060CFAACF5F3FECF3983EDCF3DC
:10149000869577956795B795F795E7959F5FC1F71F
:1014A000FE2B880F911D9695879597F90895FC015D
:1014B00088279927E89421912032E9F3293010F008
:1014C0002E30C8F32B3239F02D3231F4689403C03A
:1014D00014D0820F911D219120532A30C8F31EF49D
:1014E000909581959F4F0895FB01DC0102C001900A
:1014F0000D9241505040D8F708957AE0979F902D73
:0E150000879F802D910D11240895F894FFCF40
:10150E000C0B0A2A2A2A2A2A2A382C00000000004C
:10151E0000000000000000000000000000000000BD
:10152E0000000000000000000000000000000000AD
:10153E00000000000000000000000000000000009D
:10154E000000000000000000000100080040000044
:10155E00010004050D426565204D6F6E69746F7252
:10156E002052782056322E352031314A756C313664
:10157E000020000000000032029903B601CF01C125
:10158E000111020D0A006E616E00696E66006F76C3
:10159E0066002E000D0E131516191A1C232526296A
:0415AE002A2C32347D
:00000001FF
