:100000000C9462000C948A000C948A000C948A0070
:100010000C948A000C948A000C948A000C948A0038
:100020000C948A000C948A000C948A000C94FD02B3
:100030000C948A000C948A000C948A000C948A0018
:100040000C942A040C948A000C949A040C94740462
:100050000C948A000C948A000C948A000C948A00F8
:100060000C948A000C948A000000000024002700F1
:100070002A0000000000250028002B0000000000DE
:1000800023002600290004040404040404040202DA
:100090000202020203030303030301020408102007
:1000A0004080010204081020010204081020000012
:1000B0000008000201000003040700000000000027
:1000C0000000F80611241FBECFEFD8E0DEBFCDBF81
:1000D00011E0A0E0B1E0E2E7F1E102C005900D928D
:1000E000A433B107D9F722E0A4E3B1E001C01D9227
:1000F000AB37B207E1F710E0C2E6D0E004C02197C9
:10010000FE010E944707C136D107C9F70E94CC04FF
:100110000C94B7080C940000833081F028F48130EF
:1001200099F08230A1F008958730A9F08830B9F0B5
:100130008430D1F4809180008F7D03C08091800055
:100140008F7780938000089584B58F7702C084B53F
:100150008F7D84BD08958091B0008F7703C080911A
:10016000B0008F7D8093B00008951F93CF93DF93ED
:10017000282F30E0F901E255FF4F8491F901E6564E
:10018000FF4FD491F901EA57FF4FC491CC23C9F036
:10019000162F81110E948C00EC2FF0E0EE0FFF1F54
:1001A000EE58FF4FA591B4918FB7F894111105C087
:1001B0009C91ED2FE095E92302C0EC91ED2BEC939F
:1001C0008FBFDF91CF911F910895CF93DF9390E080
:1001D000FC01E656FF4F2491FC01EA57FF4F849142
:1001E000882361F190E0880F991FFC01E859FF4FC7
:1001F000C591D491FC01EE58FF4FA591B4916111C6
:1002000009C09FB7F8948881209582238883EC9158
:100210002E230BC0623061F49FB7F8943881822F8F
:10022000809583238883EC912E2B2C939FBF06C04F
:100230008FB7F894E8812E2B28838FBFDF91CF9161
:1002400008953FB7F8948091A9019091AA01A091D7
:10025000AB01B091AC0126B5A89B05C02F3F19F0AA
:100260000196A11DB11D3FBFBA2FA92F982F882736
:10027000820F911DA11DB11DBC01CD0142E0660F91
:10028000771F881F991F4A95D1F708958F929F92E3
:10029000AF92BF92CF92DF92EF92FF926B017C01FF
:1002A0000E9421014B015C01C114D104E104F1045D
:1002B000F1F00E942101DC01CB0188199909AA09FA
:1002C000BB09883E9340A105B10570F321E0C21A35
:1002D000D108E108F10888EE880E83E0981EA11C81
:1002E000B11CC114D104E104F10419F7DDCFFF9072
:1002F000EF90DF90CF90BF90AF909F908F90089538
:10030000CF92DF92EF92FF920F931F93CF93DF93E1
:100310006C017A018B01C0E0D0E0CE15DF0589F0D9
:10032000D8016D918D01D601ED91FC910190F08184
:10033000E02DC6010995892B11F47E0102C021969A
:10034000ECCFC701DF91CF911F910F91FF90EF90FC
:10035000DF90CF900895FC01918D828D981761F008
:10036000828DDF01A80FB11D5D968C91928D9F5FEC
:100370009F73928F90E008958FEF9FEF0895FC0197
:10038000918D828D981731F0828DE80FF11D858D4A
:1003900090E008958FEF9FEF0895FC01918D228DDD
:1003A000892F90E0805C9F4F821B91098F73992762
:1003B00008958EED91E00E94CD0121E0892B09F492
:1003C00020E0822F0895FC01848DDF01A80FB11D6C
:1003D000A35ABF4F2C91848D90E001968F7399277B
:1003E000848FA689B7892C93A089B1898C91806468
:1003F0008C93938D848D981306C00288F389E02D29
:1004000080818F7D80830895EF92FF920F931F93D9
:10041000CF93DF93EC0181E0888F9B8D8C8D9813B7
:1004200005C0E889F989808185FD24C0F62E0B8DF1
:1004300010E00F5F1F4F0F731127E02E8C8DE81215
:100440000CC00FB607FCFACFE889F989808185FFD7
:10045000F5CFCE010E94E301F1CF8B8DFE01E80FB5
:10046000F11DE35AFF4FF0820B8FEA89FB898081EF
:10047000806207C0EE89FF896083E889F9898081FD
:100480008064808381E090E0DF91CF911F910F9194
:10049000FF90EF900895CF93DF93EC01888D882330
:1004A000C9F0EA89FB89808185FD05C0A889B989E1
:1004B0008C9186FD0FC00FB607FCF5CF808185FFBC
:1004C000F2CFA889B9898C9185FFEDCFCE010E942A
:1004D000E301E7CFDF91CF91089580E090E0892B91
:1004E00029F00E94D90181110C9400000895009711
:1004F00069F0FC0101900020E9F73197AF01481B3A
:10050000590BBC018EED91E00C94800180E090E0ED
:1005100008958F929F92AF92BF920F931F93CF93A4
:10052000DF93CDB7DEB7A1970FB6F894DEBF0FBE4D
:10053000CDBF19A2423008F44AE08E010F5D1F4F73
:10054000842E912CA12CB12CA50194010E94250789
:10055000E62FB901CA0101501109EA3014F4E05D37
:1005600001C0E95CD801EC93232B242B252B61F7E8
:10057000C8010E947702A1960FB6F894DEBF0FBEA5
:10058000CDBFDF91CF911F910F91BF90AF909F9002
:100590008F900895CF92DF92EF92FF92CF93DF93E7
:1005A0006B017C01E091DE01F091DF010190F081AF
:1005B000E02D6DE28EED91E00995EC01662777273D
:1005C000CB016C197D098E099F094AE00E948902BE
:1005D0008C0F9D1FDF91CF91FF90EF90DF90CF9018
:1005E0000895BC01990F880B990B97FD0C94CA02D2
:1005F0004AE00C9489020E9483081F920F920FB662
:100600000F9211241F932F933F934F935F936F93F8
:100610007F938F939F93AF93BF93CF93DF93EF938A
:10062000FF931091DD01112331F18091DC018111E3
:1006300022C02091000130E0F901E255FF4F849182
:10064000F901E656FF4FD491F901EA57FF4FC491E3
:10065000CC2359F181110E948C00EC2FF0E0EE0FB9
:10066000FF1FE458FF4FA591B491EC91ED2381E079
:10067000E1F08093DB018091DC01882341F08091DF
:10068000DA0191E0980F9093DA01882381F080914C
:10069000DA01883010F01092DA01112309F4C6C093
:1006A0004091DC014423C1F0C1C080E0E2CF609101
:1006B000AD018AE00E94B50060E08CE00E94B500C8
:1006C0001092DC018091D8019091D901019690930C
:1006D000D9018093D801DBCF8091DB01882329F0F9
:1006E0009091D7019F5F9093D7012091D60190916F
:1006F000D501821759F0903510F02DE101C02BE0A3
:10070000920F9093D5018093D60103C09C5E909385
:10071000D5019091D501903A08F488C02091D30179
:100720003091D401369527953093D4012093D3018D
:100730008091D701853028F038603093D401209320
:10074000D301905A9093D5011092D7018091D20194
:10075000882309F45BC09091D1019F5F9093D101F0
:100760009C3008F463C02091D3013091D401822FD2
:100770008F73EFE1F1E0DF0190E05D91851721F0EB
:100780009F5F9031D1F790E050E1959FC001112417
:1007900096E0369527959A95E1F730E05191251727
:1007A00021F03F5F3031D1F701C0432F842B90916E
:1007B000D00191110EC08093CF019CEF980F9B3117
:1007C00040F01092D2018091CE018F5F8093CE01D4
:1007D0002DC0E091D00191E09E0F9093D001F0E008
:1007E000E055FE4F80839091D0018091CF01981702
:1007F00050F01092D2018091AF018F5F8093AF01D2
:1008000081E08093AE011092D10110C08091D3019C
:100810009091D40188339B4049F481E08093D201C8
:100820001092D1011092D0011092AE01FF91EF9180
:10083000DF91CF91BF91AF919F918F917F916F91F8
:100840005F914F913F912F911F910F900FBE0F908D
:100850001F9018951F920F920FB60F9211242F938D
:100860003F938F939F93AF93BF938091A5019091F6
:10087000A601A091A701B091A8013091A40123E0A5
:10088000230F2D3720F40196A11DB11D05C026E8C8
:10089000230F0296A11DB11D2093A4018093A501F1
:1008A0009093A601A093A701B093A8018091A901FC
:1008B0009091AA01A091AB01B091AC010196A11D4C
:1008C000B11D8093A9019093AA01A093AB01B093AD
:1008D000AC01BF91AF919F918F913F912F910F905C
:1008E0000FBE0F901F9018951F920F920FB60F9288
:1008F00011242F933F934F935F936F937F938F9325
:100900009F93AF93BF93EF93FF938EED91E00E947F
:10091000E301FF91EF91BF91AF919F918F917F91F3
:100920006F915F914F913F912F910F900FBE0F905C
:100930001F9018951F920F920FB60F9211242F93AC
:100940008F939F93EF93FF93E091EE01F091EF016E
:100950008081E091F401F091F50182FD12C0908157
:100960008091F7018F5F8F732091F801821751F00A
:10097000E091F701F0E0E252FE4F958F8093F7018E
:1009800001C08081FF91EF919F918F912F910F90E6
:100990000FBE0F901F901895CF93DF93CDB7DEB7A2
:1009A0006E970FB6F894DEBF0FBECDBF789484B5B6
:1009B000826084BD84B5816084BD85B5826085BD5B
:1009C00085B5816085BD80916E00816080936E00E9
:1009D00010928100809181008260809381008091DB
:1009E000810081608093810080918000816080938C
:1009F00080008091B10084608093B1008091B0004C
:100A000081608093B00080917A00846080937A0046
:100A100080917A00826080937A0080917A00816070
:100A200080937A0080917A00806880937A00109297
:100A3000C10061E08DE00E94E500E091EE01F091DF
:100A4000EF0182E08083E091EA01F091EB011082F6
:100A5000E091EC01F091ED018FEC80831092F601B2
:100A6000E091F201F091F30186E08083E091F001E2
:100A7000F091F101808180618083E091F001F0913B
:100A8000F101808188608083E091F001F091F101B3
:100A9000808180688083E091F001F091F101808194
:100AA0008F7D808381E08093AD018EE0E1E0F1E015
:100AB0009E012F5F3F4F6901D90101900D928A95E8
:100AC000E1F77E0133E0E30EF11C11E0F7016191E3
:100AD00071917F0180E090E00E94F5079B01AC01DD
:100AE00060E074E284E79BE40E944D079B01AC0147
:100AF00060E070E080E89FE30E944D079B01AC013D
:100B00006FE672E183E898E30E944D070E94BF07F9
:100B10004B015C01F2E08F1A9108A108B1082DEF9A
:100B200082162FEF9206A104B10408F45DC11F5F85
:100B3000173061F6623071058105910568F1611524
:100B4000710531E08307910538F5112329F11092E1
:100B5000800028E02093810020918100122B1093C7
:100B60008100709389006093880080916F0082609B
:100B700080936F0061E08CE00E94E50060E080916E
:100B800000010E94E50061E08AE00E94E5006091BA
:100B9000AD018AE00E94B50087E08093000180915A
:100BA000DD01811105C081E08093DD011092D20149
:100BB00061E08DE00E94B50068EE73E080E090E0B7
:100BC0000E94460160E08DE00E94B5008091AE0178
:100BD000811103C080E090E0AFC08091D0018350CC
:100BE0008E3108F08EE1E82EF12CA70161EB71E067
:100BF000C6010E9488081092AE018091D001E0EBFE
:100C0000F1E04FEF5FEF8150F0F02191242790E168
:100C1000299FB0011124262730E0722F6627452F27
:100C20005527462B572BB901B4E075956795BA95B2
:100C3000E1F74627572713E0220F331F1A95E1F7F4
:100C400042275327E0CF483B504F21F65601C501BC
:100C50008C199D098E159F050CF06CC0F5019190C3
:100C60005F01092D092C000C110B0136110549F407
:100C700086E391E00E9491089093A3018093A201E2
:100C80002FC00536110549F486E391E00E949108D2
:100C90009093A1018093A00123C00B36110549F464
:100CA00086E391E00E94910890939F0180939E01BA
:100CB00017C00D36110549F486E391E00E949108B2
:100CC00090939D0180939C010BC00537110541F461
:100CD00086E391E00E94910890939B0180939A0192
:100CE000C801815691094A9730F0005311090A3022
:100CF000110590F00CC01092350110923401E6E31A
:100D0000F1E0119221E0E034F207D9F7EECF83ED64
:100D1000890D823008F09BCF80913401909135018C
:100D2000FC01EA5CFE4F908201969093350180931E
:100D300034018DCF81E090E0892B09F452C061E04D
:100D40008DE00E94B5008BE090E00E94F1028FE2FE
:100D500091E00E9477028091A2019091A3010E94EC
:100D6000F1028FE291E00E9477028091A0019091C0
:100D7000A1010E94F1028FE291E00E94770280912E
:100D80009E0190919F010E94F1028FE291E00E94EA
:100D9000770280919C0190919D010E94F1028FE267
:100DA00091E00E94770260919A0170919B01072E59
:100DB000000C880B990B97FF03C00E94CA0203C066
:100DC0004AE00E94890281E391E00E94770260ED8F
:100DD00077E080E090E00E94460160E08DE00E94B4
:100DE000B5000E946D02F2CE163009F0AECED4CE20
:100DF000EEEDF1E01382128288EE93E0A0E0B0E025
:100E000084839583A683B78383E191E09183808374
:100E100085EC90E09587848784EC90E097878687BF
:100E200080EC90E0918B808B81EC90E0938B828BB7
:100E300082EC90E0958B848B86EC90E0978B868B90
:100E4000118E128E138E148E0895A1E21A2EAA1BF3
:100E5000BB1BFD010DC0AA1FBB1FEE1FFF1FA2176A
:100E6000B307E407F50720F0A21BB30BE40BF50B67
:100E7000661F771F881F991F1A9469F760957095F0
:100E8000809590959B01AC01BD01CF010895EE0FB7
:100E9000FF1F0590F491E02D09940E9461070C94C6
:100EA00049080E94420858F00E943B0840F029F48B
:100EB0005F3F29F00C94320851110C947D080C947A
:100EC00038080E945A0868F39923B1F3552391F327
:100ED000951B550BBB27AA2762177307840738F0A9
:100EE0009F5F5F4F220F331F441FAA1FA9F335D006
:100EF0000E2E3AF0E0E832D091505040E695001CBA
:100F0000CAF72BD0FE2F29D0660F771F881FBB1F73
:100F1000261737074807AB07B0E809F0BB0B802D51
:100F2000BF01FF2793585F4F3AF09E3F510578F07D
:100F30000C9432080C947D085F3FE4F3983ED4F3A0
:100F4000869577956795B795F7959F5FC9F7880F51
:100F5000911D9695879597F90895E1E0660F771FA3
:100F6000881FBB1F621773078407BA0720F0621B34
:100F7000730B840BBA0BEE1F88F7E09508950E945F
:100F8000C6076894B1110C947D0808950E94620808
:100F900088F09F5798F0B92F9927B751B0F0E1F03A
:100FA000660F771F881F991F1AF0BA95C9F714C0EA
:100FB000B13091F00E947C08B1E008950C947C0857
:100FC000672F782F8827B85F39F0B93FCCF3869523
:100FD00077956795B395D9F73EF490958095709580
:100FE00061957F4F8F4F9F4F0895E89409C097FBFD
:100FF0003EF490958095709561957F4F8F4F9F4FF0
:101000009923A9F0F92F96E9BB279395F695879533
:1010100077956795B795F111F8CFFAF4BB0F11F4F6
:1010200060FF1BC06F5F7F4F8F4F9F4F16C088239D
:1010300011F096E911C0772321F09EE8872F762FD3
:1010400005C0662371F096E8862F70E060E02AF014
:101050009A95660F771F881FDAF7880F9695879500
:1010600097F9089597F99F6780E870E060E0089528
:101070009FEF80EC089500240A94161617061806B0
:101080000906089500240A9412161306140605068C
:101090000895092E0394000C11F4882352F0BB0F1D
:1010A00040F4BF2B11F460FF04C06F5F7F4F8F4F80
:1010B0009F4F089557FD9058440F551F59F05F3FBB
:1010C00071F04795880F97FB991F61F09F3F79F06A
:1010D00087950895121613061406551FF2CF4695EC
:1010E000F1DF08C0161617061806991FF1CF86956E
:1010F0007105610508940895E894BB276627772752
:10110000CB0197F9089581E090E0F8940C94B7082A
:10111000FB01DC0102C001900D9241505040D8F714
:101120000895FC0188279927E89421912032E9F35A
:10113000293010F02E30C8F32B3241F02D3239F423
:10114000689404C00E94AF08820F911D2191205322
:101150002A30C0F31EF4909581959F4F08957AE050
:10116000979F902D879F802D910D11240895F894BD
:02117000FFCFAF
:101172000B000001000800400000010004050D0002
:1011820000000004028001CD01AB01BF014B020D42
:101192000E131516191A1C232526292A2C3234203F
:0411A200000D0A0032
:00000001FF
